:020000040800F2
:100000000000032001970408499104084B9104085B
:100010004D9104084F91040851910408000000001C
:1000200000000000000000000000000053910408E0
:1000300055910408000000005791040851970408E6
:1000400051970408519704085197040851970408E0
:1000500051970408519704085197040851970408D0
:1000600051970408519704085197040851970408C0
:1000700051970408519704085197040851970408B0
:1000800051970408519704085197040851970408A0
:100090005197040851970408519704085197040890
:1000A0005197040851970408519704085197040880
:1000B0005197040851970408519704085197040870
:1000C0005197040851970408519704085197040860
:1000D0005197040851970408519704085197040850
:1000E0005197040851970408519704085197040840
:1000F0005197040851970408519704085197040830
:10010000519704085197040851970408519704081F
:10011000519704085197040859910408519704080D
:1001200051970408519704085197040851970408FF
:1001300051970408519704085197040851970408EF
:1001400051970408519704085197040851970408DF
:1001500051970408519704085197040851970408CF
:1001600051970408519704085197040851970408BF
:1001700051970408519704085197040800000000A3
:10018000519704085197040851970408519704089F
:10019000519704085197040851970408519704088F
:0C01A00051970408519704085197040877
:1001B00010B5054C237833B9044B13B10448AFF3A1
:1001C00000800123237010BD8C020020000000007D
:1001D000E801050808B5034B1BB103490348AFF319
:1001E000008008BD0000000090020020E801050822
:1001F00001F0FF01102A2BDB10F0070F08D010F8D8
:10020000013B013A8B422DD010F0070F42B3F6D1DB
:10021000F0B441EA012141EA014122F007047FF0F4
:1002200000070023F0E80256083C85EA010586EA4B
:10023000010685FA47F5A3FA87F586FA47F6A5FA87
:1002400087F68EB9EED1F0BC01F0FF0102F0070293
:1002500032B110F8013B013A83EA010313B1F8D13E
:100260000020704701387047002D06BF354603381F
:10027000073815F0010F07D1013015F4807F02BF58
:10028000013015F4C03F0130F0BC0138704700BFA9
:1002900010F8012B11F8013B012A28BF9A42F7D030
:1002A000D01A7047034613F8012B002AFBD1181A05
:1002B0000138704781F0004102E000BF83F0004345
:1002C00030B54FEA41044FEA430594EA050F08BFF1
:1002D00090EA020F1FBF54EA000C55EA020C7FEAB5
:1002E000645C7FEA655C00F0E2804FEA5454D4EB32
:1002F0005555B8BF6D420CDD2C4480EA020281EAFC
:10030000030382EA000083EA010180EA020281EA33
:100310000303362D88BF30BD11F0004F4FEA013185
:100320004FF4801C4CEA113102D0404261EB410194
:1003300013F0004F4FEA03334CEA133302D052421A
:1003400063EB430394EA050F00F0A780A4F10104D6
:10035000D5F1200E0DDB02FA0EFC22FA05F2801810
:1003600041F1000103FA0EF2801843FA05F35941F6
:100370000EE0A5F120050EF1200E012A03FA0EFC75
:1003800028BF4CF0020C43FA05F3C01851EBE3719F
:1003900001F0004507D54FF0000EDCF1000C7EEBBC
:1003A00000006EEB0101B1F5801F1BD3B1F5001FFA
:1003B0000CD349085FEA30004FEA3C0C04F1010419
:1003C0004FEA445212F5800F80F09A80BCF1004F42
:1003D00008BF5FEA500C50F1000041EB045141EAC4
:1003E000050130BD5FEA4C0C404141EB0101013C8D
:1003F00028BFB1F5801FE9D291F0000F04BF01467C
:100400000020B1FA81F308BF2033A3F10B03B3F14D
:1004100020020CDA0C3208DD02F1140CC2F10C02DD
:1004200001FA0CF021FA02F10CE002F11402D8BF3B
:10043000C2F1200C01FA02F120FA0CFCDCBF41EA07
:100440000C019040E41AA2BF01EB0451294330BDD6
:100450006FEA04041F3C1CDA0C340EDC04F11404B3
:10046000C4F1200220FA04F001FA02F340EA03008A
:1004700021FA04F345EA030130BDC4F10C04C4F1D0
:10048000200220FA02F001FA04F340EA03002946B0
:1004900030BD21FA04F0294630BD94F0000F83F4FA
:1004A000801306BF81F480110134013D4EE77FEADD
:1004B000645C18BF7FEA655C29D094EA050F08BF29
:1004C00090EA020F05D054EA000C04BF194610460A
:1004D00030BD91EA030F1EBF0021002030BD5FEA4E
:1004E000545C05D14000494128BF41F0004130BD76
:1004F00014F580043CBF01F5801130BD01F00045CA
:1005000045F0FE4141F470014FF0000030BD7FEA3C
:10051000645C1ABF194610467FEA655C1CBF0B4637
:10052000024650EA013406BF52EA033591EA030F4E
:1005300041F4002130BD00BF90F0000F04BF002146
:10054000704730B54FF4806404F132044FF0000579
:100550004FF0000150E700BF90F0000F04BF0021F2
:10056000704730B54FF4806404F1320410F0004558
:1005700048BF40424FF000013EE700BF42004FEA53
:10058000E2014FEA31014FEA02701FBF12F07F43D0
:1005900093F07F4F81F06051704732F07F4208BF87
:1005A000704793F07F4F04BF41F40021704730B58E
:1005B0004FF4607401F0004521F000411CE700BFDA
:1005C00050EA010208BF704730B54FF000050AE05D
:1005D00050EA010208BF704730B511F0004502D55E
:1005E000404261EB41014FF4806404F132045FEA60
:1005F000915C3FF4D8AE4FF003025FEADC0C18BF09
:1006000003325FEADC0C18BF033202EBDC02C2F1FA
:10061000200300FA03FC20FA02F001FA03FE40EA8C
:100620000E0021FA02F11444BDE600BF70B54FF090
:10063000FF0C4CF4E06C1CEA11541DBF1CEA13556E
:1006400094EA0C0F95EA0C0F00F0DEF82C4481EAD6
:10065000030621EA4C5123EA4C5350EA013518BFF6
:1006600052EA033541F4801143F4801338D0A0FBE3
:1006700002CE4FF00005E1FB02E506F00042E0FB90
:1006800003E54FF00006E1FB03569CF0000F18BF96
:100690004EF0010EA4F1FF04B6F5007F64F540743E
:1006A00004D25FEA4E0E6D4146EB060642EAC621D1
:1006B00041EA55514FEAC52040EA5E504FEACE2E3E
:1006C000B4F1FD0C88BFBCF5E06F1ED8BEF1004F41
:1006D00008BF5FEA500E50F1000041EB045170BDBD
:1006E00006F0004646EA010140EA020081EA030101
:1006F000B4EB5C04C2BFD4EB0C0541EA045170BDFD
:1007000041F480114FF0000E013C00F3AB8014F176
:10071000360FDEBF002001F0004170BDC4F10004BF
:10072000203C35DA0C341BDC04F11404C4F1200540
:1007300000FA05F320FA04F001FA05F240EA02009B
:1007400001F0004221F0004110EBD37021FA04F6D1
:1007500042EB06015EEA430E08BF20EAD37070BD8B
:10076000C4F10C04C4F1200500FA04F320FA05F0EA
:1007700001FA04F240EA020001F0004110EBD370EC
:1007800041F100015EEA430E08BF20EAD37070BD5C
:10079000C4F1200500FA05F24EEA020E20FA04F335
:1007A00001FA05F243EA020321FA04F001F00041E4
:1007B00021FA04F220EA020000EBD3705EEA430E55
:1007C00008BF20EAD37070BD94F0000F0FD101F084
:1007D0000046400041EB010111F4801F08BF013CBD
:1007E000F7D041EA060195F0000F18BF704703F0FB
:1007F0000046520043EB030313F4801F08BF013D82
:10080000F7D043EA0603704794EA0C0F0CEA13553D
:1008100018BF95EA0C0F0CD050EA410618BF52EAF7
:100820004306D1D181EA030101F000414FF00000FD
:1008300070BD50EA410606BF1046194652EA43060B
:1008400019D094EA0C0F02D150EA013613D195EA7F
:100850000C0F05D152EA03361CBF104619460AD1C7
:1008600081EA030101F0004141F0FE4141F47001D1
:100870004FF0000070BD41F0FE4141F4780170BDC1
:1008800070B54FF0FF0C4CF4E06C1CEA11541DBF26
:100890001CEA135594EA0C0F95EA0C0F00F0A7F828
:1008A000A4EB050481EA030E52EA03354FEA013155
:1008B00000F088804FEA03334FF0805545EA131368
:1008C00043EA12634FEA022245EA111545EA106530
:1008D0004FEA00260EF000419D4208BF964244F1C7
:1008E000FD0404F5407402D25B084FEA3202B61AE6
:1008F00065EB03055B084FEA32024FF480104FF4BA
:10090000002CB6EB020E75EB030E22BFB61A75462D
:1009100040EA0C005B084FEA3202B6EB020E75EBC0
:10092000030E22BFB61A754640EA5C005B084FEA28
:100930003202B6EB020E75EB030E22BFB61A7546F5
:1009400040EA9C005B084FEA3202B6EB020E75EB00
:10095000030E22BFB61A754640EADC0055EA060EC1
:1009600018D04FEA051545EA16754FEA06164FEA04
:10097000C30343EA52734FEAC2025FEA1C1CC0D1B0
:1009800011F4801F0BD141EA00014FF000004FF03D
:10099000004CB6E711F4801F04BF01430020B4F1FE
:1009A000FD0C88BFBCF5E06F3FF6AFAEB5EB030CB6
:1009B00004BFB6EB020C5FEA500C50F1000041EBB3
:1009C000045170BD0EF0004E4EEA113114EB5C0480
:1009D000C2BFD4EB0C0541EA045170BD41F4801153
:1009E0004FF0000E013C90E645EA060E8DE60CEA5B
:1009F000135594EA0C0F08BF95EA0C0F3FF43BAF78
:100A000094EA0C0F0AD150EA01347FF434AF95EA2E
:100A10000C0F7FF425AF104619462CE795EA0C0F12
:100A200006D152EA03353FF4FDAE1046194622E7DF
:100A300050EA410618BF52EA43067FF4C5AE50EAB9
:100A400041047FF40DAF52EA43057FF4EBAE12E7A9
:100A50004FF0FF3C06E000BF4FF0010C02E000BF8A
:100A60004FF0010C4DF804CD4FEA410C7FEA6C5C6D
:100A70004FEA430C18BF7FEA6C5C1BD001B050EA10
:100A8000410C0CBF52EA430C91EA030F02BF90EAFB
:100A9000020F0020704710F1000F91EA030F58BFBA
:100AA000994208BF90422CBFD8176FEAE37040F01C
:100AB000010070474FEA410C7FEA6C5C02D150EABA
:100AC000013C07D14FEA430C7FEA6C5CD6D152EA75
:100AD000033CD3D05DF8040B704700BF844610463A
:100AE00062468C461946634600E000BF01B5FFF739
:100AF000B7FF002848BF10F1000F01BD4DF808ED09
:100B0000FFF7F4FF0CBF012000205DF808FB00BFD9
:100B10004DF808EDFFF7EAFF34BF012000205DF833
:100B200008FB00BF4DF808EDFFF7E0FF94BF012080
:100B300000205DF808FB00BF4DF808EDFFF7CEFF81
:100B400094BF012000205DF808FB00BF4DF808EDC0
:100B5000FFF7C4FF34BF012000205DF808FB00BF91
:100B60004FEA410C7FEA6C5C02D150EA013C0AD1A9
:100B70004FEA430C7FEA6C5C02D152EA033C02D19B
:100B80004FF0000070474FF0010070474FEA4102FC
:100B900012F5001215D211D56FF47873B3EB6252CF
:100BA00012D94FEAC12343F0004343EA505311F0F6
:100BB000004F23FA02F018BF404270474FF0000088
:100BC000704750EA013005D111F0004008BF6FF0C6
:100BD000004070474FF00000704700BF4A0011D23C
:100BE00012F5001211D20DD56FF47873B3EB625287
:100BF0000ED44FEAC12343F0004343EA505323FA93
:100C000002F070474FF00000704750EA013002D107
:100C10004FF0FF3070474FF0000070474FEA41023D
:100C2000B2F1E04324BFB3F5001CDCF1FE5C0DD94A
:100C300001F0004C4FEAC0024CEA5070B2F1004F94
:100C400040EB830008BF20F00100704711F0804F97
:100C500021D113F13872BCBF01F00040704741F45C
:100C600080114FEA5252C2F11802C2F1200C10FA60
:100C70000CF320FA02F018BF40F001004FEAC12344
:100C80004FEAD32303FA0CFC40EA0C0023FA02F3E8
:100C90004FEA4303CCE77FEA625307D150EA0133BE
:100CA0001EBF4FF0FE4040F44000704701F000408E
:100CB00040F0FE4040F40000704700BF53B94AB90D
:100CC000002908BF00281CBF4FF0FF314FF0FF3054
:100CD00000F0B0B9ADF1080C6DE904CE00F048F8B1
:100CE000DDF804E0DDE9022304B07047C343984215
:100CF000B8BF184618B1B0FA80F0013870471F200D
:100D0000704700BF38B50022002304460D46FFF7A8
:100D1000FFFE28B920462946BDE8384000F00AB851
:100D2000204605F1004100F005F8404261EB410129
:100D300038BD00BFD0B50C4B002206460F46FFF76A
:100D400075FCFFF74BFF0446FFF7F6FB074B00224D
:100D5000FFF76CFC02460B4630463946FFF7AEFA09
:100D6000FFF73CFF2146D0BD0000F03D0000F04100
:100D70002DE9F047089D04468C46002B40F0838007
:100D80008A42174647D9B2FA82F242B1C2F1200034
:100D900024FA00F09140974040EA010C94404FEA59
:100DA0001748230CBCFBF8F61FFA87FE08FB16C198
:100DB00043EA014306FB0EF1994209D9FB1806F1FB
:100DC000FF3080F01981994240F21681023E3B4487
:100DD0005B1AA4B2B3FBF8F008FB103344EA0344F7
:100DE00000FB0EFEA64509D93C1900F1FF3380F047
:100DF0000581A64540F2028102383C4440EA0640A3
:100E0000A4EB0E0400261DB1D4400023C5E9004325
:100E10003146BDE8F08702B9FFDEB2FA82F2002A5D
:100E200050D1CB1B4FEA174E1FFA87F80126B3FBB0
:100E3000FEFC210C0EFB1C3341EA034108FB0CF3C2
:100E40008B4207D979180CF1FF3002D28B4200F2A5
:100E5000E9808446C91AA3B2B1FBFEF00EFB101163
:100E600043EA014408FB00F8A04507D93C1900F10A
:100E7000FF3302D2A04500F2D9801846A4EB080443
:100E800040EA0C40BFE78B4209D9002D00F0B18049
:100E90000026C5E9000130463146BDE8F087B3FAC7
:100EA00083F6002E4AD18B4202D3824200F2B880F0
:100EB000841A61EB030101208C46002DA8D0C5E9FE
:100EC000004CA5E7C2F1200320FA03F6974001FA8F
:100ED00002F04FEA174ED9403043030CB1FBFEF647
:100EE0001FFA87F80EFB161143EA014306FB08F1CF
:100EF000994204FA02F409D9FB1806F1FF3C80F08C
:100F00008D80994240F28A80023E3B445B1A81B256
:100F1000B3FBFEF00EFB103341EA034100FB08F384
:100F20008B4207D9791800F1FF3C73D28B4271D9FB
:100F300002383944CB1A40EA064678E7C6F1200C5D
:100F400003FA06F422FA0CF31C4320FA0CF701FA18
:100F500006F34FEA144E21FA0CF11F433B0CB1FB90
:100F6000FEF91FFA84F80EFB191143EA014109FB4F
:100F700008FA8A4502FA06F200FA06F308D961185F
:100F800009F1FF3048D28A4546D9A9F10209214426
:100F9000A1EB0A01BFB2B1FBFEF00EFB101147EA54
:100FA000014700FB08F8B84507D9E71900F1FF3100
:100FB0002ED2B8452CD90238274440EA0940A7EB85
:100FC0000807A0FB02894F45C64649461AD317D0E9
:100FD0005DB1B3EB0E0267EB010707FA0CFCF240C0
:100FE0004CEA0202F740C5E9002700263146BDE879
:100FF000F0872E4628460BE70646E9E61846FDE64A
:101000004345E5D2B8EB020E69EB04010138DFE796
:101010000846D2E760468DE78146B9E7664675E740
:1010200030464AE7ACF1020C394413E702383C443D
:1010300024E700BF704700BFF02070474FF4A07056
:101040007047292000F06EBA282000F06BBA08B56E
:1010500000F0EEF9CA2000F065FAC32000F046FA6D
:10106000082000F043FA502000F040FACF2000F0B2
:1010700059FA002000F03AFAC12000F037FA302087
:1010800000F034FAED2000F04DFA642000F02EFA62
:10109000032000F02BFA122000F028FA812000F043
:1010A00025FAE82000F03EFA852000F01FFA002023
:1010B00000F01CFA782000F019FACB2000F032FA88
:1010C000392000F013FA2C2000F010FA002000F074
:1010D0000DFA342000F00AFA022000F007FAF72097
:1010E00000F020FA202000F001FAEA2000F01AFABD
:1010F000002000F0FBF9002000F0F8F9B12000F02A
:1011000011FA002000F0F2F91B2000F0EFF9B620F0
:1011100000F008FA0A2000F0E9F9A22000F0E6F950
:10112000C02000F0FFF9102000F0E0F9C12000F02D
:10113000F9F9102000F0DAF9C52000F0F3F94520A4
:1011400000F0D4F9152000F0D1F9C72000F0EAF939
:10115000902000F0CBF9362000F0E4F9C82000F030
:10116000C5F9F22000F0DEF9002000F0BFF9B02050
:1011700000F0D8F9C22000F0B9F9B62000F0D2F999
:101180000A2000F0B3F9A72000F0B0F9272000F002
:10119000ADF9042000F0AAF92A2000F0C3F90020DC
:1011A00000F0A4F9002000F0A1F9002000F09EF961
:1011B000EF2000F09BF92B2000F0B4F9002000F0A4
:1011C00095F9002000F092F9012000F08FF93F20FE
:1011D00000F08CF9F62000F0A5F9012000F086F966
:1011E000002000F083F9062000F080F92C2000F0A8
:1011F00099F9C82000F0E8F9262000F093F90120C1
:1012000000F074F9E02000F08DF90F2000F06EF985
:10121000292000F06BF9242000F068F90C2000F080
:1012200065F90E2000F062F9092000F05FF94E2008
:1012300000F05CF9782000F059F93C2000F056F9F4
:10124000092000F053F9132000F050F9052000F0B8
:101250004DF9172000F04AF9112000F047F900205D
:1012600000F044F9E12000F05DF9002000F03EF9C3
:10127000162000F03BF91B2000F038F9042000F0A4
:1012800035F9112000F032F9072000F02FF9312054
:1012900000F02CF9332000F029F9422000F026F963
:1012A000052000F023F90C2000F020F90A2000F0BE
:1012B0001DF9282000F01AF92F2000F017F90F204F
:1012C00000F014F9112000F02DF9C82000F07CF98D
:1012D000292000F027F9BDE808402C2000F022B9B1
:1012E00008B500F0A5F80321D32000F037F980B24B
:1012F00008BD000010B5214C88B0204602F0A0FBCC
:10130000002838D11E4B23601823E3610723E362D2
:101310004FF40073C4E90400A3614FF48273636067
:10132000184B0190A060A062E060206260625A6C7D
:1013300042F480125A645A6C02F480120192019AAB
:1013400002901A6B42F020021A631B6B03F0200319
:101350000293029B4FF460710223CDE903130593BE
:1013600001200523CDE9060303A9074801F00CF885
:10137000204602F0BBF808B010BD00BFA802002054
:1013800000500140003802400014024007B5094BEC
:10139000ADF806001B68084801220DF1060102F0B5
:1013A00017F920B1044802F0FDF8FFF7A3FF03B0DE
:1013B0005DF804FB38000020A802002010B586B0BC
:1013C00050B9194B00901A6B42F001021A631B6B63
:1013D00003F001030093009B71B90123CDE90131B2
:1013E0000223CDE90333114B03EB800001A9C06850
:1013F00000F0CAFF06B010BD0129FBD100244FF454
:101400008813CDE90234094B019103EB800001A957
:10141000C06800F0B9FF22460F21062000F056FDFB
:10142000062000F085FDE5E7003802403800002086
:10143000F0B52A4B93F8585089B0002D4BD1284C69
:101440000095012683F85860236B264843F0080373
:101450002363236B059503F0080300930227009B89
:1014600006974FF4005303A9CDE9033600F08CFF33
:101470000195236B1B4843F008032363236B03F0A0
:1014800008030193019B03A94FF48053CDE9033670
:10149000CDE9055700F078FF0295236B124843F021
:1014A00004032363236B03F004030424029303A9BE
:1014B000029BCDE90346CDE9055700F065FF0A48D8
:1014C0002A46214601F0E8F807483246214601F055
:1014D000E3F8FFF70FFF09B0F0BD00BFA80200203E
:1014E00000380240000C02400008024038B50B4DA5
:1014F000044601220A484FF4005101F0CDF80022C1
:101500000421284601F0C8F82046FFF73FFF28468F
:101510000122BDE83840042101F0BEB800080240B5
:10152000000C024038B50B4D044600220A484FF427
:10153000005101F0B1F800220421284601F0ACF876
:101540002046FFF723FF28460122BDE8384004214A
:1015500001F0A2B800080240000C024037B5054671
:101560000C4615480022042101F096F800224FF4A1
:101570000051124801F090F82846FFF707FF104B82
:1015800010481B68224601A902F0BEF920B10D489F
:1015900002F008F8FFF7AEFE0848019C01224FF464
:1015A000005101F079F804480122042101F074F897
:1015B000204603B030BD00BF00080240000C0240CE
:1015C00038000020A802002000F05ABC2DE9F743A3
:1015D000154CDDF82C9016461F464FF44032002380
:1015E000C4E901230A9BE3608046104B2360204638
:1015F0000D4600F0BDFD98B94146204600F080FE42
:1016000070B9009733462A464946204600F0DCFD73
:1016100030B90A21204603B0BDE8F04300F0EEBD2A
:1016200003B0BDE8F08300BF0403002000B0024017
:1016300008B5024B1B689B6A984708BDB418002088
:1016400008B5024B1B68DB6A984708BDB418002038
:1016500070B58EB000250E4604460195FFF7E8FFF1
:10166000CDE90205FFF7ECFFFF23CDE906354FF486
:10167000C0620723CDE90823CDE90405ADF8345055
:101680008DF836500A96FFF7D3FF0B90FFF7D8FF7F
:101690000B4D0C90224601A9284601F0DBF90948C0
:1016A0000C2202FB04004FF0FF334364064B8364BB
:1016B0004FF07F430364284601F02EFA0EB070BD50
:1016C0000C180020040300204C000020014B9865FA
:1016D000704700BF04030020084B1A68C00102F1E4
:1016E00084030129C1580CBF41F0010121F001011F
:1016F000C150536A43F00103536270470C18002035
:1017000038B5064D04460246284601F0D0F9214678
:101710002846BDE8384001F0E7B900BF0C180020AA
:10172000034A936D0C2101FB03231864704700BF2B
:1017300004030020034A936D0C2101FB032358642A
:10174000704700BF04030020034A936D0C2101FB86
:1017500003239864704700BF0403002030B50D4B8D
:101760000D4A9D6D342303FB052385B0D96D03918C
:101770000446FFF75DFF0290FFF762FF034600207B
:101780000090DDE9022101942846FFF71FFF05B014
:1017900030BD00BF040300200C1800202DE9FF47D6
:1017A000124D039316460C46AA6D1149814634200A
:1017B00000FB0212D2F85C80FFF73AFFAF6D824661
:1017C000FFF736FFAA6D039B0C2101FB0255801B1E
:1017D0002A6C01920AFB04940090324608EB8401C3
:1017E0003846FFF7F3FE04B0BDE8F087040300209D
:1017F0000C180020024B1B689B6803B11847704708
:10180000B418002030B58FB0494B4A4D4A484B4C74
:1018100000220192596C41F080615964596C01F0C9
:101820008061019101990292196B41F400011963E1
:10183000196B01F40001029102990392196B41F0B6
:1018400001011963196B01F00101039103990492DD
:10185000196B41F002011963196B01F00201049147
:1018600004990592196B41F004011963196B01F099
:101870000401059105990692196B41F0080119635D
:10188000196B01F00801069106990792196B41F056
:1018900020011963196B01F0200107910799089243
:1018A000196B41F0400119631B6B03F0400308936F
:1018B000089B41F658010223CDE90B23CDE909131A
:1018C0000E2309A90D9300F05FFD4FF4706309A981
:1018D0002846099300F058FD4FF4986309A9184869
:1018E000099300F051FD482309A91648099300F017
:1018F0004BFD4FF4806309A91348099300F044FDA0
:101900004FF40C6309A92046099300F03DFD032321
:10191000099309A9092328460D9300F035FD4FF4DA
:10192000A05309A92046099300F02EFD0FB030BD49
:10193000003802400004024000000240001802404B
:1019400000080240000C02400014024070B5214C17
:10195000214B236009210123C4E905131D20032322
:10196000C4E9070340F20D1540F24313C4E90953DB
:1019700040F2171640F24713C4E90B63174E0823D1
:10198000F365C023F36604230025736706F15C004A
:101990004FF40033C6F88030A58684F8365001F045
:1019A00087FBC4E90155C4E90355FFF72BFF204627
:1019B00000F0E4FF0A4A0B4B13601B68984700F0E5
:1019C000F5F9B36D0C2202FB0366074BB36428469E
:1019D00070BD00BF0C180020006801400403002007
:1019E000B4180020000000204C000020F8B5084B7F
:1019F00015469B6D074A0C46342101FB032306461E
:101A0000DF6DFFF715FE00FB046047F82050F8BDBE
:101A1000040300200C1800202DE9F04F2F4F87B051
:101A2000BB6DCDE901010C2101FB0373A2F120057F
:101A3000996CB1F804B0B1F806A00A680BF107067A
:101A4000F610CBEBC600C3B200930AFB05F50BF111
:101A5000FF3306FB05254FF000090493029BD14597
:101A600003EB090189B202D307B0BDE8F08F012E64
:101A70002C7804D0022E0ED12C8864BAA4B2049B18
:101A8000009A13444FF000080393C3450AD809F1A4
:101A900001093544E2E76A78240444EA0224AA787A
:101AA0001443ECE7019BBA6D059103EB0800039B1F
:101AB0004FF0010CA3EB080E0CFA0EFC1CEA040F0D
:101AC0004FF00C0C0CFB027280B214BF126C526C03
:101AD000FFF78CFF08F101080599D6E70403002001
:101AE0002DE9F047994606468846154613461C469A
:101AF00013F8012B002AFAD1234FFFF799FDBB6D94
:101B00000C2202FB0373B9F1010F9B6C9A88B0FBA6
:101B1000F2F01BD0B9F1020F1FD0013D4FF00009C8
:101B20004FF00C0A15F8014F003C18BF0124FFF7D5
:101B30007FFDBB6D0AFB03739B6C9B8803FB190045
:101B400080B2984200D36CB9BDE8F0872C1B2044CA
:101B5000504306EB500086B2DFE72C1B044414FB15
:101B60000260F8E730462A784146FFF755FFBB6D23
:101B70000AFB037309F101099B6C9888304486B213
:101B80001FFA89F9CEE700BF040300202DE9F347CF
:101B9000214C04F1100501264FF0000808272146CA
:101BA00081464FF6FF722846C4E90067C4E902681F
:101BB000CDF8048001F0C6FB304600F061F9022345
:101BC00021464FF6FF722846C4E900374FF0040A59
:101BD000C4E9026801F0B6FB032321464FF6FF7209
:101BE0002846C4E90037C4E902A801F0ABFB4FF472
:101BF0000C730193019BA66021464FF6FF722846A5
:101C0000C4E900A7E36001F09DFB4946284602B005
:101C1000BDE8F04701F0ADBB9003002070B506466B
:101C20008EB0002800F0AD80574B58480024019436
:101C30009A6B42F001029A639A6B02F001020192E0
:101C4000019A02941A6B42F480021A631A6B02F42E
:101C500080020292029A03941A6B42F002021A6303
:101C60001A6B02F002020392039A04941A6B42F078
:101C700004021A631A6B02F004020492049A059497
:101C80001A6B42F008021A631A6B02F008020592FE
:101C9000059A06941A6B42F010021A631A6B02F04E
:101CA00010020692069A07941A6B42F020021A63F9
:101CB0001A6B02F020020792079A08941A6B42F0FE
:101CC00040021A631B6B03F040030893089B022336
:101CD000CDE90B430A930C230D9309A960230993C3
:101CE00000F052FB01232A48099309A900F04CFB9C
:101CF0004CF203732748099309A900F045FB4FF6FE
:101D000083732548099309A900F03EFB4FF63F0372
:101D10002248099309A900F037FB48F23313204801
:101D2000099309A900F030FB1E4B80214FF400728B
:101D3000C3E913124FF480604FF48052C3E91502D7
:101D40004FF48042C3E917244FF400321D46C3E923
:101D500019240322C3E91B24134A45F8442F5C6766
:101D6000284635639C64DE6700F096F9284600F04B
:101D700013F9382022460F2100F0A8F8382000F08F
:101D8000D7F80EB070BD00BF00380240000402401A
:101D900000080240000C0240001002400014024003
:101DA00000180240900300201064024010B51B4C44
:101DB0001B4B2361042202230721C4E92B21C4E920
:101DC0002931C4E92D330021C4F8BC300123C4E912
:101DD000053110204023C4E908034FF4C073C4E95F
:101DE0000A314FF40063C4E90C3104F110004FF4E0
:101DF0000053E261A363FFF711FF04F1A401A1F115
:101E0000940001F07FFA074C003818BF01202070C1
:101E100040F26A50FFF7BAFE207810BD9003002010
:101E2000400100A07400002008B50B4B1A6842F472
:101E300000721A601A6842F480621A601A6842F4EA
:101E400080721A60032000F02FF8002047F03EF95E
:101E500047F020F9002008BD003C0240034A044B33
:101E600011681B780B441360704700BFB81800203E
:101E700078000020014B1868704700BFB818002098
:101E800038B50446FFF7F6FF631C1CBF054B1B78F3
:101E9000054618BFE418FFF7EDFF431BA342FAD332
:101EA00038BD00BF780000200749CA6822F4E0620C
:101EB0000302120403F4E063120C134343F0BF6304
:101EC00043F40033CB60704700ED00E0164B30B5B3
:101ED000DC68C4F30224C4F10705231D042D28BFC8
:101EE0000425062B4FF0FF338CBF033C002403FA7C
:101EF00005F521EA0501A34022EA0302A1400028DA
:101F000041EA0203ACBF00F16040084A4FEA031304
:101F1000B8BF00F00F00DBB2AABF00F56140135458
:101F200080F8003330BD00BF00ED00E014ED00E0AC
:101F3000002808DB0123420900F01F0003FA00F02B
:101F4000014B43F82200704700E100E010B5044661
:101F500050B1437903F0FF0213B9027146F08EFBD2
:101F600001236371002010BD0120FCE7036810B558
:101F7000084C0246D9B210391820B1FBF0F0205CB1
:101F8000D06523F47F7020F003005F2988BF043000
:101F9000906510BDDC3E050870B50446FFF76AFF8A
:101FA0000546002C73D0022384F8353022680023C4
:101FB00084F83430136823F00103136021680B6840
:101FC000D8072FD40B68334DA0691D40D4E90123F5
:101FD0001343E26813432269134362691343E269BE
:101FE00003431343226A1343626A042A43EA050344
:101FF00002BFD4E90B5635432B430B604B69042ACF
:1020000023F0070343EA020333D1A26AE56A1343CC
:102010007DB390B9012A21D032F0020229D1EA0120
:1020200027D51EE0FFF726FF401B0528C6D9202331
:102030006365032084F8350070BDB0F5005F14D1EE
:10204000032A16D801A050F822F000BF6320000830
:102050001F200008632000085D200008B5F1C07F44
:1020600007D1402363650120E4E7022AF9D9032A56
:10207000D5D04B612046FFF779FFE26D3F239340B7
:10208000836000200123606584F83530D4E70120A7
:10209000D2E700BF3F8010F038B5054620B390F876
:1020A0003530022BDCB21DD003681A6822F0010221
:1020B00000241A6021221C605C609C60DC601C6152
:1020C0005A61FFF753FFEA6D3F239340C5E90F4480
:1020D000C5E91144C5E9134483606C6585F8344053
:1020E00085F83540204638BD0124FBE770B504680B
:1020F000049D666C45EA034306F04046334363643F
:102100004368E263B3F5403F30D186681EB1012ECB
:1021100003D121F07F41A16370BD022E01F47F0342
:1021200001F47F45C8B207D1DB0CAD0ADB0243EAFC
:10213000451343EAD001EEE7032E01F07F420AD1B6
:10214000DB0CED0A9B0243EA451343EAD003D10FAF
:1021500043EAC131DFE7190D2D0B090241EA0511F0
:1021600041EA1011130F41EA0331D4E7E160D3E7EC
:1021700010B5044630B390F8393003F0FF021BB9B4
:1021800080F8382046F0C0FA22686168022384F89B
:102190003930136823F440330B431360536BA16849
:1021A00023F007030B435363136CE16823F47F535D
:1021B00023F03F030B43136400200123E06384F802
:1021C000393010BD0120FCE773B590F83850012D6F
:1021D00004464FF002050FD080F839500126069DC5
:1021E00080F838600095FFF781FF22681368334359
:1021F0001360002002B070BD2846FBE773B50023D2
:10220000019303681B68DB0704460D4617D4226858
:10221000D369526A13439E0606D5FFF72BFE064686
:1022200023685A68D20643D5236812229A60002098
:10223000012384F8393084F8380002B070BDFFF70C
:1022400019FE064623685A689207E0D45A6801923C
:10225000019A12F0210F17D0019A950642BFE26B46
:1022600042F00202E263019AD00742BFE26B42F001
:102270000102E26321229A60042384F839300023AA
:1022800084F838300120D8E7691CDCD0FFF7F2FD74
:10229000801BA84201D8002DD4D1E36B43F020036A
:1022A000E3630320002384F8390084F83830C4E75E
:1022B0005A680192019A12F0290F16D0019A160756
:1022C00042BFE26B42F00402E263019A950642BF0C
:1022D000E26B42F00202E263019AD00742BFE26B76
:1022E00042F00102E2632922C5E7691C99D0FFF799
:1022F000C1FD801BA842D0D8002D91D1CDE70000B0
:10230000F0B590F83830012B4FF002032BD00122AA
:1023100080F8393080F8382000EB0113D3E9074208
:102320005D6A184F44EA0242093C012C9CBF05F04B
:102330007F431A434FEA0116036888BF42EA0562E9
:1023400099B9596A39400A435A62012C82699A61E3
:1023500003D8426A22F07F429A62012380F8393022
:10236000002380F838301846F0BDD96939400A4357
:10237000DA618219012C92691A619CBF25F07F45B0
:102380001D62EAE7F0FFFC002DE9F74FDFF8C0918E
:102390006D4A00230D6801249C4004EA050CAC43FF
:1023A00040F0B9804D6805F003044FEA4308032666
:1023B000671E06FA08F6012F6FEA060634D887680A
:1023C00007EA060ECF6807FA08F747EA0E078760A4
:1023D000476827EA0C0EC5F300179F4047EA0E072F
:1023E0004760C76807EA060E8F6807FA08F747EAEA
:1023F0000E07022CC76019D14FEAD30A00EB8A0AF4
:1024000003F0070BDAF820704FEA8B0B4FF00F0E3A
:102410000EFA0BFE27EA0E0E0F6907FA0BF747EAD2
:102420000E07CAF8207001E0032CDAD1076804FA1D
:1024300008F43E40264315F4403F06606BD04FF051
:10244000000ACDF804A0D9F84460404C46F4804618
:10245000C9F84460D9F8446006F480460196019EAC
:1024600023F0030606F1804606F59C3603F0030EC2
:10247000D6F808804FEA8E0E0F2707FA0EF7A04213
:1024800028EA07074ED004F58064A0424CD004F53A
:102490008064A0424AD004F58064A04248D004F58C
:1024A0008064A04246D004F58064A04244D004F584
:1024B0008064A04242D004F58064A04240D004F57C
:1024C0008064A0423ED004F58064A0420CBF092481
:1024D0000A2404FA0EF43C43B46014686FEA0C0654
:1024E000EF0354BF34404CEA040414605468AF0353
:1024F00054BF34404CEA040454609468EF0254BF63
:1025000034404CEA04049460D468AD0254BF3440B3
:102510004CEA0404D4600133102B7FF43BAF03B0CA
:10252000BDE8F08F5446D4E70124D2E70224D0E777
:102530000324CEE70424CCE70524CAE70624C8E731
:102540000724C6E70824C4E7003C0140000002401D
:10255000003802402DE9F04F4A4CDFF83091DFF8A7
:1025600030A1DFF830B10022012303FA02FE3EEA77
:1025700001030EEA01076ED122F0030505F1804543
:1025800005F59C35404BD5F8088002F0030C4FEA66
:102590008C0C0F2606FA0CF6984206EA08085FD063
:1025A00003F5806398425DD003F5806398425BD069
:1025B00003F58063984259D003F58063984257D061
:1025C000484557D0504557D0584557D003F580530C
:1025D000984255D003F5806398420CBF09230A2323
:1025E00003FA0CF3434513D1236823EA070323605E
:1025F000636823EA07036360A36823EA0703A36011
:10260000E36823EA0707E760AB6823EA0606AE60E3
:1026100005680326530006FA03F325EA030505605F
:1026200022FA06F500EB850502F0070C2E6A4FEA48
:102630008C0C0F2707FA0CF726EA07072F62C568EC
:1026400025EA0305C560456825EA0E0545608568ED
:1026500025EA030383600132102A85D1BDE8F08F9B
:102660000023BDE70123BBE70223B9E70323B7E754
:102670000423B5E70523B3E70623B1E70723AFE754
:102680000823ADE7003C0140000002400014024076
:1026900000180240001C02400AB181617047090421
:1026A000FBE7000070B5044608B9012070BD90F842
:1026B0003D3003F0FF021BB980F83C2046F0ECF9F6
:1026C000242384F83D3023681A6822F001021A603E
:1026D0001A6842F400421A601A6822F400421A6032
:1026E00000F0A8FC3F4A6368934294BF3E4A3F4AC9
:1026F00090428CBF00220122002AD6D121683C4E94
:102700004A68B0FBF6F622F03F0232434A60354A8F
:102710000D6A934284BF4FF49672724325F03F05D1
:1027200091BF721C4FF47A76B2FBF6F201322A4363
:102730000A62CD69421E2B4825F44F45834225F09D
:10274000FF0532D85B00B2FBF3F340F6FC720133B5
:10275000134242D0C3F30B032B43CB61D4E90730C0
:102760000A68034322F0C00213430B608A68D4E96D
:10277000030322F40342034322F0FF0213438B605E
:10278000D4E90530CA68034322F0FF021343CB604B
:102790000B6843F001030B6000202023206484F8C1
:1027A0003D30206384F83E0080E7A06850B903EB19
:1027B0004303B2FBF3F30133C3F30B037BB143F4E5
:1027C0000043C9E719204343B2FBF3F30133C3F3DA
:1027D0000B0323B143F44043BEE70423BCE70123CA
:1027E000BAE700BFA08601007F841E00FF083D00FD
:1027F00040420F0010B590F83D30202BDCB216D1CE
:10280000242380F83D3003681A6822F001021A6020
:102810005A6A22F010025A625A6A114359621A68BF
:1028200042F001021A6080F83D40002010BD0220F5
:10283000FCE730B590F83D30202BDCB216D10268B1
:10284000242380F83D30136823F001031360556A98
:102850004FF6F0732B40194389B25162136843F06D
:102860000103136080F83D40002030BD0220FCE7EA
:102870002DE9F043D20104684F68E568D1F800C043
:10288000D1F818908432A3180CF10106586800F4AE
:1028900070405860E068C5F30B45C0F30B4030440E
:1028A0003D4440EA05405860E068CD68C0F30A0046
:1028B0000544986800F470409860E6688868C6F33C
:1028C0000A060130304440EA0540986018690E69F4
:1028D00020F0070018614FF0000E1E619D6991F80D
:1028E000320091F83180C3F818E091F8305045EA91
:1028F000096545EA082545EA00459D61586920F0CB
:10290000FF00586148695861D86920F4E06020F000
:102910000700D861D1E907500543DD61986A486A2C
:10292000C3F828E098621EB3012E23D0B01E0228FF
:1029300022D9072E0CBF02200120DD6A05F0E02518
:10294000DD628D6AC96AA7EB0C0745437843033003
:1029500040EA0540D862186B20F4FF6020F00700C1
:1029600018631963A35843F00103A350BDE8F08333
:102970000420E2E70320E0E70220DEE738B5044662
:10298000002863D090F8A13003F0FF021BB980F853
:10299000A02046F029F9022384F8A13023689A691F
:1029A00022F070429A61D4E901200243E0689969FB
:1029B0000243206902430A439A619A682449606984
:1029C0000A409A609A6842EA0042A06902439A600B
:1029D000DA68E0690A40DA60DA6842EA0042206AAE
:1029E0000243DA601A69606A0A401A611A6942EAA7
:1029F0000042A06A02431A615A69114059615A693A
:102A0000E16A42EA0142216B0A435A61D96A94F8A9
:102A1000360094F8355001F07F41D962D96A94F8B4
:102A200034200A4342EA052242EA0042DA625A6B43
:102A300042F006025A639A6942F001029A6100204C
:102A40000123C4F8A40084F8A13038BD0120FCE7BC
:102A500000F800F02DE9F04190F8A030012B064677
:102A60000F4694464FF002001FD04FF0010886F841
:102A7000A08086F8A10034240D4604FB02640FCD2B
:102A800038340FC40FCD0FC40FCD0FC42B68236093
:102A9000304662463946FFF7EBFE33680020C3F844
:102AA000248086F8A18086F8A000BDE8F08110B5EA
:102AB00090F8A030012B4FF0020313D0046880F887
:102AC000A13004EBC212D2F8903003F07F43C2F879
:102AD00090300123C2F89010636280F8A130002387
:102AE00080F8A030184610BD90F8A030012B4FF0B0
:102AF00002030FD0C90180F8A130843103685A580D
:102B000042F002025A5001225A62002380F8A120AA
:102B100080F8A0301846704790F8A030012B4FF095
:102B200002030CD0074A80F8A130936943F4803344
:102B30009361012380F8A130002380F8A03018466B
:102B4000704700BF006801402DE9F341044640B3DF
:102B50000368DD0710D4236898075ED423681A073A
:102B600000F1A08023685B0700F1BE80A069002807
:102B700040F01F8100202BE0A64B9A6802F00C0267
:102B8000042A07D09A6802F00C02082A0BD15A686E
:102B9000510208D59F4B1B689A03DCD56368002B54
:102BA000D9D1012014E06268B2F5803F13D11A68D0
:102BB00042F480321A60FFF75DF9964E054633689D
:102BC0009B03C8D4FFF756F9401B6428F7D90320AC
:102BD00002B0BDE8F0818F4DB2F5A02F2B6807D170
:102BE00043F480232B602B6843F480332B60E2E7AF
:102BF00023F480332B602B6823F480232B60002A7E
:102C0000D9D1FFF737F906462B689F03A3D5FFF705
:102C100031F9801B6428F7D9D9E77E4B9A6812F006
:102C20000C0F07D09A6802F00C02082A11D15B68D9
:102C30005E020ED4774B1A68950702D5E268012A26
:102C4000AFD11A68216922F0F80242EAC1021A6083
:102C500084E7E268704BB2B101221A60FFF70AF90B
:102C60006C4D06462B68980707D52B68226923F020
:102C7000F80343EAC2032B6070E7FFF7FBF8801B01
:102C80000228EFD9A3E71A60FFF7F4F8614E054672
:102C9000336899077FF562AFFFF7ECF8401B022815
:102CA000F6D994E762695D4B7AB101221A60FFF7A9
:102CB000E1F8584E0546736F9F073FF553AFFFF796
:102CC000D9F8401B0228F6D981E71A60FFF7D2F83D
:102CD000504E0546736F98077FF544AFFFF7CAF86B
:102CE000401B0228F6D972E74A4B1A6C12F0805248
:102CF00028D101921A6C42F080521A641B6C03F0C6
:102D000080530193019B0127454D2B68D9051BD5A5
:102D1000A368404D012B27D12B6F43F001032B6794
:102D2000FFF7A8F83B4E054641F28838336F9B0702
:102D300039D5002F3FF41AAF364A136C23F0805375
:102D4000136413E70027DFE72B6843F480732B60DD
:102D5000FFF790F806462B68DA05D9D4FFF78AF812
:102D6000801B0228F7D932E7052B04D12B6F43F0E3
:102D700004032B67D0E72A6F22F001022A672A6F2B
:102D800022F004022A67002BCAD1FFF773F841F240
:102D9000883806462B6F9807CBD5FFF76BF8801B5A
:102DA0004045F7D913E7FFF765F8401B4045BDD90B
:102DB0000DE7184DAB6803F00C03082B47D0194EF4
:102DC00000230228336035D1FFF754F807462B68FB
:102DD000990129D4D4E907321343626A43EA821382
:102DE000E26A43EA0263A26A5208013A43EA0243F2
:102DF0006B6001233360FFF73DF8064D04462B68F6
:102E00009A013FF5B7AEFFF735F8001B0228F6D957
:102E1000DDE600BF0038024000004742800E474216
:102E20000070004060004742FFF724F8C01B0228F2
:102E3000CDD9CCE6FFF71EF804462B689B017FF541
:102E400099AEFFF717F8001B0228F6D9BFE6012854
:102E50003FF4BEAE6B68E26903F4800191427FF4F7
:102E6000A0AE216A03F03F028A427FF49AAE616A03
:102E700047F6C0721A40B2EB811F7FF492AEA26A8D
:102E8000520803F44031013AB1EB024F7FF489AEAE
:102E9000E26A03F07063B3EB026F3FF46BAE80E65F
:102EA000134908B58B6803F00C03042B1CD0082BC6
:102EB0001CD14A684B68496813F4800314BF0D485D
:102EC0000D48C1F3881118BF002302F03F02A1FB97
:102ED0000001FDF7F3FE064B5B68C3F301430133CA
:102EE0005B00B0FBF3F008BD0248FCE70248FAE7DC
:102EF0000038024000127A000024F4002DE9F0416D
:102F00000D46044610B90120BDE8F081444B1A6813
:102F100002F00F028A4228D3226897072DD4D007E7
:102F200041D43F4B1A6802F00F02AA4266D82268C9
:102F300051076CD4130707D53A4A2169936823F4E3
:102F4000604343EAC1039360FFF7AAFF354B364A5B
:102F50009B68C3F30313D35CD840344B1860344BE5
:102F6000186846F0B3F80020CEE7CAB21A701B68A2
:102F700003F00F038B42C6D1CEE72A4B12F0040FA9
:102F80001EBF996841F4E0519960160742BF9968E5
:102F900041F4604199602349A0688B6823F0F003F5
:102FA00003438B60BBE762681E4B012A1CD11B6880
:102FB00013F4003FA7D01B4EB36823F00303134361
:102FC000B360FEF757FF41F288380746B36862687E
:102FD00003F00C03B3EB820FA3D0FEF74BFFC01B33
:102FE0004045F3D903208FE7911E01291B6802D8C1
:102FF00013F0007FDEE713F0020FDBE7EAB21A708E
:103000001B6803F00F03AB427FF47DAF8FE70549E8
:10301000E0688B6823F4E05303438B608AE700BFCA
:10302000003C02400038024084BA0708A00000209B
:103030007C000020044B054A9B68C3F38223D35CC9
:10304000034A1068D84070470038024094BA070815
:10305000A0000020044B054A9B68C3F34233D35CB5
:10306000034A1068D84070470038024094BA0708F5
:10307000A00000200F2303600B4B9A6802F00302AC
:1030800042609A6802F0F00282609A6802F4E052AC
:10309000C2609B68DB0803F4E0530361034B1B68C9
:1030A00003F00F030B60704700380240003C024001
:1030B000036813F0430FF7B5044640F08A80236895
:1030C00013F00C0F44D0894D894E00232B60FEF77E
:1030D000D1FE074633689B0000F1CC8021684F0782
:1030E00015D5D4E90403D6F888201B0602F0E04287
:1030F00043EA80131343C6F88830D6F88C30226A2E
:1031000023F4F853013A43EA0223C6F88C300E0741
:1031100014D5774AA369D2F8881020691B0701F0FB
:10312000706143EA80130B43C2F88830D2F88C30C8
:10313000616A23F440330B43C2F88C3001232B60C7
:10314000FEF798FE6A4E05463368980040F1998074
:1031500023689A0633D500230193654B654D1A6C9D
:1031600042F080521A641B6C03F080530193019B60
:103170002B6843F480732B60FEF77CFE06462B68B9
:10318000D90540F185805A4D2B6F13F4407340F000
:103190008680A36A03F44072B2F5407F544A40F03F
:1031A000A080916823F0704021F4F81120F4407061
:1031B00001439160116FC3F30B030B431367206846
:1031C00010F010001FBF4C4B94F82C201A60002008
:1031D0004EE04A4D464F00232B60FEF74BFE06465D
:1031E0003B681A013ED42168CB0741BFD4E90123D3
:1031F0001B0743EA8213C7F884308E0715D53C4A73
:10320000E368D2F8840066681B0600F0E04043EAF9
:1032100086130343C2F88430D2F88C00E36920F0AF
:103220001F00013B0343C2F88C3048060AD5E3680F
:1032300062681B0643EA8213A26843EA02732C4ABF
:10324000C2F8843001232B60FEF714FE284E054699
:10325000336819013FF533AFFEF70CFE401B02281F
:10326000F6D904E0FEF706FE801B0228B8D9032039
:1032700003B0F0BDFEF7FEFDC01B02287FF62AAFAB
:10328000F5E7FEF7F7FD401B02287FF65DAFEEE79E
:10329000FEF7F0FD801B02287FF671AFE7E7A26A18
:1032A00002F4407293423FF474AF2B6F144A012131
:1032B000116023F44073002111602B672B6FDA0734
:1032C0007FF567AFFEF7D6FD41F2883706462B6FD4
:1032D0009B073FF55EAFFEF7CDFD801BB842F6D9E8
:1032E000C5E7916821F4F81163E700BF7000474219
:1032F0000038024000700040E01147426800474239
:10330000400E474238B50D460446C8B190F82C30FF
:1033100003F0FF021BB980F82D2045F03FFA02238D
:1033200084F82C30211D206800F072FE626820684D
:10333000294600F0A3FE012384F82C30002038BD7C
:103340000120FCE738B590F82C30022B04460D46DE
:10335000D8B20DD0022384F82C30206800F0CAFEC9
:103360002B68022B0CBF0523012384F82C3000208E
:1033700038BD10B590F82C30022B0446D8B209D0D5
:10338000022384F82C30206800F0DBFE012384F84F
:103390002C30002010BD00002DE9F3411D461746DA
:1033A00088460646FEF766FD3D442C1AFEF762FD90
:1033B000224B1B68C3F3CB3305466343326801934A
:1033C000936838EA030301D000202DE07B1CF7D07E
:1033D000FEF750FD401BA04229D333685A6822F003
:1033E000E0025A607268B2F5827F0AD1B268B2F523
:1033F000004F02D0B2F5806F03D11A6822F040026C
:103400001A60B26AB2F5005F07D11A6822F400525E
:103410001A601A6842F400521A60012386F851308B
:10342000002386F85030032002B0BDE8F081019BF4
:10343000002B019B08BF0024013BBFE7A000002038
:1034400038B513464268B2F5827F04461FD18268C0
:10345000B2F5004F02D0B2F5806F07D12568286819
:10346000B2F5806F20F04000286007D00A46802126
:103470002046FFF791FF20B9002038BD0A46012100
:10348000F6E7636D43F0200363650320F5E70A4622
:103490000121EEE737B51346124A134D1268B2FB0D
:1034A000F5F54FF47A726A4301924268B2F5827F71
:1034B00004460BD10A468021FFF76EFF78B1636D99
:1034C00043F020036365032003B030BD019B33B19B
:1034D000019B013B019323689B681B06F6D40020E7
:1034E000F2E700BFA000002000366E0110B50446D0
:1034F000002855D0436A002B4ED14268B2F5827F36
:1035000000D0C3610023A36294F8513003F0FF029E
:1035100023B984F85020204645F070FD2168A0684A
:10352000A269022384F851300B6823F040030B603A
:10353000636800F4044003F482730343E06800F41A
:1035400000600343206900F002000343606900F05B
:103550000100034302F400700343E06900F0380007
:103560000343206A00F080000343A06A00F4005087
:1035700003430B60636A120C03F0100302F00402B1
:103580001A434A60CB6923F40063CB610020012316
:10359000606584F8513010BD0023C0E90433B1E701
:1035A0000120F8E710B5044680B10268022380F8D4
:1035B0005130136823F04003136045F055FD00209F
:1035C000606584F8500084F8510010BD0120FCE7CC
:1035D0002DE9F7431F4690F85030012B04460D4665
:1035E000904600F0A080012380F85030FEF742FCA6
:1035F00094F85130012B8146D8B240F09280002DD2
:1036000061D0B8F1000F5ED0032384F8513000235D
:103610006365C4E91033A4F83680A363A387E38706
:10362000A36826682563B3F5004FA4F8348007D15A
:10363000336823F040033360336843F480433360DE
:103640003368E2685B065EBF336843F04003336073
:10365000B2F5006F63683FD113B1B8F1010F07D124
:1036600035F8023BF3602563E38E013B9BB2E386B2
:10367000E38E9BB2A3B94A4639462046FFF70AFFBC
:1036800000284BD1A36833B901932368DA6801920B
:103690009B680193019B606D003818BF012012E008
:1036A00022689368980705D5236B33F8021BD16015
:1036B0002363D9E7FEF7DEFBA0EB0900B842D7D3BE
:1036C000791CD5D00320012384F85130002384F8DD
:1036D000503003B0BDE8F08313B1B8F1010F08D149
:1036E0002B783373236B01332363E38E013B9BB24F
:1036F000E386E38E9BB2002BBDD023689A689207C5
:1037000003D5226B12781A73ECE7FEF7B3FBA0EB3C
:103710000900B842EDD37B1CEBD0D3E720236365CF
:10372000B0E70220CFE70220D3E72DE9F7431E469A
:1037300090F85030DDF82880012B04460D46914664
:1037400000F0E080012380F85030FEF793FB94F8FE
:1037500051306268012B0746D9B20AD0B2F5827F98
:1037600040F0CE80A368002B40F0CA80042940F0CE
:10377000C780002D3FD0B9F1000F3CD0002E3AD0C9
:1037800094F85130C4F83890042B1CBF052384F8FA
:10379000513000236365C4E910332368E687E68669
:1037A0001968A687490658BF1968256358BF41F0B4
:1037B0004001A68658BF1960E168B1F5006F51D18C
:1037C0000AB1012E07D135F8022BDA60E38E2563AA
:1037D000013B9BB2E3860125E38E9BB26BB9E38F7D
:1037E0009BB253B93A4641462046FFF753FE0028A4
:1037F0007BD02023636501202BE021688B689A072A
:103800000DD5E38E9BB253B14DB1236B33F8022B30
:10381000CA602363E38E013B9BB2E38600258A687E
:1038200012F001020CD0E38F9BB24BB1A36BC968BD
:1038300023F8021BA363E38F013B9BB2E38715468A
:10384000FEF718FBC01B4045C6D3B8F1FF3FC3D0FD
:103850000320012384F85130002384F8503003B052
:10386000BDE8F0830AB1012E08D12A781A73236BC0
:1038700001332363E38E013B9BB2E3860125E38E94
:103880009BB21BB9E38F9BB2002BABD0226893682D
:103890009B070ED5E38E9BB25BB155B1236B1B78B2
:1038A0001373236B01332363E38E013B9BB2E386E7
:1038B00000252268916811F001010DD0E38F9BB2C1
:1038C00053B1A36BD2681A70A36B0133A363E38F68
:1038D000013B9BB2E3870D46FEF7CCFAC01B404587
:1038E000CDD3B8F1FF3FCAD0B2E7A368002BB0D167
:1038F00023680190DA6801929B680193019BA8E715
:103900000220A6E70220AAE72DE9F3411D464368FD
:10391000B3F5827F0446884616460CD1836853B9B6
:10392000042380F85130134600950A46FFF7FDFE48
:1039300002B0BDE8F08194F85030012B7ED0012315
:1039400084F85030FEF796FA94F85130012B074670
:10395000D8B271D1B8F1000F5CD0002E5AD0A26855
:10396000C4F83880042384F85130B2F5004F4FF08A
:1039700000036365C4E91033E6872363A386E38607
:10398000A687236807D11A6822F040021A601A68D5
:1039900022F480421A601A6856065EBF1A6842F026
:1039A00040021A60E368F3B1E38F9BB2FBB1236876
:1039B0009A68D20735D5DA68A36B23F8022BA36384
:1039C000E38F013B9BB2E387EEE723689A68D00759
:1039D00018D5A26B1B7B1370A36B0133A363E38F1A
:1039E000013B9BB2E387E38F9BB2002BEDD13A46BC
:1039F00029462046FFF724FDD8B9606D003818BF6E
:103A0000012007E0FEF736FAC01BA842EBD3691C81
:103A1000E9D00320012384F85130002384F850308A
:103A200086E7FEF727FAC01BA842BDD36B1CBBD0AC
:103A3000EFE720236365E0E70220EBE7022077E76A
:103A400090F851007047000090F83D30012B30D1C4
:103A5000022380F83D300368DA6842F00102DA6040
:103A6000154A93421AD0B3F1804F17D0A2F57C4289
:103A7000934213D002F5806293420FD002F5806228
:103A800093420BD002F57842934207D002F5705270
:103A9000934203D0A2F59432934204D19A6802F083
:103AA0000702062A03D01A6842F001021A600020B9
:103AB00070470120704700BF000001407047704709
:103AC0007047704703681A69910710B504460ED510
:103AD000DA6892070BD56FF002021A6101220277B1
:103AE0009B699B0777D0FFF7EAFF002323772368C2
:103AF0001A69500710D5DA6851070DD56FF0040226
:103B00001A61022222779B6913F4407F204668D015
:103B1000FFF7D5FF0023237723681A6912070FD513
:103B2000DA6810070CD56FF008021A6104222277B8
:103B3000DB69990720465AD0FFF7C1FF002323779E
:103B400023681A69D20610D5DA68D0060DD56FF051
:103B500010021A6108222277DB6913F4407F2046A5
:103B60004BD0FFF7ACFF0023237723681A69D107F6
:103B700008D5DA68D20705D56FF001021A61204630
:103B800045F00EFA23681A69100608D5DA6811069E
:103B900005D56FF080021A61204600F0ACF9236869
:103BA0001A69520608D5DA68500605D56FF040024A
:103BB0001A612046FFF785FF23681A69910622D50E
:103BC000DA6892061FD56FF0200220461A61BDE820
:103BD000104000F08FB9FFF771FF2046FFF770FF2C
:103BE00083E7FFF76BFF2046FFF76AFF92E7FFF7D7
:103BF00065FF2046FFF764FFA0E7FFF75FFF204661
:103C0000FFF75EFFAFE710BD304A0368904212D065
:103C1000B0F1804F0FD0A2F57C4290420BD002F55C
:103C20008062904207D002F58062904203D002F594
:103C30007842904219D14A6823F070031343234A13
:103C4000904229D0B0F1804F26D0A2F57C4290421C
:103C500022D002F5806290421ED002F5806290422E
:103C60001AD002F57842904216D0194A904213D0E9
:103C700002F5806290420FD002F5806290420BD034
:103C8000A2F59832904207D002F58062904203D0AC
:103C900002F58062904203D1CA6823F44073134353
:103CA0004A6923F08003134303608B68C3620B6887
:103CB0008362064B984203D003F58063984201D19A
:103CC0000B69036301234361704700BF000001409B
:103CD0000040014010B5044630B390F83D3003F089
:103CE000FF021BB980F83C2045F09EFC02232068AF
:103CF00084F83D30211DFFF787FF012384F846300B
:103D0000002084F83E3084F83F3084F8403084F856
:103D1000413084F8423084F8433084F8443084F8E9
:103D2000453084F83D3010BD0120FCE710B58468B3
:103D3000114324F47F4441EA03232343836010BDED
:103D400070B590F83C30012B04464FF0020300F0B0
:103D50009180012280F83D3080F83C200068836823
:103D600023F47F4323F0770383600B68602B52D0EA
:103D700033D8402B67D016D8202B0DD00AD833F07B
:103D8000100109D0012384F83D30002384F83C3031
:103D9000104670BD302BF5D1826822F070021343BB
:103DA00043F0070317E0502BECD14A68CE68016A54
:103DB000056A25F001050562836921F00A0123F0F7
:103DC000F00343EA06130A4383610262836823F027
:103DD000700343F05703836011E0B3F5805F0ED0AA
:103DE000B3F5005F0DD0702BCCD1CB68D1E90121A8
:103DF000FFF79CFF2268936843F0770393600022EB
:103E0000C0E7CB68D1E90121FFF790FF22689368F2
:103E100043F48043F2E74D68CE68016A21F0100157
:103E200001628269036A22F4704223F0A00343EA2C
:103E3000051342EA063282610362836823F070034D
:103E400043F06703C7E74A68CE68016A056A25F050
:103E500001050562836921F00A0123F0F00343EABA
:103E600006130A4383610262836823F0700343F000
:103E70004703B0E71A468BE730B590F83C30012B8A
:103E80004FF0020332D080F83D3003680D685C6863
:103E90009A6824F070042C435C60154CA3421AD03D
:103EA000B3F1804F17D0A4F57C44A34213D004F59E
:103EB0008064A3420FD004F58064A3420BD004F5C4
:103EC0007844A34207D004F57054A34203D0A4F56C
:103ED0009434A34204D1496822F080020A439A60D4
:103EE000012380F83D30002380F83C30184630BD77
:103EF00000000140704770470268C16838B5136917
:103F000023F440530B431361054683680069D1686D
:103F1000034368690343E86921F4164121F00C0169
:103F200003430B43D3605369A96923F440730B43E4
:103F300053611F4B9A4203D003F580639A4224D108
:103F4000FFF788F8EA691923B2F5004FA0FB0301D7
:103F5000D5E900431CD11A4692184FF000035B418B
:103F6000FCF7ACFE6421B0FBF1F501FB1503DB00AF
:103F70003233B3FBF1F303F007025B0002EB0512EF
:103F800003F4F8731344A36038BDFFF753F8D9E77F
:103F90009A009B0FFCF792FE6422B0FBF2F102FB49
:103FA00011031B013233B3FBF2F303EB0113EAE716
:103FB0000010014010B5044640B390F83D3003F0C6
:103FC000FF021BB980F83C2045F062FB22682423E5
:103FD00084F83D30D36823F40053D3602046FFF7C4
:103FE0008BFF23681A6922F490421A615A6922F001
:103FF0002A025A61DA6842F40052DA600020202373
:10400000206484F83D3084F83E3010BD0120FCE788
:104010002DE9F0414A6AD1E90743D1E90158D1E9D4
:1040200003ECD1E905760968012943EA0403124942
:1040300004680FD01A432A4342EA080343EA0E03F6
:1040400043EA0C033B43214033430B43036000200E
:10405000BDE8F08113434268114045EA080242EA94
:104060000E0242EA0C023A4324F4F844324323435A
:104070000A4303604260EAE70080FFFFCB68F0B5C7
:104080000C688E680D695F1E4B6904F1FF3C4C683B
:104090008969013B1B05013C013E013D0139012AB3
:1040A0004FEA04144FEA06264FEA05454FEA01613C
:1040B00043EA07330CD043EA0C03234382683343BB
:1040C0002B4302F070420B43134383600020F0BD8A
:1040D000876827F4700727F4704734433B4344EA6A
:1040E0000C02C76883602A4307F070470A433A43CB
:1040F000C260EBE773B5002301931546D1E90032A6
:104100001343CA6843EA42238A68013A43EA4213E6
:104110000193019B03610446FDF7ACFE0646A369CB
:1041200013F0200301D1184603E06B1CF7D015B93A
:10413000032002B070BDFDF79DFE801BA842EED9A2
:10414000F6E7436943EA41014161002070470130CD
:104150008000704730B518B9B1FA81F0400930BD20
:1041600003688B420DD1043000238B4201DB012018
:10417000F5E750F8045B52F82340A54201D1013322
:10418000F3E70020EBE7884205D030B131B10A1DDA
:104190000968FFF7DFBF0120704770470846704786
:1041A00010289ABF024B53F820000248704700BF06
:1041B000E43E05089CBA07080EB400B582B003AA15
:1041C00052F8041B019203689B68984702B05DF89F
:1041D00004EB03B070470CB400B583B004AA52F8E6
:1041E000041B019203689B68984703B05DF804EBD9
:1041F00002B07047431E042B04D8DFE803F0040428
:10420000040404000020704718B1012803D10220E3
:104210007047012070470020704708B518B121B1E0
:104220002AB133B108BD47F007F847F005F847F069
:1042300003F847F001F8000008B513460F2848D8E6
:10424000DFE800F00C08171F272F331337230F3B2D
:104250002B3F431B0A230B70002008BD01230B706A
:10426000FBE70B230B700020F7E707230B70002000
:10427000F3E702230B700020EFE710230B70002000
:10428000EBE703230B700020E7E709230B70002006
:10429000E3E704230B700020DFE70D230B70002001
:1042A000DBE705230B700020D7E706230B70002007
:1042B000D3E708230B700020CFE70C230B700020FE
:1042C000CBE70E230B700020C7E70F230B700020F5
:1042D000C3E700220A70024602491846FFF76CFF46
:1042E0000120BAE714BB0708002070470020704780
:1042F0000020704700207047002070470020704762
:104300000020704700207047002070470020704751
:104310000020704700207047002070470020704741
:104320000020704700207047002070470020704731
:104330000020704700207047002070470020704721
:104340000020704700207047002070470020704711
:104350000020704700207047002070470020704701
:1043600000207047002070470020704700207047F1
:104370000020704700207047704708B50068FFF7BD
:10438000FBFF08BD704708B50068FFF7FBFF08BDDD
:104390002DE9F0411C46D1B1804617460D4608680C
:1043A000FFF7EAFF0646B0EB980F17D80024B44297
:1043B00022D22868FFF7E0FF844216D22B1D53F863
:1043C0002400FFF7DFFF47F824000134EFE7069AE7
:1043D0000B491846FFF7F0FE01200EE0069A094946
:1043E0002046FFF7E9FE012007E0074B074A4FF49C
:1043F0008371074846F028FF0020BDE8F08100BF28
:1044000038BB070868BB0708ACBB0708B8BB070880
:1044100088BC0708704708B50088FFF7FBFF08BD98
:10442000704708B50078FFF7FBFF08BD2DE9F041A4
:1044300084B00446884616461F46FFF7EEFE3368F2
:104440001B680422114630469847002303600296F9
:10445000039038B305462046FFF795FF261A3046ED
:10446000FFF7D9FF0A282AD906F10A00FFF7D3FF80
:1044700038B32044FFF7D5FF232828D12046FFF783
:1044800082FF261A3046FFF7C6FF0C281BD906F11B
:104490000C00FFF7C0FF0444B8B12046FFF76DFFE2
:1044A000044415E01C4B019340F2577300931B4BDF
:1044B0001B4A41464046FFF78EFE01241EE00020C5
:1044C000D6E70020D8E70020E5E7002400E000243C
:1044D0008CB126462046FFF756FF241A2046FFF7E8
:1044E0009AFF042814D9201DFFF795FF90B130449E
:1044F000FFF749FF2860002403943D60039919B138
:10450000029803685B689847204604B0BDE8F081D4
:104510000020EBE70020EDE778BD070810BD070895
:1045200060BD07082DE9F04184B004468846164670
:104530001F46FFF772FE33681B680422114630469F
:104540009847002303600296039038B3054620463F
:10455000FFF719FF261A3046FFF75DFF0A282AD910
:1045600006F10A00FFF757FF38B32044FFF759FF61
:104570004F2828D12046FFF706FF261A3046FFF7BE
:104580004AFF0C281BD906F10C00FFF744FF044436
:10459000B8B12046FFF7F1FE044415E01C4B01932F
:1045A00040F26F7300931B4B1B4A41464046FFF796
:1045B00012FE01241EE00020D6E70020D8E70020EC
:1045C000E5E7002400E000248CB126462046FFF7F2
:1045D000DAFE241A2046FFF71EFF042814D9201DF6
:1045E000FFF719FF90B13044FFF7CDFE286000249B
:1045F00003943D60039919B1029803685B6898477A
:10460000204604B0BDE8F0810020EBE70020EDE794
:1046100078BD070810BD070860BD07082DE9F04107
:1046200084B00446884616461F46FFF7F6FD3368F9
:104630001B6804220821304698470023036043602A
:104640000296039038B305462046FFF79CFE261AD3
:104650003046FFF7E0FE0A282AD906F10A00FFF7E4
:10466000DAFE38B32044FFF7DCFE402828D120468C
:10467000FFF789FE261A3046FFF7CDFE0C281BD91E
:1046800006F10C00FFF7C7FE0444B8B12046FFF75F
:1046900074FE044415E0274B019340F63503009364
:1046A000254B264A41464046FFF795FD01242FE061
:1046B0000020D6E70020D8E70020E5E7002400E04E
:1046C000002414B326462046FFF75DFE241A204638
:1046D000FFF7A1FE042825D9201DFFF79CFE18B383
:1046E0003044FFF750FE28603046FFF74CFE341A86
:1046F0002046FFF790FE062818D9A01DFFF78BFE75
:10470000B0B13044FFF73FFE6860002403943D6081
:10471000039919B1029803685B689847204604B072
:10472000BDE8F0810020DAE70020DCE70020E7E7C1
:104730000020E9E778BD070810BD070860BD07083D
:104740002DE9F04184B00446884616461F46FFF71F
:1047500064FD33681B680422082130469847002313
:10476000036043600296039038B305462046FFF786
:104770000AFE261A3046FFF74EFE0A282AD906F10D
:104780000A00FFF748FE38B32044FFF74AFE3B28F3
:1047900028D12046FFF7F7FD261A3046FFF73BFEEB
:1047A0000C281BD906F10C00FFF735FE0444B8B104
:1047B0002046FFF7E2FD044415E0274B019340F249
:1047C0000A630093254B264A41464046FFF703FD06
:1047D00001242FE00020D6E70020D8E70020E5E7FD
:1047E000002400E0002414B326462046FFF7CBFD4A
:1047F000241A2046FFF70FFE042825D9201DFFF7B5
:104800000AFE18B33044FFF7BEFD28603046FFF7BC
:10481000BAFD341A2046FFF7FEFD062818D9A01D60
:10482000FFF7F9FDB0B13044FFF7ADFD686000243B
:1048300003943D60039919B1029803685B68984737
:10484000204604B0BDE8F0810020DAE70020DCE774
:104850000020E7E70020E9E778BD070810BD07085A
:1048600060BD07082DE9F04184B00446884616462D
:104870001F46FFF7D2FC33681B6804222421304610
:10488000984705462422002146F0ACFD0296039588
:1048900035B32046FFF777FD261A3046FFF7BBFDFC
:1048A0000A282AD906F10A00FFF7B5FD38B32044DB
:1048B000FFF7B7FD112828D12046FFF764FD261A1F
:1048C0003046FFF7A8FD0C281BD906F10C00FFF7B6
:1048D000A2FD0444B8B12046FFF74FFD044415E0A3
:1048E000244B019340F295630093234B234A4146A6
:1048F0004046FFF770FC01262EE00020D6E700209E
:10490000D8E70020E5E7002400E000240CB32646A9
:104910002046FFF738FD241A2046FFF77CFD0428C7
:1049200024D9201DFFF777FD064408B33046FFF772
:1049300024FD34186CB1124B009343462A4621469D
:104940002020FFF725FD064630B92068FFF714FD4B
:104950002862002603963D60039919B10298036806
:104960005B689847304604B0BDE8F0810020DBE783
:104970000024DFE778BD070810BD070860BD070801
:104980008CBD07082DE9F04184B0044688461646E0
:104990001F46FFF742FC33681B680422242130467F
:1049A000984705462422002146F01CFD02960395F7
:1049B00035B32046FFF7E7FC261A3046FFF72BFDFC
:1049C0000A282AD906F10A00FFF725FD38B320444A
:1049D000FFF727FD1E2828D12046FFF7D4FC261A12
:1049E0003046FFF718FD0C281BD906F10C00FFF725
:1049F00012FD0444B8B12046FFF7BFFC044415E0A3
:104A0000264B01934FF4F1630093254B254A414611
:104A10004046FFF7E0FB012635E00020D6E7002006
:104A2000D8E70020E5E7002400E0002444B3264650
:104A30002046FFF7A8FC241A2046FFF7ECFC0428C8
:104A400018D9201DFFF7E7FC0644A8B13046FFF750
:104A500094FC341894B1144B009343462A462146E3
:104A60002020FFF795FC064668B92068FFF784FC14
:104A7000286205E00020E7E70024EBE700232B6233
:104A8000002603963D60039919B1029803685B689C
:104A90009847304604B0BDE8F08100BF78BD0708F4
:104AA00010BD070860BD070894BD07082DE9F04157
:104AB00084B00546884616461F46FFF7AEFB3368AE
:104AC0001B6804221421304698470023036043608A
:104AD0008360C36003610296039038B3044628469E
:104AE000FFF751FC2E1A3046FFF795FC0A282AD909
:104AF00006F10A00FFF78FFC38B32844FFF791FC5A
:104B0000202828D12846FFF73EFC2E1A3046FFF712
:104B100082FC0C281BD906F10C00FFF77CFC054435
:104B2000B8B12846FFF729FC054415E04A4B01932C
:104B300040F2BA730093494B494A41464046FFF759
:104B40004AFB01246AE00020D6E70020D8E70020D5
:104B5000E5E7002500E00025002D5BD02E46284625
:104B6000FFF711FC2D1A2846FFF755FC04285FD9E2
:104B7000281DFFF750FC00285CD03044FFF703FCF1
:104B800020603046FFF7FFFB351A2846FFF743FC4D
:104B9000062851D9A81DFFF73EFC00284ED030440E
:104BA000FFF7F1FB60603046FFF7EDFB351A284652
:104BB000FFF731FC082843D905F10800FFF72BFC6B
:104BC00000283FD03044FFF7DEFBA0603046FFF7FF
:104BD000DAFB351A2846FFF71EFC0A2834D905F1FE
:104BE0000A00FFF718FC88B33044FFF7CCFBE06005
:104BF0003046FFF7C8FB351A2846FFF70CFC0C2897
:104C000026D905F10C00FFF706FC18B33044FFF776
:104C1000BAFB2061002003903C600446039919B15F
:104C2000029803685B689847204604B0BDE8F081AD
:104C30000020A0E70020A3E70020AEE70020B1E7B6
:104C40000020BDE70020C0E70020CCE70020CEE731
:104C50000020DAE70020DCE778BD070810BD070870
:104C600060BD07082DE9F04184B004468846164629
:104C70001F46FFF7D2FA33681B68012211463046FF
:104C80009847002303700296039038B305462046E8
:104C9000FFF779FB261A3046FFF7BDFB0A282AD911
:104CA00006F10A00FFF7B7FB38B32044FFF7B9FB62
:104CB0001B2828D12046FFF766FB261A3046FFF74F
:104CC000AAFB0C281BD906F10C00FFF7A4FB044437
:104CD000B8B12046FFF751FB044415E01E4B019389
:104CE00040F26B6300931D4B1D4A41464046FFF75F
:104CF00072FA012421E00020D6E70020D8E7002046
:104D0000E5E7002400E00024A4B126462046FFF792
:104D10003AFB241A2046FFF77EFB042817D9201DF2
:104D2000FFF779FBA8B13044FFF77BFB003818BFD1
:104D300001202870002403943D60039919B1029862
:104D400003685B689847204604B0BDE8F081002006
:104D5000E8E70020EAE700BF78BD070810BD0708B4
:104D600060BD07082DE9F04184B004468846164628
:104D70001F46FFF752FA33681B68012202213046B2
:104D800098470023037043700296039038B305469A
:104D90002046FFF7F8FA261A3046FFF73CFB0A28B0
:104DA0002AD906F10A00FFF736FB38B32044FFF793
:104DB00038FB4A2828D12046FFF7E5FA261A304664
:104DC000FFF729FB0C281BD906F10C00FFF723FB8A
:104DD0000444B8B12046FFF7D0FA044415E02A4B4A
:104DE000019340F2D5630093284B294A414640463F
:104DF000FFF7F1F9012435E00020D6E70020D8E7DD
:104E00000020E5E7002400E0002444B326462046C5
:104E1000FFF7B9FA241A2046FFF7FDFA04282BD928
:104E2000201DFFF7F8FA48B33044FFF7FAFA0038CC
:104E300018BF012028703046FFF7A5FA341A204623
:104E4000FFF7E9FA06281BD9A01DFFF7E4FAC8B15D
:104E50003044FFF7E6FA003818BF012068700024DC
:104E600003943D60039919B1029803685B68984701
:104E7000204604B0BDE8F0810020D4E70020D6E74A
:104E80000020E4E70020E6E778BD070810BD07082A
:104E900060BD0708704708B590F90000FFF7FAFFFA
:104EA00008BD00002DE9F04184B00446884616464E
:104EB0001F46FFF7B2F933681B68012211463046DE
:104EC0009847002303700296039038B305462046A6
:104ED000FFF759FA261A3046FFF79DFA0A282AD911
:104EE00006F10A00FFF797FA38B32044FFF799FA62
:104EF0001D2828D12046FFF746FA261A3046FFF72C
:104F00008AFA0C281BD906F10C00FFF784FA044436
:104F1000B8B12046FFF731FA044415E01E4B019367
:104F200040F2B34300931D4B1D4A41464046FFF7F4
:104F300052F9012421E00020D6E70020D8E7002024
:104F4000E5E7002400E00024A4B126462046FFF750
:104F50001AFA241A2046FFF75EFA042817D9201DF2
:104F6000FFF759FAA8B13044FFF795FFC0B2FFF739
:104F700041F92870002403943D60039919B1029807
:104F800003685B689847204604B0BDE8F0810020C4
:104F9000E8E70020EAE700BF78BD070810BD070872
:104FA00060BD07082DE9F04184B0044688461646E6
:104FB0001F46FFF732F933681B680122114630465D
:104FC0009847002303700296039038B305462046A5
:104FD000FFF7D9F9261A3046FFF71DFA0A282AD911
:104FE00006F10A00FFF717FA38B32044FFF719FA61
:104FF000152828D12046FFF7C6F9261A3046FFF7B4
:105000000AFA0C281BD906F10C00FFF704FA044435
:10501000B8B12046FFF7B1F9044415E01E4B0193E7
:1050200040F2E15300931D4B1D4A41464046FFF7B5
:10503000D2F8012421E00020D6E70020D8E70020A4
:10504000E5E7002400E00024A4B126462046FFF74F
:105050009AF9241A2046FFF7DEF9042817D9201DF3
:10506000FFF7D9F9A8B13044FFF715FFC0B2FFF739
:10507000C1F82870002403943D60039919B1029887
:1050800003685B689847204604B0BDE8F0810020C3
:10509000E8E70020EAE700BF78BD070810BD070871
:1050A00060BD07082DE9F04184B0044688461646E5
:1050B0001F46FFF7B2F833681B68012211463046DD
:1050C0009847002303700296039038B305462046A4
:1050D000FFF759F9261A3046FFF79DF90A282AD911
:1050E00006F10A00FFF797F938B32044FFF799F962
:1050F0000C2828D12046FFF746F9261A3046FFF73C
:105100008AF90C281BD906F10C00FFF784F9044436
:10511000B8B12046FFF731F9044415E01E4B019366
:1051200040F2695300931D4B1D4A41464046FFF72C
:1051300052F8012421E00020D6E70020D8E7002023
:10514000E5E7002400E00024A4B126462046FFF74E
:105150001AF9241A2046FFF75EF9042817D9201DF2
:10516000FFF759F9A8B13044FFF795FEC0B2FFF739
:1051700041F82870002403943D60039919B1029806
:1051800003685B689847204604B0BDE8F0810020C2
:10519000E8E70020EAE700BF78BD070810BD070870
:1051A00060BD07082DE9F04184B0044688461646E4
:1051B0001F46FFF732F833681B6804220821304687
:1051C00098470023036003710296039038B30546A5
:1051D0002046FFF7D8F8261A3046FFF71CF90A28B0
:1051E0002AD906F10A00FFF716F938B32044FFF771
:1051F00018F90A2828D12046FFF7C5F8261A3046A4
:10520000FFF709F90C281BD906F10C00FFF703F989
:105210000444B8B12046FFF7B0F8044415E0294B28
:10522000019340F21C430093274B284A41464046D5
:10523000FEF7D1FF012432E00020D6E70020D8E7B6
:105240000020E5E7002400E000242CB32646204699
:10525000FFF799F8241A2046FFF7DDF8062828D929
:10526000A01DFFF7D8F830B33044FFF714FEC0B2EA
:10527000FEF7C0FF28713046FFF785F8341A204644
:10528000FFF7C9F8042818D9201DFFF7C4F8B0B1FA
:105290003044FFF778F82860002403943D600399B8
:1052A00019B1029803685B689847204604B0BDE8CE
:1052B000F0810020D7E70020D9E70020E7E70020B1
:1052C000E9E700BF78BD070810BD070860BD070803
:1052D0002DE9F04184B00446884616461F46FEF785
:1052E0009CFF33681B680122022130469847002347
:1052F000037043700296039038B305462046FFF7CB
:1053000042F8261A3046FFF786F80A282AD906F10D
:105310000A00FFF780F838B32044FFF782F81C2812
:1053200028D12046FFF72FF8261A3046FFF773F8EA
:105330000C281BD906F10C00FFF76DF80444B8B136
:105340002046FFF71AF8044415E02A4B019340F277
:10535000D6730093284B294A41464046FEF73BFF4F
:10536000012435E00020D6E70020D8E70020E5E75B
:10537000002400E0002444B326462046FFF703F84B
:10538000241A2046FFF747F804282BD9201DFFF7E1
:1053900042F848B33044FFF77EFDC0B2FEF72AFF63
:1053A00028703046FEF7EFFF341A2046FFF733F837
:1053B00006281BD9A01DFFF72EF8C8B13044FFF70F
:1053C00030F8003818BF01206870002403943D6055
:1053D000039919B1029803685B689847204604B0A6
:1053E000BDE8F0810020D4E70020D6E70020E4E704
:1053F0000120E6E778BD070810BD070860BD070873
:105400002DE9F04184B00446884616461F46FEF753
:1054100004FF33681B6801220221304698470023AD
:10542000037043700296039038B305462046FEF79A
:10543000AAFF261A3046FEF7EEFF0A282AD906F1FF
:105440000A00FEF7E8FF38B32044FEF7EAFF0B2816
:1054500028D12046FEF797FF261A3046FEF7DBFFDD
:105460000C281BD906F10C00FEF7D5FF0444B8B197
:105470002046FEF782FF044415E02A4B019340F2D8
:105480008F330093284B294A41464046FEF7A3FE3E
:10549000012435E00020D6E70020D8E70020E5E72A
:1054A000002400E0002444B326462046FEF76BFFAC
:1054B000241A2046FEF7AFFF04282BD9201DFEF743
:1054C000AAFF48B33044FFF7E6FCC0B2FEF792FEF5
:1054D00028703046FEF757FF341A2046FEF79BFF30
:1054E00006281BD9A01DFEF796FFC8B13044FEF771
:1054F00098FF003818BF01206870002403943D60B5
:10550000039919B1029803685B689847204604B074
:10551000BDE8F0810020D4E70020D6E70020E4E7D2
:105520000120E6E778BD070810BD070860BD070841
:105530002DE9F04184B00446884616461F46FEF722
:105540006CFE33681B6804220C2130469847002308
:105550000370436083600296039038B3054620468B
:10556000FEF711FF261A3046FEF755FF0A282AD902
:1055700006F10A00FEF74FFF38B32044FEF751FF53
:10558000312828D12046FEF7FEFE261A3046FEF7C7
:1055900042FF0C281BD906F10C00FEF73CFF044427
:1055A000B8B12046FEF7E9FE044415E0344B019300
:1055B00040F61D030093334B334A41464046FEF705
:1055C0000AFE012445E00020D6E70020D8E70020AD
:1055D000E5E7002400E00024C4B326462046FEF799
:1055E000D2FE241A2046FEF716FF04283BD9201DC0
:1055F000FEF711FF002838D03044FFF74CFCC0B252
:10560000FEF702FE28703046FEF7BDFE341A204633
:10561000FEF701FF06282AD9A01DFEF7FCFE40B3C5
:105620003044FEF7B0FE68603046FEF7ACFE341A38
:105630002046FEF7F0FE08281DD904F10800FEF709
:10564000EAFED0B13044FEF79EFEA8600024039429
:105650003D60039919B1029803685B68984720463A
:1056600004B0BDE8F0810020C4E70020C7E70020B7
:10567000D5E70020D7E70020E3E70020E5E700BFFB
:1056800078BD070810BD070860BD07082DE9F04187
:1056900084B00446884616461F46FEF7BEFD3368B2
:1056A0001B680422082130469847002303600371D9
:1056B00043710296039038B305462046FEF763FE19
:1056C000261A3046FEF7A7FE0A282AD906F10A0054
:1056D000FEF7A1FE38B32044FEF7A3FE062828D12A
:1056E0002046FEF750FE261A3046FEF794FE0C28A0
:1056F0001BD906F10C00FEF78EFE0444B8B120461B
:10570000FEF73BFE044415E0364B01934FF4FE6375
:105710000093354B354A41464046FEF75CFD012477
:1057200049E00020D6E70020D8E70020E5E7002484
:1057300000E00024002C3BD026462046FEF723FE46
:10574000241A2046FEF767FE04283ED9201DFEF7E6
:1057500062FE00283BD03044FEF715FE286030463C
:10576000FEF711FE341A2046FEF755FE062830D902
:10577000A01DFEF750FE70B33044FFF78CFBC0B2A3
:10578000FEF738FD28713046FEF7FDFD341A20463D
:10579000FEF741FE082820D904F10800FEF73BFE81
:1057A000E8B13044FEF73DFE003818BF01206871B3
:1057B000002403943D60039919B1029803685B6863
:1057C0009847204604B0BDE8F0810020C1E70020E2
:1057D000C4E70020CFE70020D1E70020E0E7002069
:1057E000E2E700BF78BD070810BD070860BD0708E5
:1057F0002DE9F04184B00446884616461F461368DA
:105800001B68012211463046984700230370029618
:10581000039070B105462046FEF7B5FD261A3046C6
:10582000FEF7F9FD0A2811D906F10A00FEF7F3FD8B
:105830000DE02C4B019340F2FC6300932A4B2B4A62
:1058400041464046FEF7C7FC01243DE0002018B168
:105850002044FEF7E6FD00E00020372817D120465F
:10586000FEF791FD261A3046FEF7D5FD0C2804D927
:1058700006F10C00FEF7CFFD00E00020044420B14B
:105880002046FEF77AFD044402E0002400E00024F4
:10589000BCB126462046FEF776FD241A2046FEF7C8
:1058A000BAFD04281AD9201DFEF7B5FDC0B1304459
:1058B000FFF7F1FA42462946C0B2FEF7BDFC0446A6
:1058C00010B9002403943D60039919B1029803684C
:1058D0005B689847204604B0BDE8F0810020E5E70A
:1058E0000020E7E778BD070810BD070860BD07087E
:1058F0002DE9F04184B00446884616461F46FEF75F
:105900008CFC33681B6801221146304698470023FF
:1059100003700296039070B105462046FEF733FDF2
:10592000261A3046FEF777FD0A2811D906F10A003B
:10593000FEF771FD0DE02C4B019340F2C73300934D
:105940002A4B2B4A41464046FEF745FC01243DE0E8
:10595000002018B12044FEF764FD00E00020392843
:1059600017D12046FEF70FFD261A3046FEF753FDED
:105970000C2804D906F10C00FEF74DFD00E00020D4
:10598000044420B12046FEF7F8FC044402E0002461
:1059900000E00024BCB126462046FEF7F4FC241AA1
:1059A0002046FEF738FD04281AD9201DFEF733FDE6
:1059B000C0B13044FFF76FFA42462946C0B2FEF745
:1059C0003BFC044610B9002403943D60039919B1CF
:1059D000029803685B689847204604B0BDE8F081F0
:1059E0000020E5E70020E7E778BD070810BD0708BD
:1059F00060BD07082DE9F04184B00446884616468C
:105A00001F46FEF70AFC33681B6801221146304628
:105A10009847002303700296039070B10546204614
:105A2000FEF7B1FC261A3046FEF7F5FC0A2811D91C
:105A300006F10A00FEF7EFFC0DE02C4B019340F25B
:105A4000AE3300932A4B2B4A41464046FEF7C3FB38
:105A500001243DE0002018B12044FEF7E2FC00E004
:105A60000020282817D12046FEF78DFC261A304644
:105A7000FEF7D1FC0C2804D906F10C00FEF7CBFC94
:105A800000E00020044420B12046FEF776FC0444E8
:105A900002E0002400E00024BCB126462046FEF7C8
:105AA00072FC241A2046FEF7B6FC04281AD9201DE1
:105AB000FEF7B1FCC0B13044FFF7EDF9424629468C
:105AC000C0B2FEF7B9FB044610B9002403943D6050
:105AD000039919B1029803685B689847204604B09F
