:020000040800F2
:1000000000000320BD500008454F0008474F00087E
:10001000494F00084B4F00084D4F000800000000FA
:100020000000000000000000000000004F4F00082A
:10003000514F000800000000534F00080D51000808
:100040000D5100080D5100080D5100080D51000818
:100050000D5100080D5100080D5100080D51000808
:100060000D5100080D5100080D5100080D510008F8
:100070000D5100080D5100080D5100080D510008E8
:100080000D5100080D5100080D5100080D510008D8
:100090000D5100080D5100080D5100080D510008C8
:1000A0000D5100080D5100080D5100080D510008B8
:1000B0000D5100080D5100080D5100080D510008A8
:1000C0000D5100080D5100080D5100080D51000898
:1000D0000D5100080D5100080D5100080D51000888
:1000E0000D5100080D5100080D5100080D51000878
:1000F0000D5100080D5100080D5100080D51000868
:100100000D5100080D5100080D5100080D51000857
:100110000D5100080D510008554F00080D51000801
:100120000D5100080D5100080D5100080D51000837
:100130000D5100080D5100080D5100080D51000827
:100140000D5100080D5100080D5100080D51000817
:100150000D5100080D5100080D5100080D51000807
:100160000D5100080D5100080D5100080D510008F7
:100170000D5100080D5100080D510008000000004D
:100180000D5100080D5100080D5100080D510008D7
:100190000D5100080D5100080D5100080D510008C7
:0C01A0000D5100080D5100080D51000821
:1001B00010B5054C237833B9044B13B10448AFF3A1
:1001C00000800123237010BD6009002000000000A2
:1001D00070CC000808B5034B1BB103490348AFF3CB
:1001E000008008BD000000006409002070CC0008F9
:1001F000034613F8012B002AFBD1181A0138704767
:1002000001F0FF01102A2BDB10F0070F08D010F8C7
:10021000013B013A8B422DD010F0070F42B3F6D1CB
:10022000F0B441EA012141EA014122F007047FF0E4
:1002300000070023F0E80256083C85EA010586EA3B
:10024000010685FA47F5A3FA87F586FA47F6A5FA77
:1002500087F68EB9EED1F0BC01F0FF0102F0070283
:1002600032B110F8013B013A83EA010313B1F8D12E
:100270000020704701387047002D06BF354603380F
:10028000073815F0010F07D1013015F4807F02BF48
:10029000013015F4C03F0130F0BC0138704700BF99
:1002A00081F0004102E000BF83F0004330B54FEA27
:1002B00041044FEA430594EA050F08BF90EA020F94
:1002C0001FBF54EA000C55EA020C7FEA645C7FEA27
:1002D000655C00F0E2804FEA5454D4EB5555B8BF4A
:1002E0006D420CDD2C4480EA020281EA030382EABB
:1002F000000083EA010180EA020281EA0303362D4D
:1003000088BF30BD11F0004F4FEA01314FF4801C1F
:100310004CEA113102D0404261EB410113F0004F31
:100320004FEA03334CEA133302D0524263EB4303E8
:1003300094EA050F00F0A780A4F10104D5F1200E86
:100340000DDB02FA0EFC22FA05F2801841F10001E1
:1003500003FA0EF2801843FA05F359410EE0A5F1B5
:1003600020050EF1200E012A03FA0EFC28BF4CF0E6
:10037000020C43FA05F3C01851EBE37101F000459C
:1003800007D54FF0000EDCF1000C7EEB00006EEBA9
:100390000101B1F5801F1BD3B1F5001F0CD3490833
:1003A0005FEA30004FEA3C0C04F101044FEA44528A
:1003B00012F5800F80F09A80BCF1004F08BF5FEA11
:1003C000500C50F1000041EB045141EA050130BDF1
:1003D0005FEA4C0C404141EB0101013C28BFB1F503
:1003E000801FE9D291F0000F04BF01460020B1FA4E
:1003F00081F308BF2033A3F10B03B3F120020CDA21
:100400000C3208DD02F1140CC2F10C0201FA0CF0FE
:1004100021FA02F10CE002F11402D8BFC2F1200C63
:1004200001FA02F120FA0CFCDCBF41EA0C01904019
:10043000E41AA2BF01EB0451294330BD6FEA040462
:100440001F3C1CDA0C340EDC04F11404C4F120024D
:1004500020FA04F001FA02F340EA030021FA04F35F
:1004600045EA030130BDC4F10C04C4F1200220FAB6
:1004700002F001FA04F340EA0300294630BD21FAF4
:1004800004F0294630BD94F0000F83F4801306BFBA
:1004900081F480110134013D4EE77FEA645C18BFAE
:1004A0007FEA655C29D094EA050F08BF90EA020F45
:1004B00005D054EA000C04BF1946104630BD91EA3D
:1004C000030F1EBF0021002030BD5FEA545C05D140
:1004D0004000494128BF41F0004130BD14F580047F
:1004E0003CBF01F5801130BD01F0004545F0FE41F3
:1004F00041F470014FF0000030BD7FEA645C1ABF28
:10050000194610467FEA655C1CBF0B46024650EA5E
:10051000013406BF52EA033591EA030F41F400218A
:1005200030BD00BF90F0000F04BF0021704730B510
:100530004FF4806404F132044FF000054FF00001E5
:1005400050E700BF90F0000F04BF0021704730B5A6
:100550004FF4806404F1320410F0004548BF40427B
:100560004FF000013EE700BF42004FEAE2014FEAD0
:1005700031014FEA02701FBF12F07F4393F07F4FAB
:1005800081F06051704732F07F4208BF704793F0AE
:100590007F4F04BF41F40021704730B54FF46074C1
:1005A00001F0004521F000411CE700BF50EA0102C4
:1005B00008BF704730B54FF000050AE050EA01026D
:1005C00008BF704730B511F0004502D5404261EBDD
:1005D00041014FF4806404F132045FEA915C3FF41E
:1005E000D8AE4FF003025FEADC0C18BF03325FEABB
:1005F000DC0C18BF033202EBDC02C2F1200300FA6C
:1006000003FC20FA02F001FA03FE40EA0E0021FA90
:1006100002F11444BDE600BF70B54FF0FF0C4CF47E
:10062000E06C1CEA11541DBF1CEA135594EA0C0F30
:1006300095EA0C0F00F0DEF82C4481EA030621EA6B
:100640004C5123EA4C5350EA013518BF52EA0335A6
:1006500041F4801143F4801338D0A0FB02CE4FF058
:100660000005E1FB02E506F00042E0FB03E54FF088
:100670000006E1FB03569CF0000F18BF4EF0010E80
:10068000A4F1FF04B6F5007F64F5407404D25FEA7C
:100690004E0E6D4146EB060642EAC62141EA55512F
:1006A0004FEAC52040EA5E504FEACE2EB4F1FD0C71
:1006B00088BFBCF5E06F1ED8BEF1004F08BF5FEAEF
:1006C000500E50F1000041EB045170BD06F00046A1
:1006D00046EA010140EA020081EA0301B4EB5C044E
:1006E000C2BFD4EB0C0541EA045170BD41F4801146
:1006F0004FF0000E013C00F3AB8014F1360FDEBF6B
:10070000002001F0004170BDC4F10004203C35DA46
:100710000C341BDC04F11404C4F1200500FA05F3C9
:1007200020FA04F001FA05F240EA020001F000426A
:1007300021F0004110EBD37021FA04F642EB0601E0
:100740005EEA430E08BF20EAD37070BDC4F10C040A
:10075000C4F1200500FA04F320FA05F001FA04F2CE
:1007600040EA020001F0004110EBD37041F10001BA
:100770005EEA430E08BF20EAD37070BDC4F12005C5
:1007800000FA05F24EEA020E20FA04F301FA05F22D
:1007900043EA020321FA04F001F0004121FA04F2D5
:1007A00020EA020000EBD3705EEA430E08BF20EAA5
:1007B000D37070BD94F0000F0FD101F000464000DF
:1007C00041EB010111F4801F08BF013CF7D041EA61
:1007D000060195F0000F18BF704703F00046520065
:1007E00043EB030313F4801F08BF013DF7D043EA36
:1007F0000603704794EA0C0F0CEA135518BF95EAEC
:100800000C0F0CD050EA410618BF52EA4306D1D172
:1008100081EA030101F000414FF0000070BD50EA91
:10082000410606BF1046194652EA430619D094EA1B
:100830000C0F02D150EA013613D195EA0C0F05D105
:1008400052EA03361CBF104619460AD181EA030159
:1008500001F0004141F0FE4141F470014FF0000011
:1008600070BD41F0FE4141F4780170BD70B54FF0AC
:10087000FF0C4CF4E06C1CEA11541DBF1CEA13552C
:1008800094EA0C0F95EA0C0F00F0A7F8A4EB05040E
:1008900081EA030E52EA03354FEA013100F0888005
:1008A0004FEA03334FF0805545EA131343EA1263CE
:1008B0004FEA022245EA111545EA10654FEA002683
:1008C0000EF000419D4208BF964244F1FD0404F53C
:1008D000407402D25B084FEA3202B61A65EB030598
:1008E0005B084FEA32024FF480104FF4002CB6EB55
:1008F000020E75EB030E22BFB61A754640EA0C00D5
:100900005B084FEA3202B6EB020E75EB030E22BF14
:10091000B61A754640EA5C005B084FEA3202B6EB55
:10092000020E75EB030E22BFB61A754640EA9C0014
:100930005B084FEA3202B6EB020E75EB030E22BFE4
:10094000B61A754640EADC0055EA060E18D04FEAA2
:10095000051545EA16754FEA06164FEAC30343EA42
:1009600052734FEAC2025FEA1C1CC0D111F4801F0F
:100970000BD141EA00014FF000004FF0004CB6E708
:1009800011F4801F04BF01430020B4F1FD0C88BFA7
:10099000BCF5E06F3FF6AFAEB5EB030C04BFB6EBB2
:1009A000020C5FEA500C50F1000041EB045170BDA5
:1009B0000EF0004E4EEA113114EB5C04C2BFD4EBD2
:1009C0000C0541EA045170BD41F480114FF0000E56
:1009D000013C90E645EA060E8DE60CEA135594EAD2
:1009E0000C0F08BF95EA0C0F3FF43BAF94EA0C0FD5
:1009F0000AD150EA01347FF434AF95EA0C0F7FF44A
:100A000025AF104619462CE795EA0C0F06D152EA9D
:100A100003353FF4FDAE1046194622E750EA410681
:100A200018BF52EA43067FF4C5AE50EA41047FF492
:100A30000DAF52EA43057FF4EBAE12E74FF0FF3CF7
:100A400006E000BF4FF0010C02E000BF4FF0010CC8
:100A50004DF804CD4FEA410C7FEA6C5C4FEA430C41
:100A600018BF7FEA6C5C1BD001B050EA410C0CBF90
:100A700052EA430C91EA030F02BF90EA020F0020F2
:100A8000704710F1000F91EA030F58BF994208BF59
:100A900090422CBFD8176FEAE37040F00100704716
:100AA0004FEA410C7FEA6C5C02D150EA013C07D16D
:100AB0004FEA430C7FEA6C5CD6D152EA033CD3D0B8
:100AC0005DF8040B704700BF8446104662468C46B2
:100AD0001946634600E000BF01B5FFF7B7FF0028E5
:100AE00048BF10F1000F01BD4DF808EDFFF7F4FF0E
:100AF0000CBF012000205DF808FB00BF4DF808ED99
:100B0000FFF7EAFF34BF012000205DF808FB00BFBB
:100B10004DF808EDFFF7E0FF94BF012000205DF8DD
:100B200008FB00BF4DF808EDFFF7CEFF94BF012092
:100B300000205DF808FB00BF4DF808EDFFF7C4FF8B
:100B400034BF012000205DF808FB00BF4FEA410CD4
:100B50007FEA6C5C02D150EA013C0AD14FEA430CB7
:100B60007FEA6C5C02D152EA033C02D14FF00000F4
:100B700070474FF0010070474FEA410212F5001232
:100B800015D211D56FF47873B3EB625212D94FEAD4
:100B9000C12343F0004343EA505311F0004F23FABE
:100BA00002F018BF404270474FF00000704750EA13
:100BB000013005D111F0004008BF6FF000407047D0
:100BC0004FF00000704700BF4A0011D212F500122A
:100BD00011D20DD56FF47873B3EB62520ED44FEA95
:100BE000C12343F0004343EA505323FA02F0704715
:100BF0004FF00000704750EA013002D14FF0FF3053
:100C000070474FF0000070474FEA4102B2F1E043F5
:100C100024BFB3F5001CDCF1FE5C0DD901F0004CE3
:100C20004FEAC0024CEA5070B2F1004F40EB830033
:100C300008BF20F00100704711F0804F21D113F15F
:100C40003872BCBF01F00040704741F480114FEA98
:100C50005252C2F11802C2F1200C10FA0CF320FA21
:100C600002F018BF40F001004FEAC1234FEAD3233E
:100C700003FA0CFC40EA0C0023FA02F34FEA4303A8
:100C8000CCE77FEA625307D150EA01331EBF4FF031
:100C9000FE4040F44000704701F0004040F0FE404C
:100CA00040F40000704700BF53B94AB9002908BF9B
:100CB00000281CBF4FF0FF314FF0FF3000F0A4B907
:100CC000ADF1080C6DE904CE00F03CF8DDF804E06D
:100CD000DDE9022304B0704738B500220023044642
:100CE0000D46FFF70BFF28B920462946BDE83840DE
:100CF00000F00AB8204605F1004100F005F8404236
:100D000061EB410138BD00BFD0B50C4B0022064657
:100D10000F46FFF781FCFFF757FF0446FFF702FC81
:100D2000074B0022FFF778FC02460B463046394657
:100D3000FFF7BAFAFFF748FF2146D0BD0000F03DAB
:100D40000000F0412DE9F047089D04468C46002B39
:100D500040F083808A42174647D9B2FA82F242B104
:100D6000C2F1200024FA00F09140974040EA010CC3
:100D700094404FEA1748230CBCFBF8F61FFA87FE95
:100D800008FB16C143EA014306FB0EF1994209D95B
:100D9000FB1806F1FF3080F01981994240F216816C
:100DA000023E3B445B1AA4B2B3FBF8F008FB1033DD
:100DB00044EA034400FB0EFEA64509D93C1900F1A4
:100DC000FF3380F00581A64540F2028102383C44A1
:100DD00040EA0640A4EB0E0400261DB1D4400023D7
:100DE000C5E900433146BDE8F08702B9FFDEB2FA3B
:100DF00082F2002A50D1CB1B4FEA174E1FFA87F818
:100E00000126B3FBFEFC210C0EFB1C3341EA03411F
:100E100008FB0CF38B4207D979180CF1FF3002D292
:100E20008B4200F2E9808446C91AA3B2B1FBFEF0FE
:100E30000EFB101143EA014408FB00F8A04507D956
:100E40003C1900F1FF3302D2A04500F2D9801846C8
:100E5000A4EB080440EA0C40BFE78B4209D9002DFF
:100E600000F0B1800026C5E9000130463146BDE8FA
:100E7000F087B3FA83F6002E4AD18B4202D3824226
:100E800000F2B880841A61EB030101208C46002D2A
:100E9000A8D0C5E9004CA5E7C2F1200320FA03F66B
:100EA000974001FA02F04FEA174ED9403043030C45
:100EB000B1FBFEF61FFA87F80EFB161143EA014359
:100EC00006FB08F1994204FA02F409D9FB1806F16D
:100ED000FF3C80F08D80994240F28A80023E3B4484
:100EE0005B1A81B2B3FBFEF00EFB103341EA034103
:100EF00000FB08F38B4207D9791800F1FF3C73D24D
:100F00008B4271D902383944CB1A40EA064678E759
:100F1000C6F1200C03FA06F422FA0CF31C4320FA63
:100F20000CF701FA06F34FEA144E21FA0CF11F43B5
:100F30003B0CB1FBFEF91FFA84F80EFB191143EAD2
:100F4000014109FB08FA8A4502FA06F200FA06F3A3
:100F500008D9611809F1FF3048D28A4546D9A9F16C
:100F600002092144A1EB0A01BFB2B1FBFEF00EFB66
:100F7000101147EA014700FB08F8B84507D9E719FF
:100F800000F1FF312ED2B8452CD90238274440EA6F
:100F90000940A7EB0807A0FB02894F45C646494612
:100FA0001AD317D05DB1B3EB0E0267EB010707FA56
:100FB0000CFCF2404CEA0202F740C5E9002700268B
:100FC0003146BDE8F0872E4628460BE70646E9E69F
:100FD0001846FDE64345E5D2B8EB020E69EB040185
:100FE0000138DFE70846D2E760468DE78146B9E77A
:100FF000664675E730464AE7ACF1020C394413E720
:1010000002383C4424E700BF704700BFF02070471F
:101010004FF4A0707047292000F07ABA282000F021
:1010200077BA08B500F0FAF9CA2000F071FAC320C7
:1010300000F052FA082000F04FFA502000F04CFA6D
:10104000CF2000F065FA002000F046FAC12000F041
:1010500043FA302000F040FAED2000F059FA642005
:1010600000F03AFA032000F037FA122000F034FAC8
:10107000812000F031FAE82000F04AFA852000F0E3
:101080002BFA002000F028FA782000F025FACB2077
:1010900000F03EFA392000F01FFA2C2000F01CFA74
:1010A000002000F019FA342000F016FA022000F0B7
:1010B00013FAF72000F02CFA202000F00DFAEA20B5
:1010C00000F026FA002000F007FA002000F004FAF1
:1010D000B12000F01DFA002000F0FEF91B2000F006
:1010E000FBF9B62000F014FA0A2000F0F5F9A2206E
:1010F00000F0F2F9C02000F00BFA102000F0ECF93B
:10110000C12000F005FA102000F0E6F9C52000F03B
:10111000FFF9452000F0E0F9152000F0DDF9C720C7
:1011200000F0F6F9902000F0D7F9362000F0F0F941
:10113000C82000F0D1F9F22000F0EAF9002000F018
:10114000CBF9B02000F0E4F9C22000F0C5F9B620D8
:1011500000F0DEF90A2000F0BFF9A72000F0BCF98A
:10116000272000F0B9F9042000F0B6F92A2000F099
:10117000CFF9002000F0B0F9002000F0ADF9002018
:1011800000F0AAF9EF2000F0A7F92B2000F0C0F939
:10119000002000F0A1F9002000F09EF9012000F0ED
:1011A0009BF93F2000F098F9F62000F0B1F90120FA
:1011B00000F092F9002000F08FF9062000F08CF981
:1011C0002C2000F0A5F9C82000F0F4F9262000F04A
:1011D0009FF9012000F080F9E02000F099F90F203C
:1011E00000F07AF9292000F077F9242000F074F952
:1011F0000C2000F071F90E2000F06EF9092000F0CB
:101200006BF94E2000F068F9782000F065F93C2079
:1012100000F062F9092000F05FF9132000F05CF99A
:10122000052000F059F9172000F056F9112000F0C0
:1012300053F9002000F050F9E12000F069F9002096
:1012400000F04AF9162000F047F91B2000F044F99D
:10125000042000F041F9112000F03EF9072000F0D1
:101260003BF9312000F038F9332000F035F9422005
:1012700000F032F9052000F02FF90C2000F02CF9D5
:101280000A2000F029F9282000F026F92F2000F08C
:1012900023F90F2000F020F9112000F039F9C820BF
:1012A00000F088F9292000F033F9BDE808402C202F
:1012B00000F02EB908B500F0B1F80321D32000F0FA
:1012C00043F980B208BD000010B5214C88B020461B
:1012D00002F0B2FB002838D11E4B23601823E361D3
:1012E0000723E3624FF40073C4E90400A3614FF4E1
:1012F00082736360184B0190A060A062E06020627E
:1013000060625A6C42F480125A645A6C02F4801281
:101310000192019A02901A6B42F020021A631B6B31
:1013200003F020030293029B4FF460710223CDE986
:101330000313059301200523CDE9060303A90748FC
:1013400001F018F8204602F0CDF808B010BD00BF3B
:101350007C09002000500140003802400014024087
:1013600007B5094BADF806001B68084801220DF1CE
:10137000060102F029F920B1044802F00FF9FFF745
:10138000A3FF03B05DF804FB380000207C090020B7
:1013900010B586B050B9194B00901A6B42F001029B
:1013A0001A631B6B03F001030093009B71B90123C7
:1013B000CDE901310223CDE90333114B03EB80006A
:1013C00001A9C06800F0D6FF06B010BD0129FBD10D
:1013D00000244FF48813CDE90234094B019103EB4B
:1013E000800001A9C06800F0C5FF22460F21062039
:1013F00000F062FD062000F091FDE5E700380240B4
:101400003800002008B5044B03EB80000121C068C0
:1014100001F038F908BD00BF38000020F0B52A4BB4
:1014200093F8585089B0002D4BD1284C00950126D7
:1014300083F85860236B264843F008032363236B2B
:10144000059503F0080300930227009B06974FF4CD
:10145000005303A9CDE9033600F08CFF0195236BFF
:101460001B4843F008032363236B03F00803019335
:10147000019B03A94FF48053CDE90336CDE905570D
:1014800000F078FF0295236B124843F004032363B6
:10149000236B03F004030424029303A9029BCDE908
:1014A0000346CDE9055700F065FF0A482A46214664
:1014B00001F0EEF807483246214601F0E9F8FFF75F
:1014C00003FF09B0F0BD00BF7C09002000380240D6
:1014D000000C02400008024038B50B4D04460122C2
:1014E0000A484FF4005101F0D3F8002204212846A5
:1014F00001F0CEF82046FFF733FF28460122BDE871
:101500003840042101F0C4B800080240000C024039
:1015100038B50B4D044600220A484FF4005101F043
:10152000B7F800220421284601F0B2F82046FFF760
:1015300017FF28460122BDE83840042101F0A8B871
:1015400000080240000C024037B505460C4615481D
:101550000022042101F09CF800224FF400511248AF
:1015600001F096F82846FFF7FBFE104B10481B6869
:10157000224601A902F0C4F920B10D4802F00EF88C
:10158000FFF7A2FE0848019C01224FF4005101F030
:101590007FF804480122042101F07AF8204603B0C4
:1015A00030BD00BF00080240000C0240380000209F
:1015B0007C09002000F05ABC2DE9F743154CDDF8FA
:1015C0002C9016461F464FF440320023C4E90123F5
:1015D0000A9BE3608046104B236020460D4600F0D6
:1015E000BDFD98B94146204600F080FE70B90097D5
:1015F00033462A464946204600F0DCFD30B90A2130
:10160000204603B0BDE8F04300F0EEBD03B0BDE8F6
:10161000F08300BFD809002000B0024008B5024B9B
:101620001B689B6A984708BDC0B2002008B5024BF2
:101630001B68DB6A984708BDC0B2002070B58EB049
:1016400000250E4604460195FFF7E8FFCDE90205A7
:10165000FFF7ECFFFF23CDE906354FF4C062072307
:10166000CDE90823CDE90405ADF834508DF83650A6
:101670000A96FFF7D3FF0B90FFF7D8FF0B4D0C90A6
:10168000224601A9284601F0E1F909480C2202FB93
:1016900004004FF0FF334364064B83644FF07F43F5
:1016A0000364284601F034FA0EB070BD18B2002071
:1016B000D80900204C000020014B9865704700BFFE
:1016C000D8090020084B1A68C00102F184030129DF
:1016D000C1580CBF41F0010121F00101C150536A12
:1016E00043F001035362704718B2002038B5064D2D
:1016F00004460246284601F0D6F921462846BDE8B0
:10170000384001F0EDB900BF18B20020034A936DD4
:101710000C2101FB03231864704700BFD809002087
:10172000034A936D0C2101FB03235864704700BFEB
:10173000D8090020034A936D0C2101FB0323986410
:10174000704700BFD809002030B50D4B0D4A9D6D84
:10175000342303FB052385B0D96D03910446FFF7BD
:101760005DFF0290FFF762FF034600200090DDE975
:10177000022101942846FFF71FFF05B030BD00BFCE
:10178000D809002018B200202DE9FF47124D03931D
:1017900016460C46AA6D11498146342000FB021200
:1017A000D2F85C80FFF73AFFAF6D8246FFF736FF55
:1017B000AA6D039B0C2101FB0255801B2A6C019230
:1017C0000AFB04940090324608EB84013846FFF788
:1017D000F3FE04B0BDE8F087D809002018B200205D
:1017E000024B1B689B6803B118477047C0B20020CA
:1017F00030B58FB0494B4A4D4A484B4C00220192BC
:10180000596C41F080615964596C01F0806101911B
:1018100001990292196B41F400011963196B01F4EB
:101820000001029102990392196B41F001011963C1
:10183000196B01F00101039103990492196B41F0B6
:1018400002011963196B01F00201049104990592D8
:10185000196B41F004011963196B01F00401059142
:1018600005990692196B41F008011963196B01F093
:101870000801069106990792196B41F0200119633E
:10188000196B01F02001079107990892196B41F03B
:10189000400119631B6B03F040030893089B41F65A
:1018A00058010223CDE90B23CDE909130E2309A921
:1018B0000D9300F05FFD4FF4706309A9284609936A
:1018C00000F058FD4FF4986309A91848099300F0F7
:1018D00051FD482309A91648099300F04BFD4FF428
:1018E000806309A91348099300F044FD4FF40C6389
:1018F00009A92046099300F03DFD0323099309A996
:10190000092328460D9300F035FD4FF4A05309A993
:101910002046099300F02EFD0FB030BD0038024084
:10192000000402400000024000180240000802408B
:10193000000C02400014024070B5214C214B236082
:1019400009210123C4E905131D200323C4E907036A
:1019500040F20D1540F24313C4E9095340F2171643
:1019600040F24713C4E90B63174E0823F365C02305
:10197000F36604230025736706F15C004FF400331F
:10198000C6F88030A58684F8365001F08DFBC4E996
:101990000155C4E90355FFF72BFF204600F0EAFF8D
:1019A0000A4A0B4B13601B68984700F0F5F9B36DBA
:1019B0000C2202FB0366074BB364284670BD00BFD0
:1019C00018B2002000680140D8090020C0B20020F1
:1019D000000000204C000020F8B5084B15469B6D18
:1019E000074A0C46342101FB03230646DF6DFFF74F
:1019F00015FE00FB046047F82050F8BDD809002010
:101A000018B200202DE9F04F2F4F87B0BB6DCDE904
:101A100001010C2101FB0373A2F12005996CB1F8BF
:101A200004B0B1F806A00A680BF10706F610CBEB7C
:101A3000C600C3B200930AFB05F50BF1FF3306FBAA
:101A400005254FF000090493029BD14503EB0901E2
:101A500089B202D307B0BDE8F08F012E2C7804D0F4
:101A6000022E0ED12C8864BAA4B2049B009A1344AF
:101A70004FF000080393C3450AD809F10109354422
:101A8000E2E76A78240444EA0224AA781443ECE7E3
:101A9000019BBA6D059103EB0800039B4FF0010C0D
:101AA000A3EB080E0CFA0EFC1CEA040F4FF00C0C12
:101AB0000CFB027280B214BF126C526CFFF78CFFE9
:101AC00008F101080599D6E7D80900202DE9F0476B
:101AD000994606468846154613461C4613F8012BC0
:101AE000002AFAD1234FFFF799FDBB6D0C2202FBB0
:101AF0000373B9F1010F9B6C9A88B0FBF2F01BD015
:101B0000B9F1020F1FD0013D4FF000094FF00C0A50
:101B100015F8014F003C18BF0124FFF77FFDBB6D96
:101B20000AFB03739B6C9B8803FB190080B29842ED
:101B300000D36CB9BDE8F0872C1B2044504306EB62
:101B4000500086B2DFE72C1B044414FB0260F8E768
:101B500030462A784146FFF755FFBB6D0AFB0373F9
:101B600009F101099B6C9888304486B21FFA89F903
:101B7000CEE700BFD80900202DE9F347214C04F13E
:101B8000100501264FF000080827214681464FF630
:101B9000FF722846C4E90067C4E90268CDF80480F2
:101BA00001F0CCFB304600F061F9022321464FF6EC
:101BB000FF722846C4E900374FF0040AC4E90268FE
:101BC00001F0BCFB032321464FF6FF722846C4E90F
:101BD0000037C4E902A801F0B1FB4FF40C73019384
:101BE000019BA66021464FF6FF722846C4E900A774
:101BF000E36001F0A3FB4946284602B0BDE8F04788
:101C000001F0B3BB640A002070B506468EB0002810
:101C100000F0AD80574B5848002401949A6B42F075
:101C200001029A639A6B02F001020192019A0294F6
:101C30001A6B42F480021A631A6B02F48002029259
:101C4000029A03941A6B42F002021A631A6B02F0B2
:101C500002020392039A04941A6B42F004021A637C
:101C60001A6B02F004020492049A05941A6B42F073
:101C700008021A631A6B02F008020592059A06948C
:101C80001A6B42F010021A631A6B02F010020692ED
:101C9000069A07941A6B42F020021A631A6B02F03C
:101CA00020020792079A08941A6B42F040021A63C6
:101CB0001B6B03F040030893089B0223CDE90B4301
:101CC0000A930C230D9309A96023099300F052FB9A
:101CD00001232A48099309A900F04CFB4CF2037335
:101CE0002748099309A900F045FB4FF6837325485F
:101CF000099309A900F03EFB4FF63F0322480993E0
:101D000009A900F037FB48F233132048099309A9C9
:101D100000F030FB1E4B80214FF40072C3E9131218
:101D20004FF480604FF48052C3E915024FF48042B3
:101D3000C3E917244FF400321D46C3E919240322D6
:101D4000C3E91B24134A45F8442F5C6728463563D2
:101D50009C64DE6700F096F9284600F013F93820FD
:101D600022460F2100F0A8F8382000F0D7F80EB076
:101D700070BD00BF0038024000040240000802406D
:101D8000000C024000100240001402400018024003
:101D9000640A00201064024010B51B4C1B4B2361E9
:101DA000042202230721C4E92B21C4E92931C4E913
:101DB0002D330021C4F8BC300123C4E905311020C3
:101DC0004023C4E908034FF4C073C4E90A314FF457
:101DD0000063C4E90C3104F110004FF40053E261D8
:101DE000A363FFF711FF04F1A401A1F1940001F036
:101DF00085FA074C003818BF0120207040F26A5065
:101E0000FFF7BAFE207810BD640A0020400100A050
:101E10007400002008B50B4B1A6842F400721A6077
:101E20001A6842F480621A601A6842F480721A607A
:101E3000032000F02FF8002003F046F803F028F804
:101E4000002008BD003C0240034A044B11681B7887
:101E50000B441360704700BFC4B20020780000201C
:101E6000014B1868704700BFC4B2002038B5044663
:101E7000FFF7F6FF631C1CBF054B1B78054618BF18
:101E8000E418FFF7EDFF431BA342FAD338BD00BFB0
:101E9000780000200749CA6822F4E06203021204B5
:101EA00003F4E063120C134343F0BF6343F40033C5
:101EB000CB60704700ED00E0164B30B5DC68C4F332
:101EC0000224C4F10705231D042D28BF0425062B79
:101ED0004FF0FF338CBF033C002403FA05F521EAE1
:101EE0000501A34022EA0302A140002841EA0203BF
:101EF000ACBF00F16040084A4FEA0313B8BF00F0DE
:101F00000F00DBB2AABF00F56140135480F8003324
:101F100030BD00BF00ED00E014ED00E0002808DB5C
:101F20004209012300F01F0003FA00F0014B43F8BF
:101F30002200704700E100E010B5044650B143793B
:101F400003F0FF0213B9027102F00EF9012363716D
:101F5000002010BD0120FCE7036810B5084C0246C4
:101F6000D9B210391820B1FBF0F0205CD06523F411
:101F70007F7020F003005F2988BF0430906510BD9A
:101F80007C09010870B50446FFF76AFF0546002C7E
:101F900073D0022384F835302268002384F834306B
:101FA000136823F00103136021680B68D8072FD44E
:101FB0000B68334DA0691D40D4E901231343E26847
:101FC00013432269134362691343E26903431343D2
:101FD000226A1343626A042A43EA050302BFD4E972
:101FE0000B5635432B430B604B69042A23F0070340
:101FF00043EA020333D1A26AE56A13437DB390B981
:10200000012A21D032F0020229D1EA0127D51EE0AF
:10201000FFF726FF401B0528C6D920236365032050
:1020200084F8350070BDB0F5005F14D1032A16D8CE
:1020300001A050F822F000BF4F2000080B2000083C
:102040004F20000849200008B5F1C07F07D1402388
:1020500063650120E4E7022AF9D9032AD5D04B6150
:102060002046FFF779FFE26D3F2393408360002015
:102070000123606584F83530D4E70120D2E700BF42
:102080003F8010F038B5054620B390F83530022B6C
:10209000DCB21DD003681A6822F0010200241A6025
:1020A00021221C605C609C60DC601C615A61FFF74F
:1020B00053FFEA6D3F239340C5E90F44C5E911443E
:1020C000C5E9134483606C6585F8344085F8354074
:1020D000204638BD0124FBE770B50468049D666C9A
:1020E00045EA034306F04046334363644368E263D2
:1020F000B3F5403F30D186681EB1012E03D121F0E7
:102100007F41A16370BD022E01F47F0301F47F457E
:10211000C8B207D1DB0CAD0ADB0243EA451343EA40
:10212000D001EEE7032E01F07F420AD1DB0CED0A6D
:102130009B0243EA451343EAD003D10F43EAC1317E
:10214000DFE7190D2D0B090241EA051141EA1011D3
:10215000130F41EA0331D4E7E160D3E710B5044639
:1021600030B390F8393003F0FF021BB980F8382003
:1021700002F032F822686168022384F8393013686B
:1021800023F440330B431360536BA16823F0070320
:102190000B435363136CE16823F47F5323F03F0335
:1021A0000B43136400200123E06384F8393010BD31
:1021B0000120FCE773B590F83850012D04464FF02C
:1021C00002050FD080F839500126069D80F838604E
:1021D0000095FFF781FF22681368334313600020E6
:1021E00002B070BD2846FBE773B500230193036876
:1021F0001B68DB0704460D4617D42268D369526A70
:1022000013439E0606D5FFF72BFE064623685A6841
:10221000D20643D5236812229A600020012384F855
:10222000393084F8380002B070BDFFF719FE064659
:1022300023685A689207E0D45A680192019A12F012
:10224000210F17D0019A950642BFE26B42F00202BD
:10225000E263019AD00742BFE26B42F00102E263FF
:1022600021229A60042384F83930002384F838301E
:102270000120D8E7691CDCD0FFF7F2FD801BA842E3
:1022800001D8002DD4D1E36B43F02003E363032096
:10229000002384F8390084F83830C4E75A68019282
:1022A000019A12F0290F16D0019A160742BFE26B6D
:1022B00042F00402E263019A950642BFE26B42F0EB
:1022C0000202E263019AD00742BFE26B42F00102D0
:1022D000E2632922C5E7691C99D0FFF7C1FD801B85
:1022E000A842D0D8002D91D1CDE70000F0B590F8EC
:1022F0003830012B4FF002032BD0012280F8393007
:1023000080F8382000EB0113D3E907425D6A184FCB
:1023100044EA0242093C012C9CBF05F07F431A436A
:102320004FEA0116036888BF42EA056299B9596A03
:1023300039400A435A62012C82699A6103D8426A81
:1023400022F07F429A62012380F83930002380F81E
:1023500038301846F0BDD96939400A43DA6182192C
:10236000012C92691A619CBF25F07F451D62EAE746
:10237000F0FFFC002DE9F74FDFF8C0916D4A002314
:102380000D6801249C4004EA050CAC4340F0B98080
:102390004D6805F003044FEA43080326671E06FA5A
:1023A00008F6012F6FEA060634D8876807EA060E9A
:1023B000CF6807FA08F747EA0E078760476827EAF9
:1023C0000C0EC5F300179F4047EA0E074760C76829
:1023D00007EA060E8F6807FA08F747EA0E07022C8D
:1023E000C76019D14FEAD30A00EB8A0A03F0070B42
:1023F000DAF820704FEA8B0B4FF00F0E0EFA0BFE3F
:1024000027EA0E0E0F6907FA0BF747EA0E07CAF81C
:10241000207001E0032CDAD1076804FA08F43E408A
:10242000264315F4403F06606BD04FF0000ACDF80C
:1024300004A0D9F84460404C46F48046C9F8446092
:10244000D9F8446006F480460196019E23F0030605
:1024500006F1804606F59C3603F0030ED6F8088098
:102460004FEA8E0E0F2707FA0EF7A04228EA070759
:102470004ED004F58064A0424CD004F58064A042A4
:102480004AD004F58064A04248D004F58064A0429C
:1024900046D004F58064A04244D004F58064A04294
:1024A00042D004F58064A04240D004F58064A0428C
:1024B0003ED004F58064A0420CBF09240A2404FA2B
:1024C0000EF43C43B46014686FEA0C06EF0354BF8B
:1024D00034404CEA040414605468AF0354BF3440E1
:1024E0004CEA040454609468EF0254BF34404CEA50
:1024F00004049460D468AD0254BF34404CEA040430
:10250000D4600133102B7FF43BAF03B0BDE8F08FF4
:102510005446D4E70124D2E70224D0E70324CEE7CF
:102520000424CCE70524CAE70624C8E70724C6E745
:102530000824C4E7003C014000000240003802408B
:102540002DE9F04F4A4CDFF83091DFF830A1DFF889
:1025500030B10022012303FA02FE3EEA01030EEA33
:1025600001076ED122F0030505F1804505F59C3584
:10257000404BD5F8088002F0030C4FEA8C0C0F2674
:1025800006FA0CF6984206EA08085FD003F5806365
:1025900098425DD003F5806398425BD003F5806379
:1025A000984259D003F58063984257D0484557D098
:1025B000504557D0584557D003F58053984255D0D1
:1025C00003F5806398420CBF09230A2303FA0CF336
:1025D000434513D1236823EA07032360636823EA92
:1025E00007036360A36823EA0703A360E36823EAA1
:1025F0000707E760AB6823EA0606AE6005680326B6
:10260000530006FA03F325EA0305056022FA06F5EE
:1026100000EB850502F0070C2E6A4FEA8C0C0F27A1
:1026200007FA0CF726EA07072F62C56825EA0305B3
:10263000C560456825EA0E054560856825EA0303FF
:1026400083600132102A85D1BDE8F08F0023BDE7F9
:102650000123BBE70223B9E70323B7E70423B5E768
:102660000523B3E70623B1E70723AFE70823ADE768
:10267000003C0140000002400014024000180240EB
:10268000001C02400369194214BF0120002070475A
:102690000AB1816170470904FBE7000070B5044688
:1026A00008B9012070BD90F83D3003F0FF021BB95E
:1026B00080F83C2001F058FF242384F83D30236843
:1026C0001A6822F001021A601A6842F400421A6085
:1026D0001A6822F400421A6000F0A8FC3F4A6368BE
:1026E000934294BF3E4A3F4A90428CBF002201224F
:1026F000002AD6D121683C4E4A68B0FBF6F622F09B
:102700003F0232434A60354A0D6A934284BF4FF418
:102710009672724325F03F0591BF721C4FF47A7692
:10272000B2FBF6F201322A430A62CD69421E2B48FF
:1027300025F44F45834225F0FF0532D85B00B2FBFC
:10274000F3F340F6FC720133134242D0C3F30B03A0
:102750002B43CB61D4E907300A68034322F0C0025F
:1027600013430B608A68D4E9030322F40342034352
:1027700022F0FF0213438B60D4E90530CA6803439B
:1027800022F0FF021343CB600B6843F001030B60A0
:1027900000202023206484F83D30206384F83E002C
:1027A00080E7A06850B903EB4303B2FBF3F30133B6
:1027B000C3F30B037BB143F40043C9E71920434340
:1027C000B2FBF3F30133C3F30B0323B143F44043F0
:1027D000BEE70423BCE70123BAE700BFA0860100DF
:1027E0007F841E00FF083D0040420F0010B590F8A6
:1027F0003D30202BDCB216D1242380F83D30036815
:102800001A6822F001021A605A6A22F010025A6213
:102810005A6A114359621A6842F001021A6080F83C
:102820003D40002010BD0220FCE730B590F83D305F
:10283000202BDCB216D10268242380F83D301368C7
:1028400023F001031360556A4FF6F0732B401943D0
:1028500089B25162136843F00103136080F83D4070
:10286000002030BD0220FCE72DE9F043D2010468CE
:102870004F68E568D1F800C0D1F818908432A318E9
:102880000CF10106586800F470405860E068C5F328
:102890000B45C0F30B4030443D4440EA05405860CE
:1028A000E068CD68C0F30A000544986800F4704001
:1028B0009860E6688868C6F30A060130304440EA4A
:1028C0000540986018690E6920F0070018614FF004
:1028D000000E1E619D6991F8320091F83180C3F8B5
:1028E00018E091F8305045EA096545EA082545EABF
:1028F00000459D61586920F0FF00586148695861A2
:10290000D86920F4E06020F00700D861D1E90750D1
:102910000543DD61986A486AC3F828E098621EB3EF
:10292000012E23D0B01E022822D9072E0CBF022070
:102930000120DD6A05F0E025DD628D6AC96AA7EB3A
:102940000C0745437843033040EA0540D862186BD2
:1029500020F4FF6020F0070018631963A35843F0C8
:102960000103A350BDE8F0830420E2E70320E0E781
:102970000220DEE738B50446002863D090F8A13085
:1029800003F0FF021BB980F8A02001F095FE02239E
:1029900084F8A13023689A6922F070429A61D4E9E0
:1029A00001200243E06899690243206902430A4317
:1029B0009A619A68244960690A409A609A6842EA72
:1029C0000042A06902439A60DA68E0690A40DA606E
:1029D000DA6842EA0042206A0243DA601A69606AF1
:1029E0000A401A611A6942EA0042A06A02431A6167
:1029F0005A69114059615A69E16A42EA0142216B00
:102A00000A435A61D96A94F8360094F8355001F0B7
:102A10007F41D962D96A94F834200A4342EA0522F8
:102A200042EA0042DA625A6B42F006025A639A693D
:102A300042F001029A6100200123C4F8A40084F846
:102A4000A13038BD0120FCE700F800F02DE9F0418D
:102A500090F8A030012B06460F4694464FF0020036
:102A60001FD04FF0010886F8A08086F8A10034241A
:102A70000D4604FB02640FCD38340FC40FCD0FC4D4
:102A80000FCD0FC42B682360304662463946FFF7EE
:102A9000EBFE33680020C3F8248086F8A18086F816
:102AA000A000BDE8F08110B590F8A030012B4FF0E8
:102AB000020313D0046880F8A13004EBC212D2F8EC
:102AC000903003F07F43C2F890300123C2F8901099
:102AD000636280F8A130002380F8A030184610BD52
:102AE00090F8A030012B4FF002030FD0C90180F8FD
:102AF000A130843103685A5842F002025A50012230
:102B00005A62002380F8A12080F8A0301846704750
:102B100090F8A030012B4FF002030CD0074A80F848
:102B2000A130936943F480339361012380F8A1308D
:102B3000002380F8A0301846704700BF00680140AD
:102B40002DE9F341044640B30368DD0710D4236840
:102B500098075ED423681A0700F1A08023685B07FA
:102B600000F1BE80A069002840F01F8100202BE00A
:102B7000A64B9A6802F00C02042A07D09A6802F069
:102B80000C02082A0BD15A68510208D59F4B1B68CA
:102B90009A03DCD56368002BD9D1012014E0626868
:102BA000B2F5803F13D11A6842F480321A60FFF701
:102BB00057F9964E054633689B03C8D4FFF750F982
:102BC000401B6428F7D9032002B0BDE8F0818F4D87
:102BD000B2F5A02F2B6807D143F480232B602B681C
:102BE00043F480332B60E2E723F480332B602B68BF
:102BF00023F480232B60002AD9D1FFF731F9064650
:102C00002B689F03A3D5FFF72BF9801B6428F7D906
:102C1000D9E77E4B9A6812F00C0F07D09A6802F041
:102C20000C02082A11D15B685E020ED4774B1A6839
:102C3000950702D5E268012AAFD11A68216922F00E
:102C4000F80242EAC1021A6084E7E268704BB2B14E
:102C500001221A60FFF704F96C4D06462B689807AD
:102C600007D52B68226923F0F80343EAC2032B60DF
:102C700070E7FFF7F5F8801B0228EFD9A3E71A6089
:102C8000FFF7EEF8614E0546336899077FF562AFAE
:102C9000FFF7E6F8401B0228F6D994E762695D4B1E
:102CA0007AB101221A60FFF7DBF8584E0546736FC0
:102CB0009F073FF553AFFFF7D3F8401B0228F6D923
:102CC00081E71A60FFF7CCF8504E0546736F9807FE
:102CD0007FF544AFFFF7C4F8401B0228F6D972E72E
:102CE0004A4B1A6C12F0805228D101921A6C42F0B1
:102CF00080521A641B6C03F080530193019B0127DF
:102D0000454D2B68D9051BD5A368404D012B27D114
:102D10002B6F43F001032B67FFF7A2F83B4E0546EC
:102D200041F28838336F9B0739D5002F3FF41AAF33
:102D3000364A136C23F08053136413E70027DFE750
:102D40002B6843F480732B60FFF78AF806462B68E4
:102D5000DA05D9D4FFF784F8801B0228F7D932E7C7
:102D6000052B04D12B6F43F004032B67D0E72A6FA8
:102D700022F001022A672A6F22F004022A67002B40
:102D8000CAD1FFF76DF841F2883806462B6F9807D5
:102D9000CBD5FFF765F8801B4045F7D913E7FFF760
:102DA0005FF8401B4045BDD90DE7184DAB6803F0F7
:102DB0000C03082B47D0194E00230228336035D16D
:102DC000FFF74EF807462B68990129D4D4E907325A
:102DD0001343626A43EA8213E26A43EA0263A26A25
:102DE0005208013A43EA02436B6001233360FFF764
:102DF00037F8064D04462B689A013FF5B7AEFFF74A
:102E00002FF8001B0228F6D9DDE600BF003802408B
:102E100000004742800E4742007000406000474279
:102E2000FFF71EF8C01B0228CDD9CCE6FFF718F833
:102E300004462B689B017FF599AEFFF711F8001B44
:102E40000228F6D9BFE601283FF4BEAE6B68E269FE
:102E500003F4800191427FF4A0AE216A03F03F02A7
:102E60008A427FF49AAE616A47F6C0721A40B2EBAA
:102E7000811F7FF492AEA26A520803F44031013AF6
:102E8000B1EB024F7FF489AEE26A03F07063B3EBFB
:102E9000026F3FF46BAE80E6134908B58B6803F010
:102EA0000C03042B1CD0082B1CD14A684B684968C2
:102EB00013F4800314BF0D480D48C1F3881118BFE7
:102EC000002302F03F02A1FB0001FDF7EDFE064BDF
:102ED0005B68C3F3014301335B00B0FBF3F008BD53
:102EE0000248FCE70248FAE70038024000127A0084
:102EF0000024F4002DE9F0410D46044610B90120EC
:102F0000BDE8F081444B1A6802F00F028A4228D3D0
:102F1000226897072DD4D00741D43F4B1A6802F09E
:102F20000F02AA4266D8226851076CD4130707D54E
:102F30003A4A2169936823F4604343EAC1039360EA
:102F4000FFF7AAFF354B364A9B68C3F30313D35CE4
:102F5000D840344B1860344B186801F0B5FF00209E
:102F6000CEE7CAB21A701B6803F00F038B42C6D1BA
:102F7000CEE72A4B12F0040F1EBF996841F4E051CE
:102F80009960160742BF996841F4604199602349EE
:102F9000A0688B6823F0F00303438B60BBE7626893
:102FA0001E4B012A1CD11B6813F4003FA7D01B4EF7
:102FB000B36823F003031343B360FEF751FF41F2FC
:102FC00088380746B368626803F00C03B3EB820FDE
:102FD000A3D0FEF745FFC01B4045F3D903208FE780
:102FE000911E01291B6802D813F0007FDEE713F061
:102FF000020FDBE7EAB21A701B6803F00F03AB4263
:103000007FF47DAF8FE70549E0688B6823F4E053D8
:1030100003438B608AE700BF003C02400038024057
:1030200048390208740700207C000020044B054A40
:103030009B68C3F38223D35C034A1068D84070476F
:10304000003802405839020874070020044B054A32
:103050009B68C3F34233D35C034A1068D84070477F
:103060000038024058390208740700200F2303601B
:103070000B4B9A6802F0030242609A6802F0F00279
:1030800082609A6802F4E052C2609B68DB0803F435
:10309000E0530361034B1B6803F00F030B607047A1
:1030A00000380240003C0240036813F0430FF7B5BC
:1030B000044640F08A80236813F00C0F44D0894DF9
:1030C000894E00232B60FEF7CBFE074633689B003A
:1030D00000F1CC8021684F0715D5D4E90403D6F858
:1030E00088201B0602F0E04243EA80131343C6F82F
:1030F0008830D6F88C30226A23F4F853013A43EA38
:103100000223C6F88C300E0714D5774AA369D2F88B
:10311000881020691B0701F0706143EA80130B439C
:10312000C2F88830D2F88C30616A23F440330B4304
:10313000C2F88C3001232B60FEF792FE6A4E0546E2
:103140003368980040F1998023689A0633D50023AC
:103150000193654B654D1A6C42F080521A641B6CEA
:1031600003F080530193019B2B6843F480732B6021
:10317000FEF776FE06462B68D90540F185805A4D4C
:103180002B6F13F4407340F08680A36A03F44072FF
:10319000B2F5407F544A40F0A080916823F070401F
:1031A00021F4F81120F4407001439160116FC3F3D2
:1031B0000B030B431367206810F010001FBF4C4B2C
:1031C00094F82C201A6000204EE04A4D464F002310
:1031D0002B60FEF745FE06463B681A013ED4216887
:1031E000CB0741BFD4E901231B0743EA8213C7F889
:1031F00084308E0715D53C4AE368D2F884006668AF
:103200001B0600F0E04043EA86130343C2F8843013
:10321000D2F88C00E36920F01F00013B0343C2F8A1
:103220008C3048060AD5E36862681B0643EA8213BD
:10323000A26843EA02732C4AC2F8843001232B604F
:10324000FEF70EFE284E0546336819013FF533AFF1
:10325000FEF706FE401B0228F6D904E0FEF700FE4A
:10326000801B0228B8D9032003B0F0BDFEF7F8FD9B
:10327000C01B02287FF62AAFF5E7FEF7F1FD401BE1
:1032800002287FF65DAFEEE7FEF7EAFD801B02281D
:103290007FF671AFE7E7A26A02F4407293423FF40F
:1032A00074AF2B6F144A0121116023F44073002185
:1032B00011602B672B6FDA077FF567AFFEF7D0FD44
:1032C00041F2883706462B6F9B073FF55EAFFEF74E
:1032D000C7FD801BB842F6D9C5E7916821F4F81103
:1032E00063E700BF700047420038024000700040B2
:1032F000E011474268004742400E474238B50D464C
:103300000446C8B190F82C3003F0FF021BB980F8D6
:103310002D2000F0ABFF022384F82C30211D206803
:1033200000F072FE62682068294600F0A3FE0123C7
:1033300084F82C30002038BD0120FCE738B590F827
:103340002C30022B04460D46D8B20DD0022384F84F
:103350002C30206800F0CAFE2B68022B0CBF05231E
:10336000012384F82C30002038BD10B590F82C30A3
:10337000022B0446D8B209D0022384F82C302068EE
:1033800000F0DBFE012384F82C30002010BD00008B
:103390002DE9F3411D46174688460646FEF760FDB7
:1033A0003D442C1AFEF75CFD224B1B68C3F3CB3364
:1033B0000546634332680193936838EA030301D0FA
:1033C00000202DE07B1CF7D0FEF74AFD401BA042F9
:1033D00029D333685A6822F0E0025A607268B2F565
:1033E000827F0AD1B268B2F5004F02D0B2F5806F89
:1033F00003D11A6822F040021A60B26AB2F5005F87
:1034000007D11A6822F400521A601A6842F4005276
:103410001A60012386F85130002386F850300320CB
:1034200002B0BDE8F081019B002B019B08BF002486
:10343000013BBFE77407002038B513464268B2F578
:10344000827F04461FD18268B2F5004F02D0B2F5E8
:10345000806F07D125682868B2F5806F20F04000A2
:10346000286007D00A4680212046FFF791FF20B947
:10347000002038BD0A460121F6E7636D43F02003C2
:1034800063650320F5E70A460121EEE737B51346E9
:10349000124A134D1268B2FBF5F54FF47A726A4383
:1034A00001924268B2F5827F04460BD10A46802120
:1034B000FFF76EFF78B1636D43F02003636503206F
:1034C00003B030BD019B33B1019B013B01932368E5
:1034D0009B681B06F6D40020F2E700BF74070020AB
:1034E00000366E0110B50446002855D0436A002B03
:1034F0004ED14268B2F5827F00D0C3610023A3623F
:1035000094F8513003F0FF0223B984F8502020468C
:1035100001F072FC2168A068A269022384F851308E
:103520000B6823F040030B60636800F4044003F46D
:1035300082730343E06800F400600343206900F0F5
:1035400002000343606900F00100034302F40070CD
:103550000343E06900F038000343206A00F0800074
:103560000343A06A00F4005003430B60636A120C2B
:1035700003F0100302F004021A434A60CB6923F4FB
:103580000063CB6100200123606584F8513010BDD9
:103590000023C0E90433B1E70120F8E710B5044681
:1035A00080B10268022380F85130136823F0400391
:1035B000136001F057FC0020606584F8500084F827
:1035C000510010BD0120FCE72DE9F7431F4690F89C
:1035D0005030012B04460D46904600F0A080012398
:1035E00080F85030FEF73CFC94F85130012B8146B6
:1035F000D8B240F09280002D61D0B8F1000F5ED0BB
:10360000032384F8513000236365C4E91033A4F820
:103610003680A363A387E387A36826682563B3F591
:10362000004FA4F8348007D1336823F0400333609F
:10363000336843F4804333603368E2685B065EBFFF
:10364000336843F040033360B2F5006F63683FD1E5
:1036500013B1B8F1010F07D135F8023BF3602563D0
:10366000E38E013B9BB2E386E38E9BB2A3B94A464D
:1036700039462046FFF70AFF00284BD1A36833B92B
:1036800001932368DA6801929B680193019B606D46
:10369000003818BF012012E022689368980705D50A
:1036A000236B33F8021BD1602363D9E7FEF7D8FB05
:1036B000A0EB0900B842D7D3791CD5D00320012351
:1036C00084F85130002384F8503003B0BDE8F08313
:1036D00013B1B8F1010F08D12B783373236B013389
:1036E0002363E38E013B9BB2E386E38E9BB2002B08
:1036F000BDD023689A68920703D5226B12781A739B
:10370000ECE7FEF7ADFBA0EB0900B842EDD37B1C64
:10371000EBD0D3E720236365B0E70220CFE7022098
:10372000D3E72DE9F7431E4690F85030DDF82880A6
:10373000012B04460D46914600F0E080012380F8FD
:103740005030FEF78DFB94F851306268012B07462C
:10375000D9B20AD0B2F5827F40F0CE80A368002BA8
:1037600040F0CA80042940F0C780002D3FD0B9F155
:10377000000F3CD0002E3AD094F85130C4F8389065
:10378000042B1CBF052384F8513000236365C4E972
:1037900010332368E687E6861968A687490658BF6E
:1037A0001968256358BF41F04001A68658BF1960CB
:1037B000E168B1F5006F51D10AB1012E07D135F89A
:1037C000022BDA60E38E2563013B9BB2E386012581
:1037D000E38E9BB26BB9E38F9BB253B93A46414635
:1037E0002046FFF753FE00287BD02023636501208D
:1037F0002BE021688B689A070DD5E38E9BB253B1FD
:103800004DB1236B33F8022BCA602363E38E013B77
:103810009BB2E38600258A6812F001020CD0E38F88
:103820009BB24BB1A36BC96823F8021BA363E38F60
:10383000013B9BB2E3871546FEF712FBC01B4045D8
:10384000C6D3B8F1FF3FC3D00320012384F8513021
:10385000002384F8503003B0BDE8F0830AB1012E94
:1038600008D12A781A73236B01332363E38E013B5B
:103870009BB2E3860125E38E9BB21BB9E38F9BB21B
:10388000002BABD0226893689B070ED5E38E9BB2CA
:103890005BB155B1236B1B781373236B0133236327
:1038A000E38E013B9BB2E38600252268916811F00C
:1038B00001010DD0E38F9BB253B1A36BD2681A7094
:1038C000A36B0133A363E38F013B9BB2E3870D46F8
:1038D000FEF7C6FAC01B4045CDD3B8F1FF3FCAD0B2
:1038E000B2E7A368002BB0D123680190DA68019297
:1038F0009B680193019BA8E70220A6E70220AAE7A4
:103900002DE9F3411D464368B3F5827F044688469E
:1039100016460CD1836853B9042380F851301346FE
:1039200000950A46FFF7FDFE02B0BDE8F08194F86D
:103930005030012B7ED0012384F85030FEF790FAEE
:1039400094F85130012B0746D8B271D1B8F1000F6D
:103950005CD0002E5AD0A268C4F83880042384F8C2
:103960005130B2F5004F4FF000036365C4E91033E6
:10397000E6872363A386E386A687236807D11A68B0
:1039800022F040021A601A6822F480421A601A6813
:1039900056065EBF1A6842F040021A60E368F3B14F
:1039A000E38F9BB2FBB123689A68D20735D5DA68FA
:1039B000A36B23F8022BA363E38F013B9BB2E38746
:1039C000EEE723689A68D00718D5A26B1B7B1370AB
:1039D000A36B0133A363E38F013B9BB2E387E38FC8
:1039E0009BB2002BEDD13A4629462046FFF724FD35
:1039F000D8B9606D003818BF012007E0FEF730FA33
:103A0000C01BA842EBD3691CE9D00320012384F832
:103A10005130002384F8503086E7FEF721FAC01BAE
:103A2000A842BDD36B1CBBD0EFE720236365E0E762
:103A30000220EBE7022077E790F851007047000082
:103A400090F83D30012B30D1022380F83D300368DF
:103A5000DA6842F00102DA60154A93421AD0B3F1F3
:103A6000804F17D0A2F57C42934213D002F58062BA
:103A700093420FD002F5806293420BD002F5784258
:103A8000934207D002F57052934203D0A2F59432CC
:103A9000934204D19A6802F00702062A03D01A68FA
:103AA00042F001021A60002070470120704700BFF9
:103AB00000000140704770477047704703681A69FB
:103AC000910710B504460ED5DA6892070BD56FF052
:103AD00002021A61012202779B699B0777D0FFF7E8
:103AE000EAFF0023237723681A69500710D5DA68A4
:103AF00051070DD56FF004021A61022222779B69EB
:103B000013F4407F204668D0FFF7D5FF00232377CA
:103B100023681A6912070FD5DA6810070CD56FF001
:103B200008021A6104222277DB69990720465AD0DD
:103B3000FFF7C1FF0023237723681A69D20610D547
:103B4000DA68D0060DD56FF010021A6108222277CC
:103B5000DB6913F4407F20464BD0FFF7ACFF002316
:103B6000237723681A69D10708D5DA68D20705D503
:103B70006FF001021A61204601F084F823681A6987
:103B8000100608D5DA68110605D56FF080021A61B3
:103B9000204600F0ACF923681A69520608D5DA68A5
:103BA000500605D56FF040021A612046FFF785FFE9
:103BB00023681A69910622D5DA6892061FD56FF03C
:103BC000200220461A61BDE8104000F08FB9FFF7CF
:103BD00071FF2046FFF770FF83E7FFF76BFF20467A
:103BE000FFF76AFF92E7FFF765FF2046FFF764FFE4
:103BF000A0E7FFF75FFF2046FFF75EFFAFE710BDCE
:103C0000304A0368904212D0B0F1804F0FD0A2F535
:103C10007C4290420BD002F58062904207D002F5C0
:103C20008062904203D002F57842904219D14A68EE
:103C300023F070031343234A904229D0B0F1804F00
:103C400026D0A2F57C42904222D002F580629042BA
:103C50001ED002F5806290421AD002F5784290425E
:103C600016D0194A904213D002F5806290420FD0CC
:103C700002F5806290420BD0A2F59832904207D0B4
:103C800002F58062904203D002F58062904203D137
:103C9000CA6823F4407313434A6923F08003134333
:103CA00003608B68C3620B688362064B984203D043
:103CB00003F58063984201D10B69036301234361DB
:103CC000704700BF000001400040014010B50446AD
:103CD00030B390F83D3003F0FF021BB980F83C2070
:103CE00001F080F90223206884F83D30211DFFF7A0
:103CF00087FF012384F84630002084F83E3084F8A2
:103D00003F3084F8403084F8413084F8423084F801
:103D1000433084F8443084F8453084F83D3010BD99
:103D20000120FCE710B58468114324F47F4441EA84
:103D300003232343836010BD70B590F83C30012B02
:103D400004464FF0020300F09180012280F83D30DC
:103D500080F83C200068836823F47F4323F07703D6
:103D600083600B68602B52D033D8402B67D016D8B5
:103D7000202B0DD00AD833F0100109D0012384F88C
:103D80003D30002384F83C30104670BD302BF5D117
:103D9000826822F07002134343F0070317E0502BB0
:103DA000ECD14A68CE68016A056A25F00105056212
:103DB000836921F00A0123F0F00343EA06130A4362
:103DC00083610262836823F0700343F057038360CA
:103DD00011E0B3F5805F0ED0B3F5005F0DD0702B0E
:103DE000CCD1CB68D1E90121FFF79CFF2268936811
:103DF00043F0770393600022C0E7CB68D1E901214B
:103E0000FFF790FF2268936843F48043F2E74D6820
:103E1000CE68016A21F0100101628269036A22F40E
:103E2000704223F0A00343EA051342EA063282619E
:103E30000362836823F0700343F06703C7E74A68AF
:103E4000CE68016A056A25F001050562836921F0E3
:103E50000A0123F0F00343EA06130A438361026276
:103E6000836823F0700343F04703B0E71A468BE7FB
:103E700030B590F83C30012B4FF0020332D080F87F
:103E80003D3003680D685C689A6824F070042C4328
:103E90005C60154CA3421AD0B3F1804F17D0A4F543
:103EA0007C44A34213D004F58064A3420FD004F5F0
:103EB0008064A3420BD004F57844A34207D004F5F4
:103EC0007054A34203D0A4F59434A34204D14968AA
:103ED00022F080020A439A60012380F83D300023DB
:103EE00080F83C30184630BD0000014070477047F4
:103EF0000268C16838B5136923F440530B4313615A
:103F0000054683680069D168034368690343E8692B
:103F100021F4164121F00C0103430B43D360536994
:103F2000A96923F440730B4353611F4B9A4203D09A
:103F300003F580639A4224D1FFF788F8EA691923D0
:103F4000B2F5004FA0FB0301D5E900431CD11A468E
:103F500092184FF000035B41FCF7A6FE6421B0FB12
:103F6000F1F501FB1503DB003233B3FBF1F303F092
:103F700007025B0002EB051203F4F8731344A3601D
:103F800038BDFFF753F8D9E79A009B0FFCF78CFE7A
:103F90006422B0FBF2F102FB11031B013233B3FBCD
:103FA000F2F303EB0113EAE70010014010B50446F9
:103FB00040B390F83D3003F0FF021BB980F83C207D
:103FC00001F044F82268242384F83D30D36823F4B8
:103FD0000053D3602046FFF78BFF23681A6922F451
:103FE00090421A615A6922F02A025A61DA6842F450
:103FF0000052DA6000202023206484F83D3084F8E9
:104000003E3010BD0120FCE72DE9F0414A6AD1E9BC
:104010000743D1E90158D1E903ECD1E905760968F4
:10402000012943EA0403124904680FD01A432A43C2
:1040300042EA080343EA0E0343EA0C033B432140F0
:1040400033430B4303600020BDE8F0811343426813
:10405000114045EA080242EA0E0242EA0C023A43E3
:1040600024F4F844324323430A4303604260EAE7FE
:104070000080FFFFCB68F0B50C688E680D695F1E8D
:104080004B6904F1FF3C4C688969013B1B05013C0D
:10409000013E013D0139012A4FEA04144FEA062688
:1040A0004FEA05454FEA016143EA07330CD043EA82
:1040B0000C032343826833432B4302F070420B43CB
:1040C000134383600020F0BD876827F4700727F44E
:1040D000704734433B4344EA0C02C76883602A4379
:1040E00007F070470A433A43C260EBE773B5002319
:1040F00001931546D1E900321343CA6843EA4223CB
:104100008A68013A43EA42130193019B0361044622
:10411000FDF7A6FE0646A36913F0200301D1184659
:1041200003E06B1CF7D015B9032002B070BDFDF79A
:1041300097FE801BA842EED9F6E7436943EA4101A6
:104140004161002070470000054808B5054B036039
:10415000FDF7F2FE18B1BDE8084000F09DBD08BDB6
:10416000C8B20020003002400268094B9A4282B077
:104170000BD100230193074B1A6B42F480521A6350
:104180001B6B03F480530193019B02B0704700BF87
:1041900000300240003802400D480E4A08B50023A6
:1041A000C0E90A33C0E90C33C0E90023C0E9023397
:1041B000FDF7D4FF08B100F06FFD05480121FEF7BF
:1041C00095F818B1BDE8084000F066BD08BD00BF15
:1041D000D0B2002000B002400268094B9A4282B07F
:1041E0000BD100230193074B1A6B42F400021A63B0
:1041F0001B6B03F400030193019B02B0704700BFE7
:1042000000B00240003802401648174A00B50123AA
:10421000C0E900234FF0100C40220023C0E904C283
:104220004FF4C0720421C0E906234FF40062C0E9D4
:104230000231C0E908234FF4005389B0072283629A
:104240000223CDE90312CDE9013269440322CDE90D
:1042500005230793FFF752F808B100F01DFD09B0E0
:104260005DF804FB10B30020400100A02DE9F041EF
:104270002C4B1C6886B0002C50D14FF00108C3F8BD
:104280000080294B00949A6B284842EA08029A63FE
:104290009B6B039403EA08030093022703260C2573
:1042A000009B01A94FF63F03CDE90137CDE9046535
:1042B000FEF760F81E48059501A9CDE90187CDE913
:1042C0000346FEF757F848F233131A48059501A93B
:1042D000CDE90137CDE90346FEF74CF84FF683737D
:1042E0001548059501A9CDE90137CDE90346FEF74B
:1042F00041F84CF203731148059501A9CDE9013746
:10430000CDE90346FEF736F860230D48059501A96F
:10431000CDE90137CDE90346FEF72CF806B0BDE83C
:10432000F08100BF840B00200038024000140240DE
:10433000000802400018024000100240000C024039
:10434000000402402DE9F0478EB01422002109A894
:1043500003F0DAFE0024684B01941A6B674FDFF814
:10436000A881674EDFF8A49142F004021A631A6B29
:1043700002F004020192019A02941A6B42F02002A8
:104380001A631A6B02F020020292029A03941A6BCB
:1043900042F080021A631A6B02F080020392039AC1
:1043A00004941A6B42F001021A631A6B02F00102C4
:1043B0000492049A05941A6B42F002021A631A6B73
:1043C00002F002020592059A06941A6B42F040022E
:1043D0001A631A6B02F040020692069A07941A6B4F
:1043E00042F010021A631A6B02F010020792079A49
:1043F00008941A6B42F008021A631B6B03F008035F
:104400000893224638461621089BFEF741F92246BA
:1044100040468021FEF73CF9224630464FF4405199
:10442000FEF736F9224648464FF4C041FEF730F910
:104430000125162309A93846CDE909354FF4901A0C
:10444000CDE90B44FDF796FF48F2070309A9404662
:10445000CDE9093A0B94FDF78DFF802309A9404669
:10446000CDE90935CDE90B44FDF784FF202309A9E7
:104470003846CDE9093A0B94FDF77CFF042309A9DE
:1044800020480B94CDE90934FDF774FF4FF45042F6
:104490000223CDE9092309A90C231A480D93CDE97C
:1044A0000B44FDF767FF4FF4005309A915480B941F
:1044B000CDE90934FDF75EFF4FF4006309A93046EA
:1044C000CDE909340B94FDF755FF4FF4405309A98A
:1044D0003046CDE90935CDE90B44FDF74BFF4FF4EC
:1044E000C04309A94846CDE90935CDE90B44FDF79C
:1044F00041FF0EB0BDE8F0870038024000080240DE
:10450000000C02400004024000000240001802407B
:1045100008B51248124A134BC0E9002300234FF498
:104520008042C0E90233C0E90423C0E906330362D4
:10453000FEF7B4F808B100F0AFFB08480021FEF721
:1045400055F908B100F0A8FB04480021FEF76DF909
:1045500018B1BDE8084000F09FBB08BD44B300207F
:10456000005C0040A08601002DE9F041044688B0BF
:104570001422002103A803F0C7FD22681F4B9A42B2
:1045800039D11F4C1F4800250095236B43F00403CD
:104590002363236B03F004030093009B0195236BBB
:1045A00043F001032363236B03F001030193019B99
:1045B0004FF012084FF400730127042603A9CDE938
:1045C0000338CDE905750796FDF7D4FE4FF48073E7
:1045D0000D48079603A9CDE90338CDE90575FDF728
:1045E000C9FE0295236C43F400032364236C03F497
:1045F00000030293029B08B0BDE8F081005C00401C
:1046000000380240000802400000024010B58EB0A1
:104610003422002101A803F077FD2548254B002412
:10462000C0E900344FF0090C0123C0E905C34FF085
:104630001D0E0323C0E907E340F20D1240F24313BD
:10464000C0E9092340F2171140F247138486C0E9FC
:104650000244C0E90B13046180F83640FEF78AF982
:1046600008B100F019FB4FF4A0730221CDE9043129
:10467000FF214FF4C060CDE906140721F022CDE9F7
:1046800008014FF05041CDE90A12CDE90224084853
:104690000194002201A90C93ADF834408DF8364006
:1046A000FEF7D4F908B100F0F7FA0EB010BD00BF64
:1046B00098B3002000680140F0B504468DB0142284
:1046C000002107A803F020FD2268544B9A4240F0D5
:1046D000A28003F55043002400945A6C504842F0E5
:1046E00080625A645A6C02F080620092009A0194CF
:1046F0001A6B42F020021A631A6B02F02002019238
:10470000019A02941A6B42F001021A631A6B02F0CA
:1047100001020292029A03941A6B42F002021A6397
:104720001A6B02F002020392039A04941A6B42F08D
:1047300040021A631A6B02F040020492049A059434
:104740001A6B42F004021A631A6B02F0040205921B
:10475000059A06941A6B42F008021A631B6B03F069
:104760000803069302250E26069B0B964FF48063E2
:1047700007A9CDE90735CDE90944FDF7FBFD41F671
:10478000580328480B9607A9CDE907350927CDE935
:104790000944FDF7EFFD032323480B9707A9CDE953
:1047A0000735CDE90944FDF7E5FD4FF470631E4878
:1047B0000B9607A9CDE90735CDE90944FDF7DAFDE8
:1047C0004FF40C6319480B9607A9CDE90735CDE9DD
:1047D0000944FDF7CFFD4FF4986315480B9607A9E0
:1047E000CDE90735CDE90944FDF7C4FD482311485B
:1047F0000B9607A9CDE90735CDE90944FDF7BAFDC8
:104800004FF4A05309480B9707A9CDE90735CDE927
:104810000944FDF7AFFD0DB0F0BD00BF00680140D9
:104820000014024000000240000402400018024050
:1048300000080240000C024030B595B01022002163
:104840000AA803F061FC1422002103A803F05CFC19
:1048500000241D4B01941A6C42F080521A641B6CA8
:1048600003F080530193019B184B02941A6842F4A1
:1048700040421A601B6803F4404302930122029BEA
:104880004FF48033CDE9082302254FF48003CDE9AE
:104890000E530421A823CDE9101308A8072313936E
:1048A0001295FEF74DF90F23CDE903354FF4A050D3
:1048B0004FF48053CDE90603052103A80594FEF7C4
:1048C00019FB15B030BD00BF003802400070004039
:1048D00070B51C460E46154600214FF4805203F079
:1048E00013FC00230022336073602A602B71226066
:1048F000237170BDF0B51C4D8DB00021284600F02D
:10490000CFF910F0FF0408D0020A1848214604F03D
:1049100027FB4FF0FF300DB0F0BD154B4FF00117E6
:10492000CDE900370126134B0393ADF8086000F082
:104930003DFA114BADF82060CDE9063749F28053BE
:1049400009930E4BCDE9040469462868CDE90A3481
:1049500000F0B4F930B9286800F09FF9020AC1B23A
:104960000748D4E72046D6E7A00B002064390208A8
:1049700040040440482F010040040400E01B0020D4
:1049800096390208F0B5184C07460E460FCC8DB08C
:104990006D460FC594E80300083485E803000FCC8A
:1049A00006AD0FC594E80300104C049785E803009A
:1049B00001232068ADF8043006AA6946ADF81C3022
:1049C0000A9600F0F1F901280BD0206800F065F993
:1049D000020AC1B2064804F0C3FA4FF0FF300DB02E
:1049E000F0BD0020FBE700BF84090108A00B0020F8
:1049F000C639020808B5FCF79FFF4FF0504101206F
:104A0000FCF71CFE0120FCF757FE1148FCF79CFE4A
:104A100010490120FCF76AFE00210120FCF752FE3C
:104A20000D490020FCF70AFE0020FCF745FEFCF7CC
:104A3000D7FEC820FDF71AFA6FF4FE00FCF784FEDB
:104A40006420FDF713FABDE80840044804F00EBBEB
:104A50000000FFFF808000FF000013D0F53902083E
:104A600008B56FF4FE00FCF76FFE6FF4FE00FCF774
:104A700057FE1648FCF75EFE1548FCF747FE154A40
:104A8000012305210F20FDF721F8134A01231921E5
:104A90000F20FDF71BF84FF07F40FCF737FE802317
:104AA00040211A460846FCF76FFE0C48FCF742FE10
:104AB00003230B4ADC210520FDF708F80948FCF721
:104AC00025FEBDE80840084804F0D0BA6C0000207C
:104AD0000000FFFF143A0208253A02086400002093
:104AE000313A0208FF0000FF3D3A020830B55A4B48
:104AF0001868002393B019460222406804F0CEFAE9
:104B0000FDF788F9FFF798FEFFF71CFCFFF71CFB89
:104B1000FFF742FBFFF778FBFFF7FAFCFFF776FDA4
:104B200000F048F900F02AFA00F074FA4B4804F05B
:104B30009DFA00210846FCF72BFCFFF75BFFFFF70F
:104B40008FFF0023464947480393019301AA03AB13
:104B5000FFF7BEFEFFF7CEFE0020FCF753FC002857
:104B6000FAD041483E4D04F0FBF96FF0FF00FCF72E
:104B7000CDFD102340211A460846FCF705FE3849B2
:104B80003848FFF7FFFE00239DED017ADDED037A43
:104B90009DF808009DF810101C461A46F5EC016AB5
:104BA000F4EEC76AF1EE10FA4CDD0123F0EE477A1D
:104BB0000146B0EE667AD0B21C4601320A2AEDD127
:104BC0001CB18DED017A8DF808001BB18DF8101025
:104BD000CDED037A0198FBF7C7FC02460B4623484C
:104BE0009DF8081004F0BCF90398FBF7BDFC0B46D8
:104BF00002469DF810101E4804F0B2F91D48FCF75B
:104C000085FD1D48FCF796FD6FF4FE00FCF788FD5E
:104C10009DF80820194905A804F006FB012305AA00
:104C2000F0210A20FCF752FF9DF80820144905A83E
:104C300004F0FAFA012305AA4FF482710A20FCF766
:104C400045FF89E7F4EEE76AF1EE10FAC2BFD1B290
:104C5000F0EE667A0123B0E77C0700205D3A020897
:104C6000C00B0020E00B00207D3A02088E3A0208BB
:104C7000A83A02080000FFFF6C000020C33A0208B7
:104C8000CD3A02080268034B9A4201D1FDF7DCB825
:104C9000704700BF00100040704700F0A5BA000048
:104CA00007B504230022CDE90032034A012300F0B6
:104CB00015FB03B05DF804FB80000020F0B585B063
:104CC0000646019100F0E0FB002868D0019A00231D
:104CD000012103A8039300F01FFA019A044600285B
:104CE00039D0304B039D996C41F080419964996DA6
:104CF00041F08041996505F59061C3E91811996EFD
:104D000041F08041996605F5A061C3E91C11996FD6
:104D100041F08041996705F5923101F58071C3E951
:104D20002011D3F8881041F08041C3F8881005F5B0
:104D3000933101F14000C3E9145505F59735C3E9F6
:104D4000240105F5A075D3F89810C3E9285541F062
:104D50008041C3F898100025012103A8039500F0B5
:104D60000FFA0746A8B1039A0E4B02F5E061C3E9BA
:104D70003011C3E9342202F5105102F5EF42C3E9C4
:104D80002C55C3E93811C3E93C55C3E94022C3E9B6
:104D90004422304600F08AFC38402040C0B205B0C2
:104DA000F0BD00BF8000002000F014BD0048704737
:104DB000E00901080E480F4A08B54FF48273C0E9B4
:104DC000002300234FF40072C0E90233C0E904332A
:104DD000C0E90623C0E9083383620A23C362FEF7F1
:104DE00081FB18B1BDE80840FFF756BF08BD00BF02
:104DF00040B400200050014010B5044688B0142291
:104E0000002103A803F080F92268144B9A4223D1B1
:104E100003F5684300220192596C114841F4801156
:104E20005964596C01F48011019101990292196B36
:104E300041F0200119631B6B03F0200302934FF430
:104E40006071029B0223CDE90313052303A9CDE979
:104E500005220793FDF78EFA08B010BD00500140FF
:104E6000001402400268074B9A4209D1064A0748DB
:104E7000536C23F4801353644FF46071FDF760BBEF
:104E8000704700BF0050014000380240001402404B
:104E900082B00C4B002100915A6C42F480425A645B
:104EA0005A6C02F480420092009A01911A6C42F00E
:104EB00080521A641B6C03F080530193019B02B073
:104EC000704700BF0038024030B5014689B000226B
:104ED0003620FCF7F1FF3620FDF720F80025154BB2
:104EE00002951A6C144C42F010021A641B6C03F009
:104EF0001003029301A903A8029BFEF7B7F8FEF77F
:104F000095F80E4B236040F2E733E36040000C4B12
:104F1000B0FBF3F00138606020462561A560FEF724
:104F2000D5FE20B92046FEF78BFD09B030BD01202B
:104F3000FBE700BF0038024098B40020001000409A
:104F400040420F007047FEE7FEE7FEE7FEE77047CE
:104F5000704770470148FEF7B1BD00BF98B400200C
:104F6000054BD3F8882042F47002C3F888204FF034
:104F700000629A60704700BF00ED00E07FB510222C
:104F8000002102A803F0C0F81448154A0023C0E924
:104F900000234FF6FF72CDE90033C0E90323C0E9D7
:104FA00005338360FEF792FE08B1FFF775FE4FF4FC
:104FB00080530A48029302A9FEF7BEFE08B1FFF72C
:104FC0006BFE002305486946CDE90033FEF750FF2C
:104FD00008B1FFF761FE07B05DF804FBE0B4002004
:104FE000000001400268094B9A4282B00BD10023B5
:104FF0000193074B5A6C42F001025A645B6C03F058
:1050000001030193019B02B0704700BF0000014003
:10501000003802400B480C4A08B54FF4E133C0E9B0
:10502000002300230C22C0E90233C0E905230361F9
:10503000C361FEF7BBFF18B1BDE80840FFF72CBE07
:1050400008BD00BF28B500200010014010B504467F
:1050500088B01422002103A803F056F82268154BEB
:105060009A4224D103F5943300220192596C41F005
:1050700010015964596C01F01001019101990292DB
:10508000196B41F0010119631B6B059203F00103D9
:1050900002934FF4C061029B0223CDE90313032066
:1050A0000723CDE9060303A90348FDF763F908B018
:1050B00010BD00BF0010014000000240DFF834D0F6
:1050C000002103E00C4B5B58435004310B480C4B60
:1050D00042189A42F6D30B4A02E0002342F8043BFE
:1050E000094B9A42F9D3FFF73BFF02F0D3FFFFF7DA
:1050F000FDFC70470000032004400208000000206F
:1051000050090020600900207CB50020FEE7000067
:1051100001207047704700BF32B1126922B110B14F
:1051200021B90846704770471046704770B4134B5A
:1051300015689D4207D00260A1F10100B0FA80F02D
:10514000400970BC70475468AC4202F1040211D0AF
:10515000031F1646002003E056F8044FAC4209D066
:105160000130814243F8044FF6D152F82120034B1D
:105170009A4201D00020E4E70120E2E7DECAFAA16A
:1051800032B1926A22B110B121B908467047704716
:105190001046704770B4134B15689D4207D00260EB
:1051A000A1F10100B0FA80F0400970BC704754686A
:1051B000AC4202F1040211D0031F1646002003E0A6
:1051C00056F8044FAC4209D00130814243F8044FF5
:1051D000F6D152F82120034B9A4201D00020E4E797
:1051E0000120E2E7DECAFAA110B520B1324B026815
:1051F0009A4204462ED0314A136823F0010313600B
:10520000FFF786FF2E4B1B6803F4E063B3F5806F56
:105210000DD02C4B01221A601A68002AFCD12A4BAF
:105220002A4A1A601A682A4B9A420DD0FEE7294B87
:1052300001221A601A68002AFCD1274B234A1A60FF
:105240001A68234B9A4204D1FFF764FF41F2100021
:1052500010BDFEE7194A136823F001031360FFF73E
:1052600057FF174B1B6803F4E063B3F5806F0DD055
:10527000144B01221A601A68002AFCD1124B134AFF
:105280001A601A68124B9A420ED0FEE7114B0122A7
:105290001A601A68002AFCD10F4B0C4A1A601A686F
:1052A0000B4B9A4200D0FEE7FFF734FF04F11000E9
:1052B000BDE8104000F00EBD0001C0A1002000E0DC
:1052C000002004E0084C0258004C0258C2A507F424
:1052D000CDB5E8B508300240003002402DE9F0417C
:1052E00082B0074616461D469DF820409DF8248052
:1052F000FFF70EFF78B15A4B1B6803F4E063B3F578
:10530000806F02460CD0574B182119601968182974
:1053100034D0FFF7FFFE41F2330002B0BDE8F08168
:10532000514B01211960142101E0013902D01868A4
:105330000028FAD14C4B1B68F3B91046FFF7EAFE80
:105340004A4A136823F001031360FFF7E1FE444B60
:105350001B6803F4E063B3F5806F15D0414B012265
:105360001A601A68002AFCD1414B424A1A601A6836
:10537000414B9A4216D0FEE71046CAE70121196058
:1053800019680029FCD1D8E7374B01221A601A6846
:10539000002AFCD1394B374A1A601A68364B9A42B8
:1053A00000D0FEE7FFF7B6FEAFB1354B33603E608D
:1053B00000F08EFC90B92D062404302200233B60BF
:1053C000102144EA082300202B4362F30700736492
:1053D00061F31F20A1E741F210009EE7234A136802
:1053E00023F001031360FFF793FE1D4B1B6803F4CA
:1053F000E063B3F5806F0DD01A4B01221A601A6872
:10540000002AFCD11A4B1B4A1A601A681A4B9A429E
:105410000ED0FEE7144B01221A601A68002AFCD154
:10542000164B144A1A601A68134B9A4200D0FEE7D2
:105430002D062404FFF76EFE45EA0403B3F1827FD4
:1054400001D00122BAE702A80E4B40F8043D02F059
:10545000D7FB10B100210A46B3E70222AEE700BF36
:10546000002004E0084C025808300240002000E010
:10547000004C0258C2A507F4CDB5E8B50030024093
:105480000001C0A1038404842DE9F04700284DD019
:105490007C4B02689A42044648D17B4A136823F049
:1054A000010313600D46FFF733FE784B1B6803F4CE
:1054B000E063B3F5806F0DD0754B01221A601A6856
:1054C000002AFCD1734B744A1A601A68734B9A42D3
:1054D0000DD0FEE7724B01221A601A68002AFCD137
:1054E000704B6D4A1A601A686C4B9A421DD1FFF7D7
:1054F00011FE002D76D06C4B2A68D5F810C09A4268
:1055000030D0AE6AA94605F11801002E00F0958052
:10551000BCF1000F00F0A480B4F81E80B8F1010FB8
:105520006AD100278C46A78328E0FEE7564A136815
:1055300023F001031360FFF7EBFD544B1B6803F4EA
:10554000E063B3F5806F67D0514B01221A601A688F
:10555000002AFCD14F4B504A1A601A684F4B9A42AE
:1055600067D0FEE7E18BEB88AF89B5F80E80AA889B
:10557000D5F808908B423FD1A2839BB14FF0000E2B
:10558000F24609EB0E060FCE256A75440FC596E864
:10559000030085E80300E38B0AF1010A9A450EF146
:1055A000180EEED3E38C98452ED1A784B8F1000FE6
:1055B00012D00027BE460CEB07060FCEA56A3D446D
:1055C0000FC596E8030085E80300E38C0EF1010E99
:1055D0009E4507F11807EED30323E360204602F04F
:1055E00039FB06E004F11000112210212C4600F0D6
:1055F00077FB2046BDE8F08704F110001222162147
:1056000000F06EFB0024F4E704F1100013221621D1
:1056100000F066FB0024ECE7214B01221A601A68B7
:10562000002AFCD11F4B1C4A1A601A681B4B9A4275
:1056300015D1FFF76FFD0024DBE7288CEA8B6B6A3E
:1056400002FB00F203FB02F3002B3FF461AF04F115
:10565000100013221021344600F042FBC9E7FEE798
:105660002889EA88EB6802FB00F203FB02F3002BB7
:105670003FF452AF04F1100012221021644600F0F2
:105680002FFBB6E70001C0A1002000E0002004E0ED
:10569000084C0258004C0258C2A507F4CDB5E8B535
:1056A0000830024000300240DECAFAA138B520B10D
:1056B0003F4B02689A4204462DD03E4A136823F0BD
:1056C00001031360FFF724FD3B4B1B6803F4E06309
:1056D000B3F5806F0DD0394B01221A601A68002A89
:1056E000FCD1374B374A1A601A68374B9A420DD0B3
:1056F000FEE7364B01221A601A68002AFCD1344BAF
:10570000304A1A601A68304B9A4203D1FFF702FD03
:10571000002038BDFEE7274A136823F00103136019
:10572000FFF7F6FC244B1B6803F4E063B3F5806FCE
:105730000DD0224B01221A601A68002AFCD1204B9E
:10574000204A1A601A68204B9A420ED0FEE71F4B7F
:1057500001221A601A68002AFCD11D4B194A1A60EE
:105760001A68194B9A4200D0FEE7FFF7D3FCE368B2
:1057700013F0020511D0204602F080FAE36BA3B1CA
:10578000656B95B1226C2946002098472B69AB4286
:105790000BD01D464BB1E36BF4E704F1100010226F
:1057A000112100F09DFA284638BD012038BD00BF08
:1057B0000001C0A1002000E0002004E0084C0258D5
:1057C000004C0258C2A507F4CDB5E8B50830024038
:1057D000003002402DE9F04F85B00D46029204469C
:1057E00020B17B4B02689A4218BF0024794A1368A3
:1057F00023F001031360FFF78BFC774B1B6803F466
:10580000E063B3F5806F0DD0744B01221A601A6803
:10581000002AFCD1724B734A1A601A68724B9A4282
:105820000ED0FEE7714B01221A601A68002AFCD1E3
:105830006F4B6C4A1A601A686B4B9A4200D0FEE7B5
:10584000FFF768FC002C00F08E80A78D002F40F041
:105850003C82E36803F003034FF0000B032BC4F812
:1058600014B040F02B82002D00F0A880002F00F033
:10587000A5803B88002B00F0A180B5F8049001942E
:10588000D846984580F0B6807B68002B00F0B28047
:1058900053F82860002E00F0AD80BB681B680393AE
:1058A0004FEA081413EB040A00F08780B5F808E00B
:1058B000B5F806B0B069D5F80CC041680BFB0EF323
:1058C0000CFB03F399426ED3F368DA685A456AD148
:1058D0009A68724567D15B689C4564D1006802F0A4
:1058E0008BFAF2687369D268DB6803FB02F39842B3
:1058F00059D3B369186802F027FA2B68434033F094
:105900007E4346D12B69002B3AD0B5F804B0BBF1E9
:10591000000F2DD0F2687369D168DA6802FB01F2DA
:10592000CAF80820AB8802FB03F2CAF80C202969E8
:10593000CAF804102B691344039A1351B069036821
:10594000D94538BFD9469A0008D4D0E902329B1A0B
:1059500019448160B369DAF80420DA603B8808F101
:10596000010818358DE7A346584605B0BDE8F08F0D
:10597000019C212204F11000122100F0B1F9F3E79B
:10598000019C172204F1100012219B4600F0A8F997
:10599000EAE7019C192204F11000122100F0A0F99D
:1059A0004FF0000BE0E7019C182204F110001221D7
:1059B00000F096F94FF0000BD6E7019C04F11000BF
:1059C0001722122100F08CF94FF0000BCCE700BF3A
:1059D0000001C0A1002000E0002004E0084C0258B3
:1059E000004C0258C2A507F4CDB5E8B50830024016
:1059F00000300240019C029AA38D002A00F0A98089
:105A0000012B40F29B80D4F830A01AF10C0F00F06B
:105A10009580BAF80C30002B00F09080029D019424
:105A20004FF00008984580F09280DAF81030002B93
:105A300000F08D8053F82860002E00F08880DAF89E
:105A400014301B6802934FEA08141F1900F02D81CF
:105A5000B5F808E0B5F806B0B069D5F80CC04168F3
:105A60000BFB0EF30CFB03F3994266D3F368DA6881
:105A70005A4562D19A6872455FD15B689C455CD19A
:105A8000006802F0B9F9F2687369D268DB6803FB59
:105A900002F3984251D3B369186802F055F92B68A4
:105AA000434033F07E433ED12B69002B32D0B5F812
:105AB00004B0BBF1000F25D0F2687369D168DA68D1
:105AC00002FB01F2BA60AB8802FB03F2FA602969BB
:105AD00079602B691344029A1351B0690368D94560
