:020000040800F2
:1000000000000320F1650008796400087B640008A3
:100010007D6400087F64000881640008000000001F
:1000200000000000000000000000000083640008E1
:10003000856400080000000087640008416600082D
:1000400041660008416600084166000841660008F4
:1000500041660008416600084166000841660008E4
:1000600041660008416600084166000841660008D4
:1000700041660008416600084166000841660008C4
:1000800041660008416600084166000841660008B4
:1000900041660008416600084166000841660008A4
:1000A0004166000841660008416600084166000894
:1000B0004166000841660008416600084166000884
:1000C0004166000841660008416600084166000874
:1000D0004166000841660008416600084166000864
:1000E0004166000841660008416600084166000854
:1000F0004166000841660008416600084166000844
:100100004166000841660008416600084166000833
:1001100041660008416600088964000841660008DD
:100120004166000841660008416600084166000813
:100130004166000841660008416600084166000803
:1001400041660008416600084166000841660008F3
:1001500041660008416600084166000841660008E3
:1001600041660008416600084166000841660008D3
:100170004166000841660008416600080000000072
:1001800041660008416600084166000841660008B3
:1001900041660008416600084166000841660008A3
:0C01A00041660008416600084166000846
:1001B00010B5054C237833B9044B13B10448AFF3A1
:1001C00000800123237010BD600C0020000000009F
:1001D0008833010808B5034B1BB103490348AFF34B
:1001E000008008BD00000000640C00208833010876
:1001F000034613F8012B002AFBD1181A0138704767
:1002000001F0FF01102A2BDB10F0070F08D010F8C7
:10021000013B013A8B422DD010F0070F42B3F6D1CB
:10022000F0B441EA012141EA014122F007047FF0E4
:1002300000070023F0E80256083C85EA010586EA3B
:10024000010685FA47F5A3FA87F586FA47F6A5FA77
:1002500087F68EB9EED1F0BC01F0FF0102F0070283
:1002600032B110F8013B013A83EA010313B1F8D12E
:100270000020704701387047002D06BF354603380F
:10028000073815F0010F07D1013015F4807F02BF48
:10029000013015F4C03F0130F0BC0138704700BF99
:1002A00081F0004102E000BF83F0004330B54FEA27
:1002B00041044FEA430594EA050F08BF90EA020F94
:1002C0001FBF54EA000C55EA020C7FEA645C7FEA27
:1002D000655C00F0E2804FEA5454D4EB5555B8BF4A
:1002E0006D420CDD2C4480EA020281EA030382EABB
:1002F000000083EA010180EA020281EA0303362D4D
:1003000088BF30BD11F0004F4FEA01314FF4801C1F
:100310004CEA113102D0404261EB410113F0004F31
:100320004FEA03334CEA133302D0524263EB4303E8
:1003300094EA050F00F0A780A4F10104D5F1200E86
:100340000DDB02FA0EFC22FA05F2801841F10001E1
:1003500003FA0EF2801843FA05F359410EE0A5F1B5
:1003600020050EF1200E012A03FA0EFC28BF4CF0E6
:10037000020C43FA05F3C01851EBE37101F000459C
:1003800007D54FF0000EDCF1000C7EEB00006EEBA9
:100390000101B1F5801F1BD3B1F5001F0CD3490833
:1003A0005FEA30004FEA3C0C04F101044FEA44528A
:1003B00012F5800F80F09A80BCF1004F08BF5FEA11
:1003C000500C50F1000041EB045141EA050130BDF1
:1003D0005FEA4C0C404141EB0101013C28BFB1F503
:1003E000801FE9D291F0000F04BF01460020B1FA4E
:1003F00081F308BF2033A3F10B03B3F120020CDA21
:100400000C3208DD02F1140CC2F10C0201FA0CF0FE
:1004100021FA02F10CE002F11402D8BFC2F1200C63
:1004200001FA02F120FA0CFCDCBF41EA0C01904019
:10043000E41AA2BF01EB0451294330BD6FEA040462
:100440001F3C1CDA0C340EDC04F11404C4F120024D
:1004500020FA04F001FA02F340EA030021FA04F35F
:1004600045EA030130BDC4F10C04C4F1200220FAB6
:1004700002F001FA04F340EA0300294630BD21FAF4
:1004800004F0294630BD94F0000F83F4801306BFBA
:1004900081F480110134013D4EE77FEA645C18BFAE
:1004A0007FEA655C29D094EA050F08BF90EA020F45
:1004B00005D054EA000C04BF1946104630BD91EA3D
:1004C000030F1EBF0021002030BD5FEA545C05D140
:1004D0004000494128BF41F0004130BD14F580047F
:1004E0003CBF01F5801130BD01F0004545F0FE41F3
:1004F00041F470014FF0000030BD7FEA645C1ABF28
:10050000194610467FEA655C1CBF0B46024650EA5E
:10051000013406BF52EA033591EA030F41F400218A
:1005200030BD00BF90F0000F04BF0021704730B510
:100530004FF4806404F132044FF000054FF00001E5
:1005400050E700BF90F0000F04BF0021704730B5A6
:100550004FF4806404F1320410F0004548BF40427B
:100560004FF000013EE700BF42004FEAE2014FEAD0
:1005700031014FEA02701FBF12F07F4393F07F4FAB
:1005800081F06051704732F07F4208BF704793F0AE
:100590007F4F04BF41F40021704730B54FF46074C1
:1005A00001F0004521F000411CE700BF50EA0102C4
:1005B00008BF704730B54FF000050AE050EA01026D
:1005C00008BF704730B511F0004502D5404261EBDD
:1005D00041014FF4806404F132045FEA915C3FF41E
:1005E000D8AE4FF003025FEADC0C18BF03325FEABB
:1005F000DC0C18BF033202EBDC02C2F1200300FA6C
:1006000003FC20FA02F001FA03FE40EA0E0021FA90
:1006100002F11444BDE600BF70B54FF0FF0C4CF47E
:10062000E06C1CEA11541DBF1CEA135594EA0C0F30
:1006300095EA0C0F00F0DEF82C4481EA030621EA6B
:100640004C5123EA4C5350EA013518BF52EA0335A6
:1006500041F4801143F4801338D0A0FB02CE4FF058
:100660000005E1FB02E506F00042E0FB03E54FF088
:100670000006E1FB03569CF0000F18BF4EF0010E80
:10068000A4F1FF04B6F5007F64F5407404D25FEA7C
:100690004E0E6D4146EB060642EAC62141EA55512F
:1006A0004FEAC52040EA5E504FEACE2EB4F1FD0C71
:1006B00088BFBCF5E06F1ED8BEF1004F08BF5FEAEF
:1006C000500E50F1000041EB045170BD06F00046A1
:1006D00046EA010140EA020081EA0301B4EB5C044E
:1006E000C2BFD4EB0C0541EA045170BD41F4801146
:1006F0004FF0000E013C00F3AB8014F1360FDEBF6B
:10070000002001F0004170BDC4F10004203C35DA46
:100710000C341BDC04F11404C4F1200500FA05F3C9
:1007200020FA04F001FA05F240EA020001F000426A
:1007300021F0004110EBD37021FA04F642EB0601E0
:100740005EEA430E08BF20EAD37070BDC4F10C040A
:10075000C4F1200500FA04F320FA05F001FA04F2CE
:1007600040EA020001F0004110EBD37041F10001BA
:100770005EEA430E08BF20EAD37070BDC4F12005C5
:1007800000FA05F24EEA020E20FA04F301FA05F22D
:1007900043EA020321FA04F001F0004121FA04F2D5
:1007A00020EA020000EBD3705EEA430E08BF20EAA5
:1007B000D37070BD94F0000F0FD101F000464000DF
:1007C00041EB010111F4801F08BF013CF7D041EA61
:1007D000060195F0000F18BF704703F00046520065
:1007E00043EB030313F4801F08BF013DF7D043EA36
:1007F0000603704794EA0C0F0CEA135518BF95EAEC
:100800000C0F0CD050EA410618BF52EA4306D1D172
:1008100081EA030101F000414FF0000070BD50EA91
:10082000410606BF1046194652EA430619D094EA1B
:100830000C0F02D150EA013613D195EA0C0F05D105
:1008400052EA03361CBF104619460AD181EA030159
:1008500001F0004141F0FE4141F470014FF0000011
:1008600070BD41F0FE4141F4780170BD70B54FF0AC
:10087000FF0C4CF4E06C1CEA11541DBF1CEA13552C
:1008800094EA0C0F95EA0C0F00F0A7F8A4EB05040E
:1008900081EA030E52EA03354FEA013100F0888005
:1008A0004FEA03334FF0805545EA131343EA1263CE
:1008B0004FEA022245EA111545EA10654FEA002683
:1008C0000EF000419D4208BF964244F1FD0404F53C
:1008D000407402D25B084FEA3202B61A65EB030598
:1008E0005B084FEA32024FF480104FF4002CB6EB55
:1008F000020E75EB030E22BFB61A754640EA0C00D5
:100900005B084FEA3202B6EB020E75EB030E22BF14
:10091000B61A754640EA5C005B084FEA3202B6EB55
:10092000020E75EB030E22BFB61A754640EA9C0014
:100930005B084FEA3202B6EB020E75EB030E22BFE4
:10094000B61A754640EADC0055EA060E18D04FEAA2
:10095000051545EA16754FEA06164FEAC30343EA42
:1009600052734FEAC2025FEA1C1CC0D111F4801F0F
:100970000BD141EA00014FF000004FF0004CB6E708
:1009800011F4801F04BF01430020B4F1FD0C88BFA7
:10099000BCF5E06F3FF6AFAEB5EB030C04BFB6EBB2
:1009A000020C5FEA500C50F1000041EB045170BDA5
:1009B0000EF0004E4EEA113114EB5C04C2BFD4EBD2
:1009C0000C0541EA045170BD41F480114FF0000E56
:1009D000013C90E645EA060E8DE60CEA135594EAD2
:1009E0000C0F08BF95EA0C0F3FF43BAF94EA0C0FD5
:1009F0000AD150EA01347FF434AF95EA0C0F7FF44A
:100A000025AF104619462CE795EA0C0F06D152EA9D
:100A100003353FF4FDAE1046194622E750EA410681
:100A200018BF52EA43067FF4C5AE50EA41047FF492
:100A30000DAF52EA43057FF4EBAE12E74FF0FF3CF7
:100A400006E000BF4FF0010C02E000BF4FF0010CC8
:100A50004DF804CD4FEA410C7FEA6C5C4FEA430C41
:100A600018BF7FEA6C5C1BD001B050EA410C0CBF90
:100A700052EA430C91EA030F02BF90EA020F0020F2
:100A8000704710F1000F91EA030F58BF994208BF59
:100A900090422CBFD8176FEAE37040F00100704716
:100AA0004FEA410C7FEA6C5C02D150EA013C07D16D
:100AB0004FEA430C7FEA6C5CD6D152EA033CD3D0B8
:100AC0005DF8040B704700BF8446104662468C46B2
:100AD0001946634600E000BF01B5FFF7B7FF0028E5
:100AE00048BF10F1000F01BD4DF808EDFFF7F4FF0E
:100AF0000CBF012000205DF808FB00BF4DF808ED99
:100B0000FFF7EAFF34BF012000205DF808FB00BFBB
:100B10004DF808EDFFF7E0FF94BF012000205DF8DD
:100B200008FB00BF4DF808EDFFF7CEFF94BF012092
:100B300000205DF808FB00BF4DF808EDFFF7C4FF8B
:100B400034BF012000205DF808FB00BF4FEA410CD4
:100B50007FEA6C5C02D150EA013C0AD14FEA430CB7
:100B60007FEA6C5C02D152EA033C02D14FF00000F4
:100B700070474FF0010070474FEA410212F5001232
:100B800015D211D56FF47873B3EB625212D94FEAD4
:100B9000C12343F0004343EA505311F0004F23FABE
:100BA00002F018BF404270474FF00000704750EA13
:100BB000013005D111F0004008BF6FF000407047D0
:100BC0004FF00000704700BF4A0011D212F500122A
:100BD00011D20DD56FF47873B3EB62520ED44FEA95
:100BE000C12343F0004343EA505323FA02F0704715
:100BF0004FF00000704750EA013002D14FF0FF3053
:100C000070474FF0000070474FEA4102B2F1E043F5
:100C100024BFB3F5001CDCF1FE5C0DD901F0004CE3
:100C20004FEAC0024CEA5070B2F1004F40EB830033
:100C300008BF20F00100704711F0804F21D113F15F
:100C40003872BCBF01F00040704741F480114FEA98
:100C50005252C2F11802C2F1200C10FA0CF320FA21
:100C600002F018BF40F001004FEAC1234FEAD3233E
:100C700003FA0CFC40EA0C0023FA02F34FEA4303A8
:100C8000CCE77FEA625307D150EA01331EBF4FF031
:100C9000FE4040F44000704701F0004040F0FE404C
:100CA00040F40000704700BF53B94AB9002908BF9B
:100CB00000281CBF4FF0FF314FF0FF3000F0D8B9D3
:100CC000ADF1080C6DE904CE00F070F8DDF804E039
:100CD000DDE9022304B0704707EE900AF5EEC07A12
:100CE000F1EE10FA01D400F023B8F1EE677A08B5FE
:100CF00017EE900A00F01CF8404261EB410108BD7C
:100D000038B50022002304460D46FFF7F7FE28B948
:100D100020462946BDE8384000F02AB8204605F1B3
:100D2000004100F025F8404261EB410138BD00BFB1
:100D3000D0B5FFF719FC0C4B002206460F46FFF713
:100D40006BFCFFF741FF0446FFF7ECFB074B00226B
:100D5000FFF762FC02460B4630463946FFF7A4FA1D
:100D6000FFF732FF2146D0BD0000F03D0000F0410A
:100D7000D0B50C4B002206460F46FFF74DFCFFF79F
:100D800023FF0446FFF7CEFB074B0022FFF744FC8E
:100D900002460B4630463946FFF786FAFFF714FF46
:100DA0002146D0BD0000F03D0000F0412DE9F047A4
:100DB000089D04468C46002B40F083808A421746EB
:100DC00047D9B2FA82F242B1C2F1200024FA00F00F
:100DD0009140974040EA010C94404FEA1748230C99
:100DE000BCFBF8F61FFA87FE08FB16C143EA014375
:100DF00006FB0EF1994209D9FB1806F1FF3080F08D
:100E00001981994240F21681023E3B445B1AA4B21A
:100E1000B3FBF8F008FB103344EA034400FB0EFE7A
:100E2000A64509D93C1900F1FF3380F00581A6459C
:100E300040F2028102383C4440EA0640A4EB0E0432
:100E400000261DB1D4400023C5E900433146BDE86A
:100E5000F08702B9FFDEB2FA82F2002A50D1CB1B32
:100E60004FEA174E1FFA87F80126B3FBFEFC210C50
:100E70000EFB1C3341EA034108FB0CF38B4207D9FC
:100E800079180CF1FF3002D28B4200F2E9808446DF
:100E9000C91AA3B2B1FBFEF00EFB101143EA0144E4
:100EA00008FB00F8A04507D93C1900F1FF3302D236
:100EB000A04500F2D9801846A4EB080440EA0C4093
:100EC000BFE78B4209D9002D00F0B1800026C5E9AB
:100ED000000130463146BDE8F087B3FA83F6002EB4
:100EE0004AD18B4202D3824200F2B880841A61EB6D
:100EF000030101208C46002DA8D0C5E9004CA5E7D0
:100F0000C2F1200320FA03F6974001FA02F04FEAFB
:100F1000174ED9403043030CB1FBFEF61FFA87F899
:100F20000EFB161143EA014306FB08F1994204FA4D
:100F300002F409D9FB1806F1FF3C80F08D8099423C
:100F400040F28A80023E3B445B1A81B2B3FBFEF062
:100F50000EFB103341EA034100FB08F38B4207D933
:100F6000791800F1FF3C73D28B4271D902383944B1
:100F7000CB1A40EA064678E7C6F1200C03FA06F4DD
:100F800022FA0CF31C4320FA0CF701FA06F34FEA9D
:100F9000144E21FA0CF11F433B0CB1FBFEF91FFA72
:100FA00084F80EFB191143EA014109FB08FA8A454E
:100FB00002FA06F200FA06F308D9611809F1FF30C7
:100FC00048D28A4546D9A9F102092144A1EB0A0178
:100FD000BFB2B1FBFEF00EFB101147EA014700FB68
:100FE00008F8B84507D9E71900F1FF312ED2B84506
:100FF0002CD90238274440EA0940A7EB0807A0FB98
:1010000002894F45C64649461AD317D05DB1B3EBA6
:101010000E0267EB010707FA0CFCF2404CEA0202F1
:10102000F740C5E9002700263146BDE8F0872E4687
:1010300028460BE70646E9E61846FDE64345E5D2B5
:10104000B8EB020E69EB04010138DFE70846D2E78E
:1010500060468DE78146B9E7664675E730464AE760
:10106000ACF1020C394413E702383C4424E700BFDA
:10107000704700BFF02070474FF4A07070472920E0
:1010800000F088BD282000F085BD08B500F008FDFF
:10109000CA2000F07FFDC32000F060FD082000F0B2
:1010A0005DFD502000F05AFDCF2000F073FD0020C0
:1010B00000F054FDC12000F051FD302000F04EFD45
:1010C000ED2000F067FD642000F048FD032000F0F3
:1010D00045FD122000F042FD812000F03FFDE82098
:1010E00000F058FD852000F039FD002000F036FDAD
:1010F000782000F033FDCB2000F04CFD392000F0CB
:101100002DFD2C2000F02AFD002000F027FD3420CA
:1011100000F024FD022000F021FDF72000F03AFD50
:10112000202000F01BFDEA2000F034FD002000F03C
:1011300015FD002000F012FDB12000F02BFD002075
:1011400000F00CFD1B2000F009FDB62000F022FD90
:101150000A2000F003FDA22000F000FDC02000F0F6
:1011600019FD102000F0FAFCC12000F013FD102042
:1011700000F0F4FCC52000F00DFD452000F0EEFC71
:10118000152000F0EBFCC72000F004FD902000F0DB
:10119000E5FC362000F0FEFCC82000F0DFFCF22069
:1011A00000F0F8FC002000F0D9FCB02000F0F2FCC8
:1011B000C22000F0D3FCB62000F0ECFC0A2000F0C6
:1011C000CDFCA72000F0CAFC272000F0C7FC0420BB
:1011D00000F0C4FC2A2000F0DDFC002000F0BEFC82
:1011E000002000F0BBFC002000F0B8FCEF2000F075
:1011F000B5FC2B2000F0CEFC002000F0AFFC00205E
:1012000000F0ACFC012000F0A9FC3F2000F0A6FC9F
:10121000F62000F0BFFC012000F0A0FC002000F050
:101220009DFC062000F09AFC2C2000F0B3FCC820A6
:1012300000F002FD262000F0ADFC012000F08EFC45
:10124000E02000F0A7FC0F2000F088FC292000F02F
:1012500085FC242000F082FC0C2000F07FFC0E2096
:1012600000F07CFC092000F079FC4E2000F076FCB8
:10127000782000F073FC3C2000F070FC092000F0A6
:101280006DFC132000F06AFC052000F067FC1720BD
:1012900000F064FC112000F061FC002000F05EFC16
:1012A000E12000F077FC002000F058FC162000F050
:1012B00055FC1B2000F052FC042000F04FFC1120D4
:1012C00000F04CFC072000F049FC312000F046FC07
:1012D000332000F043FC422000F040FC052000F0E9
:1012E0003DFC0C2000F03AFC0A2000F037FC2820DE
:1012F00000F034FC2F2000F031FC0F2000F02EFC19
:10130000112000F047FCC82000F096FC292000F0D6
:1013100041FCBDE808402C2000F03CBC08B500F0C2
:10132000BFFB0321D32000F051FC80B208BD13465F
:10133000C0B2CAB213B1102100F0ACBC1121FBE75E
:1013400010B5C4B202220321204600F0A3FC0A20FB
:1013500000F0F0FC20460022032100F09BFCBDE8D9
:101360001040022000F0E6BC38B50446E4B200F0BC
:1013700065FC0021204600F0A7FC0121054620461F
:1013800000F0A2FC40EA052080B238BD10B5C0B222
:101390000C46122100F098FC2040C0B210BD10B5E0
:1013A000C0B20C460D2100F08FFC2040C0B210BD31
:1013B00010B5C4B24021204600F086FC030607D5D4
:1013C0004C21204600F080FC003818BF012010BDE1
:1013D00001224B21204600F05DFC204600224B21DB
:1013E00000F058FC0020F2E773B50423C4B20E46A7
:1013F0001546D7210DEB0302204600F083FC019B2C
:101400001BBA1A0DC3F30B23328020462B80012216
:101410004B2100F03FFC00224B21204600F03AFC1B
:1014200002B070BD10B50A4B1A78904204460DD038
:10143000597888420AD00AB141B901229C5400F07F
:10144000FDFB2046BDE81040FFF77ABF10BD00BF8E
:101450007C0C002010B5C4B20921204600F034FCF9
:1014600040F00100C2B209212046BDE8104000F062
:1014700011BC10B5C4B20921204600F025FC092199
:1014800000F0FE022046BDE8104000F003BC38B575
:10149000C4B20D4620460A2100F016FC40EA0502BF
:1014A000D2B220460A21BDE8384000F0F3BB07B5B0
:1014B000019000F0C5FB01988021FFF7E8FF01983B
:1014C00003B05DF804EBFFF7C5BF07B5019000F06E
:1014D000B7FB01981F21FFF7DAFF019803B05DF811
:1014E00004EBFFF7B7BF38B5C4B20D4620460A215A
:1014F00000F0EAFB20EA0502D2B220460A21BDE84C
:10150000384000F0C7BB10B50446FFF7B2FF2046D5
:101510008021BDE81040FFF7E6BF10B50446FFF795
:10152000A8FF20461F21BDE81040FFF7DCBF38B5FB
:10153000C4B20D462046092100F0C6FB00F0FB00B6
:1015400040EA050209212046BDE8384000F0A2BB70
:1015500038B5C4B20D462046092100F0B5FB00F0B5
:10156000FD0040EA050209212046BDE8384000F0B0
:1015700091BB10B5C0B20C460B2100F0A5FB20407A
:1015800010BD1F21FFF7F5BF0A46C0B20B2100F0C6
:1015900081BB37B504460D468021FFF7F5FFE0B269
:1015A000EAB20D210192009000F074FB019A0098BC
:1015B000142100F06FFB019A0098152100F06AFBDE
:1015C000019A0098162103B0BDE8304000F062BBDC
:1015D0001F21FFF7D9BF70B5C4B20D4616461321BF
:1015E000204600F071FB46B140EA0501CAB2204630
:1015F0001321BDE8704000F04DBB20EA0501F5E77E
:1016000038B5C4B20D462046172100F05DFB40EA14
:101610000502D2B220461721BDE8384000F03ABB9F
:1016200070B5C6B204460D463046042100F04CFBAE
:10163000042100F0FA02304600F02CFBE9B220460B
:10164000BDE87040FFF7DCBF38B5C4B20D46204698
:10165000172100F039FB20EA0502D2B220461721FB
:10166000BDE8384000F016BB70B5C4B20646042190
:10167000204600F029FB042100F0FB02054620462D
:1016800000F008FB3046F021FFF7DEFF05F0F8021E
:101690002046042100F0FEFA49222021204600F0D5
:1016A000F9FA022000F046FB20460122212100F039
:1016B000F1FA20469A22412100F0ECFA204601225C
:1016C0004A2100F0E7FA204601224B2100F0E2FA1D
:1016D000204600224B2100F0DDFA2046012256214F
:1016E00000F0D8FA20460122582100F0D3FA204613
:1016F0000122402100F0CEFA2046FF220B2100F00B
:10170000C9FABDE87040022000F014BB2DE9F8438F
:10171000C7B2884638461621914600F0D5FA6FEADE
:10172000080506461521384600F0CEFA6BB21E4079
:10173000F2B219F0010F18BF42EA080200EA0300F2
:10174000C4B218BFD2B219F0020F1CBF44EA080499
:10175000E4B23846162100F09DFA2246384615219B
:10176000BDE8F84300F096BA38B5C4B20D4620463D
:101770000C2100F0A9FA40EA0502D2B220460C2161
:10178000BDE8384000F086BA37B50C461546052A44
:1017900007D8DFE802F003090E24364B0022FFF7DA
:1017A0001AFF284603B030BD0122FFF714FF0025C1
:1017B000F7E70190FFF77BFE01982146FFF7D4FF82
:1017C000002201982146FFF706FF01980221FFF74A
:1017D000BFFE022201982146FFF798FFE7E701903C
:1017E000FFF765FE01982146FFF7BEFF0022019832
:1017F0002146FFF7F0FE01980221FFF7A9FE012222
:10180000E8E70190FFF753FE01982146FFF7ACFF90
:10181000019800222146FFF7DEFE00210198FFF724
:1018200097FE00210198FFF782FEC0E70190FFF7C5
:101830003EFE01982146FFF797FF019800222146BE
:10184000FFF7C9FE00210198FFF782FE0421E9E7B6
:1018500010B5214C88B0204603F006FA002838D194
:101860001E4B23601823E3610723E3624FF40073E8
:10187000C4E90400A3614FF482736360184B0190C4
:10188000A060A062E060206260625A6C42F4801244
:101890005A645A6C02F480120192019A02901A6BF7
:1018A00042F020021A631B6B03F020030293029B99
:1018B0004FF460710223CDE9031305930120052342
:1018C000CDE9060303A9074801F0DAFA204602F041
:1018D00021FF08B010BD00BF800C00200050014067
:1018E000003802400014024070B5334E88B03046D4
:1018F00002F090F8044600285BD1304A304B314D5D
:101900000090C6E900234FF48043C6E90200C6E90F
:101910000430C6E9060030622B6B43F004032B63EE
:101920002B6B03F004030093009B01902B6B43F09F
:1019300001032B632B6B059003F001030193019BC3
:101940004FF480711223CDE9031302200423CDE963
:10195000060303A91C4801F093FA4FF400731B48D7
:10196000039303A901F08CFA02942B6C43F4000357
:101970002B642B6C03F400030293029B2B6A43F449
:1019800000032B622B6A23F400032B6222460F21F3
:10199000482001F017F8482001F046F822460F21B0
:1019A000492001F00FF8492001F03EF8304601F0DF
:1019B000D7FD08B070BD00BFAC9B0020005C0040AC
:1019C000A0860100003802400000024000080240EA
:1019D00008B5034801F06CFEBDE80840FFF784BF7E
:1019E000AC9B002007B5094BADF806001B68084802
:1019F00001220DF1060102F0FFFE20B1044802F0C1
:101A0000E5FEFFF725FF03B05DF804FB8C00002026
:101A1000800C002010B586B050B9194B00901A6B9D
:101A200042F001021A631B6B03F001030093009B59
:101A300071B90123CDE901310223CDE90333114B03
:101A400003EB800001A9C06801F01AFA06B010BDCE
:101A50000129FBD100244FF48813CDE90234094B4E
:101A6000019103EB800001A9C06801F009FA224648
:101A70000F21062000F0A6FF062000F0D5FFE5E7C5
:101A8000003802408C00002008B5044B03EB8000B6
:101A90000121C06801F07CFB08BD00BF8C00002064
:101AA000F0B52A4B93F8585089B0002D4BD1284CF3
:101AB0000095012683F85860236B264843F00803FD
:101AC0002363236B059503F0080300930227009B13
:101AD00006974FF4005303A9CDE9033601F0D0F97E
:101AE0000195236B1B4843F008032363236B03F02A
:101AF00008030193019B03A94FF48053CDE90336FA
:101B0000CDE9055701F0BCF90295236B124843F06B
:101B100004032363236B03F004030424029303A947
:101B2000029BCDE90346CDE9055701F0A9F90A4822
:101B30002A46214601F032FB07483246214601F091
:101B40002DFBFFF785FE09B0F0BD00BF800C002023
:101B500000380240000C02400008024038B50B4D2E
:101B6000044601220A484FF4005101F017FB0022FD
:101B70000421284601F012FB2046FFF733FF2846D8
:101B80000122BDE83840042101F008BB00080240F2
:101B9000000C024038B50B4D044600220A484FF4B1
:101BA000005101F0FBFA00220421284601F0F6FA68
:101BB0002046FFF717FF28460122BDE838400421E0
:101BC00001F0ECBA00080240000C024037B50546AF
:101BD0000C4615480022042101F0E0FA00224FF4DF
:101BE0000051124801F0DAFA2846FFF7FBFE104BCD
:101BF00010481B68224601A902F09AFF20B10D4847
:101C000002F0E4FDFFF724FE0848019C01224FF496
:101C1000005101F0C3FA04480122042101F0BEFA88
:101C2000204603B030BD00BF00080240000C024057
:101C30008C000020800C002000F09EBEFFF754BEF8
:101C400010B586B00024114B00941A6B104842F076
:101C500001021A631B6B03F001030093009B4FF416
:101C6000004301930123CDE9033401A94FF4041388
:101C7000029301F005F922460F21282000F0A2FE70
:101C8000282000F0D1FE06B010BD00BF0038024091
:101C9000000002407FB50A4B8DF817201B690293A4
:101CA0000DF117020123009201930A4601460548EF
:101CB00001F018FD08B1FFF78BFE07B05DF804FBDB
:101CC0008C000020AC9B00207FB500238DF81730DE
:101CD0000A4B1B6902930A4601230DF1170100917B
:101CE00001930146064801F08DFD08B1FFF770FE33
:101CF0009DF8170007B05DF804FB00BF8C000020C2
:101D0000AC9B00201FB5094C24690092CDE9013439
:101D10000A4601230146064801F074FD10B1FFF7A1
:101D200057FE012080B204B010BD00BF8C0000201F
:101D3000AC9B002000F020BE2DE9F743154CDDF8E8
:101D40002C9016461F464FF440320023C4E901236D
:101D50000A9BE3608046104B236020460D4600F04E
:101D600083FF98B94146204601F046F870B90097C4
:101D700033462A464946204600F0A2FF30B90A21E0
:101D8000204603B0BDE8F04300F0B4BF03B0BDE8A7
:101D9000F08300BFDC0C002000B0024008B5024B0D
:101DA0001B689B6A984708BDA89C002008B5024B99
:101DB0001B68DB6A984708BDA89C002070B58EB0F0
:101DC00000250E4604460195FFF7E8FFCDE9020520
:101DD000FFF7ECFFFF23CDE906354FF4C062072380
:101DE000CDE90823CDE90405ADF834508DF836501F
:101DF0000A96FFF7D3FF0B90FFF7D8FF0B4D0C901F
:101E0000224601A9284601F039FF09480C2202FBAD
:101E100004004FF0FF334364064B83644FF07F436D
:101E20000364284601F08CFF0EB070BD009C0020BA
:101E3000DC0C0020A0000020014B9865704700BF1B
:101E4000DC0C0020084B1A68C00102F18403012950
:101E5000C1580CBF41F0010121F00101C150536A8A
:101E600043F0010353627047009C002038B5064DD3
:101E700004460246284601F02EFF21462846BDE8CA
:101E8000384001F045BF00BF009C0020034A936D1D
:101E90000C2101FB03231864704700BFDC0C0020F9
:101EA000034A936D0C2101FB03235864704700BF64
:101EB000DC0C0020034A936D0C2101FB0323986482
:101EC000704700BFDC0C002030B50D4B0D4A9D6DF6
:101ED000342303FB052385B0D96D03910446FFF736
:101EE0005DFF0290FFF762FF034600200090DDE9EE
:101EF000022101942846FFF71FFF05B030BD00BF47
:101F0000DC0C0020009C00202DE9FF41104D0392C5
:101F1000AB6D0C460F490646342000FB0313D3F883
:101F20005C80FFF73BFFAF6D039A0C2303FB075365
:101F300000FB04641B6C01930023009308EB8401F5
:101F400001233846FFF7F8FE04B0BDE8F08100BF7A
:101F5000DC0C0020009C00202DE9F043124D85B0E0
:101F60000C4603921149AA6D8046342000FB0212F0
:101F7000D76DFFF713FFAE6D8146FFF70FFFAA6D18
:101F8000039B0C2101FB025509FB04842A6C01927E
:101F900001380090012207EB84013046FFF7CCFEA8
:101FA00005B0BDE8F08300BFDC0C0020009C0020E1
:101FB000F8B51E460D4604461746FFF7A5FFA919BA
:101FC0003A46204689B2FFF79FFF3246294620460F
:101FD000FFF7C2FFE0193246294680B2BDE8F8405B
:101FE000FFF7BABF2DE9FF47124D039316460C4683
:101FF000AA6D11498146342000FB0212D2F85C80A0
:10200000FFF7CCFEAF6D8246FFF7C8FEAA6D039BBB
:102010000C2101FB0255801B2A6C01920AFB0494DF
:102020000090324608EB84013846FFF785FE04B085
:10203000BDE8F087DC0C0020009C0020024B1B68F0
:102040009B6803B118477047A89C002030B58FB03B
:10205000494B4A4D4A484B4C00220192596C41F081
:1020600080615964596C01F080610191019902927B
:10207000196B41F400011963196B01F4000102911D
:1020800002990392196B41F001011963196B01F078
:102090000101039103990492196B41F00201196344
:1020A000196B01F00201049104990592196B41F03A
:1020B00004011963196B01F0040105910599069259
:1020C000196B41F008011963196B01F008010691C1
:1020D00006990792196B41F020011963196B01F001
:1020E0002001079107990892196B41F0400119638B
:1020F0001B6B03F040030893089B41F65801022331
:10210000CDE90B23CDE909130E2309A90D9300F0A6
:10211000B7FE4FF4706309A92846099300F0B0FE9A
:102120004FF4986309A91848099300F0A9FE4823C1
:1021300009A91648099300F0A3FE4FF4806309A98A
:102140001348099300F09CFE4FF40C6309A9204644
:10215000099300F095FE0323099309A90923284652
:102160000D9300F08DFE4FF4A05309A9204609936A
:1021700000F086FE0FB030BD00380240000402407F
:10218000000002400018024000080240000C02401B
:102190000014024070B5214C214B2360092101231A
:1021A000C4E905131D200323C4E9070340F20D15FC
:1021B00040F24313C4E9095340F2171640F24713A3
:1021C000C4E90B63174E0823F365C023F3660423A9
:1021D0000025736706F15C004FF40033C6F88030C9
:1021E000A58684F8365002F077F8C4E90155C4E9B1
:1021F0000355FFF72BFF204601F0D4FC0A4A0B4B96
:1022000013601B68984700F0D7FAB36D0C2202FBED
:102210000366074BB364284670BD00BF009C0020D6
:1022200000680140DC0C0020A89C00200000002079
:10223000A0000020F8B5084B15469B6D074A0C46D8
:10224000342101FB03230646DF6DFFF7A7FD00FBEA
:10225000046047F82050F8BDDC0C0020009C0020F2
:102260002DE9F04F2F4F87B0BB6DCDE901010C2157
:1022700001FB0373A2F12005996CB1F804B0B1F829
:1022800006A00A680BF10706F610CBEBC600C3B236
:1022900000930AFB05F50BF1FF3306FB05254FF014
:1022A00000090493029BD14503EB090189B202D3D3
:1022B00007B0BDE8F08F012E2C7804D0022E0ED18D
:1022C0002C8864BAA4B2049B009A13444FF000080F
:1022D0000393C3450AD809F101093544E2E76A7856
:1022E000240444EA0224AA781443ECE7019BBA6D63
:1022F000059103EB0800039B4FF0010CA3EB080EC4
:102300000CFA0EFC1CEA040F4FF00C0C0CFB0272D2
:1023100080B214BF126C526CFFF78CFF08F10108F9
:102320000599D6E7DC0C00202DE9F04799460646D2
:102330008846154613461C4613F8012B002AFAD18D
:10234000234FFFF72BFDBB6D0C2202FB0373B9F18A
:10235000010F9B6C9A88B0FBF2F01BD0B9F1020F11
:102360001FD0013D4FF000094FF00C0A15F8014F46
:10237000003C18BF0124FFF711FDBB6D0AFB03737E
:102380009B6C9B8803FB190080B2984200D36CB908
:10239000BDE8F0872C1B2044504306EB500086B26A
:1023A000DFE72C1B044414FB0260F8E730462A7870
:1023B0004146FFF755FFBB6D0AFB037309F10109A5
:1023C0009B6C9888304486B21FFA89F9CEE700BF2B
:1023D000DC0C00202DE9F04F87B0CDE9010155005C
:1023E000444CC5F1030516464FF000080C27B2B265
:1023F00000920099029A019B511AA26D13FA88F378
:1024000007FB02429BB289B21846126C04910593F5
:10241000FFF710FF019BA26D04991FFA88F9A3EB47
:10242000090B07FB02421FFA8BFB126CCDF80C90D4
:102430005846FFF7FFFEDDE9003203EB020ADDE953
:102440000232991AA26D07FB02421FFA8AFA89B278
:10245000126C04915046FFF7EDFEDDE90023A3EB7B
:102460000209A26D049907FB02421FFA89F9126C56
:102470004846FFF7DFFE009B029A9918A26D059B64
:1024800007FB024289B21846126C0091FFF7D2FE98
:10249000A36D009907FB034358461A6CFFF7CAFE69
:1024A000DDE902239918A36D07FB034389B21A6C77
:1024B00000915046FFF7BEFEA36D009907FB034352
:1024C00048461A6CFFF7B6FE002DB5BF0635A8EBDF
:1024D000060305EB88050A35A8BF06F1FF3608F1AB
:1024E0000108A8BF05EB8305464580D207B0BDE8CB
:1024F000F08F00BFDC0C00202DE9F347540080462C
:102500000E469146C4F1030417460025AFB1BAB296
:10251000A8EB020016FA85F1520080B292B289B29D
:102520001FFA85FA01920090FFF7EEFC5146711AEE
:10253000019A009889B2FFF7E7FCA5B1AAB2B9B237
:10254000A8EB02008A465200711A80B292B289B298
:1025500001920090FFF7D8FC0AEB0601019A00985F
:1025600089B2FFF7D1FC002CB5BF0634EB1B04EB9E
:1025700085040A34A8BF07F1FF3705F10105A8BF9C
:1025800004EB8304AF42C1D24A463146404602B012
:10259000BDE8F047FFF71EBF2DE9F347214C04F1DA
:1025A000100501264FF000080827214681464FF606
:1025B000FF722846C4E90067C4E90268CDF80480C8
:1025C00001F0D4FF304600F0D7F9022321464FF640
:1025D000FF722846C4E900374FF0040AC4E90268D4
:1025E00001F0C4FF032321464FF6FF722846C4E9D9
:1025F0000037C4E902A801F0B9FF4FF40C7301934E
:10260000019BA66021464FF6FF722846C4E900A749
:10261000E36001F0ABFF4946284602B0BDE8F04751
:1026200001F0BBBF680D002070B506468EB00028D3
:1026300000F0AD80574B5848002401949A6B42F04B
:1026400001029A639A6B02F001020192019A0294CC
:102650001A6B42F480021A631A6B02F4800202922F
:10266000029A03941A6B42F002021A631A6B02F088
:1026700002020392039A04941A6B42F004021A6352
:102680001A6B02F004020492049A05941A6B42F049
:1026900008021A631A6B02F008020592059A069462
:1026A0001A6B42F010021A631A6B02F010020692C3
:1026B000069A07941A6B42F020021A631A6B02F012
:1026C00020020792079A08941A6B42F040021A639C
:1026D0001B6B03F040030893089B0223CDE90B43D7
:1026E0000A930C230D9309A96023099300F0C8FBFA
:1026F00001232A48099309A900F0C2FB4CF2037395
:102700002748099309A900F0BBFB4FF683732548BE
:10271000099309A900F0B4FB4FF63F03224809933F
:1027200009A900F0ADFB48F233132048099309A929
:1027300000F0A6FB1E4B80214FF40072C3E9131278
:102740004FF480604FF48052C3E915024FF4804289
:10275000C3E917244FF400321D46C3E919240322AC
:10276000C3E91B24134A45F8442F5C6728463563A8
:102770009C64DE6700F00CFA284600F089F93820E6
:1027800022460F2100F01EF9382000F04DF90EB05E
:1027900070BD00BF00380240000402400008024043
:1027A000000C0240001002400014024000180240D9
:1027B000680D00201064024010B51B4C1B4B2361B8
:1027C000042202230721C4E92B21C4E92931C4E9E9
:1027D0002D330021C4F8BC300123C4E90531102099
:1027E0004023C4E908034FF4C073C4E90A314FF42D
:1027F0000063C4E90C3104F110004FF40053E261AE
:10280000A363FFF711FF04F1A401A1F1940001F00B
:102810008DFE074C003818BF0120207040F26A502E
:10282000FFF7BAFE207810BD680D0020400100A01F
:10283000C800002038B50B4C0B4D20806B686180C0
:102840008220984740F61103984209D12B686560B1
:102850008220984763688220DB689847002038BD53
:102860000120FCE7880E00206400002073B52B4C8B
:10287000636805461B698220984780B2288000283B
:1028800041D063680DF106025B6901A98220984777
:10289000BDF80620A2F5B47292B20B23B2FBF3F29C
:1028A000C2F5A07292B22AB1638893423CBF03F191
:1028B000FF3292B2BDF8043040F6B8318B4224D8D2
:1028C000C3F571630E339BB20F21B3FBF1F3218883
:1028D000994201D24B1E9BB2A068E668834281B246
:1028E0008CBF591AC91AB0B2B2428CBF101A801AE2
:1028F00089B280B201440529C8BFC4E90232A36885
:102900006B80E368AB8002B070BDC3F56D630833C4
:102910009BB20E2BD8D80023DEE700BF880E002024
:1029200008B50B4B1A6842F400721A601A6842F438
:1029300080621A601A6842F480721A60032000F004
:102940002FF8002003F05AFD03F03CFD002008BDE5
:10295000003C0240034A044B11681B780B4413608F
:10296000704700BFAC9C0020CC000020014B1868D1
:10297000704700BFAC9C002038B50446FFF7F6FF57
:10298000631C1CBF054B1B78054618BFE418FFF7F6
:10299000EDFF431BA342FAD338BD00BFCC0000209B
:1029A0000749CA6822F4E0620302120403F4E063F8
:1029B000120C134343F0BF6343F40033CB60704702
:1029C00000ED00E0164B30B5DC68C4F30224C4F11E
:1029D0000705231D042D28BF0425062B4FF0FF33C8
:1029E0008CBF033C002403FA05F521EA0501A3404E
:1029F00022EA0302A140002841EA0203ACBF00F131
:102A00006040084A4FEA0313B8BF00F00F00DBB282
:102A1000AABF00F56140135480F8003330BD00BFF9
:102A200000ED00E014ED00E0002808DB420901237E
:102A300000F01F0003FA00F0014B43F8220070473A
:102A400000E100E010B5044650B1437903F0FF0205
:102A500013B9027102F0A0FC01236371002010BDC4
:102A60000120FCE7036810B5084C0246D9B21039C2
:102A70001820B1FBF0F0205CD06523F47F7020F0CB
:102A800003005F2988BF0430906510BD7C70010889
:102A900070B50446FFF76AFF0546002C73D0022389
:102AA00084F835302268002384F83430136823F02A
:102AB0000103136021680B68D8072FD40B68334DCE
:102AC000A0691D40D4E901231343E268134322693E
:102AD000134362691343E26903431343226A1343B6
:102AE000626A042A43EA050302BFD4E90B56354360
:102AF0002B430B604B69042A23F0070343EA0203CC
:102B000033D1A26AE56A13437DB390B9012A21D07B
:102B100032F0020229D1EA0127D51EE0FFF726FF95
:102B2000401B0528C6D920236365032084F835009F
:102B300070BDB0F5005F14D1032A16D801A050F87B
:102B400022F000BF5B2B0008172B00085B2B00084E
:102B5000552B0008B5F1C07F07D1402363650120E4
:102B6000E4E7022AF9D9032AD5D04B612046FFF7C2
:102B700079FFE26D3F23934083600020012360656D
:102B800084F83530D4E70120D2E700BF3F8010F051
:102B900038B5054620B390F83530022BDCB21DD095
:102BA00003681A6822F0010200241A6021221C60C6
:102BB0005C609C60DC601C615A61FFF753FFEA6D4A
:102BC0003F239340C5E90F44C5E91144C5E91344C7
:102BD00083606C6585F8344085F83540204638BD03
:102BE0000124FBE770B50468049D666C45EA034365
:102BF00006F04046334363644368E263B3F5403F05
:102C000030D186681EB1012E03D121F07F41A1632E
:102C100070BD022E01F47F0301F47F45C8B207D1D5
:102C2000DB0CAD0ADB0243EA451343EAD001EEE7D1
:102C3000032E01F07F420AD1DB0CED0A9B0243EA2E
:102C4000451343EAD003D10F43EAC131DFE7190D41
:102C50002D0B090241EA051141EA1011130F41EA57
:102C60000331D4E7E160D3E710B5044630B390F800
:102C7000393003F0FF021BB980F8382002F0C4FBA2
:102C800022686168022384F83930136823F44033E2
:102C90000B431360536BA16823F007030B4353638B
:102CA000136CE16823F47F5323F03F030B43136459
:102CB00000200123E06384F8393010BD0120FCE7D7
:102CC00073B590F83850012D04464FF002050FD02F
:102CD00080F839500126069D80F838600095FFF78E
:102CE00081FF2268136833431360002002B070BD77
:102CF0002846FBE773B50023019303681B68DB07D5
:102D000004460D4617D42268D369526A13439E06BF
:102D100006D5FFF72BFE064623685A68D20643D530
:102D2000236812229A600020012384F8393084F845
:102D3000380002B070BDFFF719FE064623685A68D6
:102D40009207E0D45A680192019A12F0210F17D02D
:102D5000019A950642BFE26B42F00202E263019AD9
:102D6000D00742BFE26B42F00102E26321229A6087
:102D7000042384F83930002384F838300120D8E760
:102D8000691CDCD0FFF7F2FD801BA84201D8002DA2
:102D9000D4D1E36B43F02003E3630320002384F8E2
:102DA000390084F83830C4E75A680192019A12F069
:102DB000290F16D0019A160742BFE26B42F00402B7
:102DC000E263019A950642BFE26B42F00202E263BF
:102DD000019AD00742BFE26B42F00102E26329226E
:102DE000C5E7691C99D0FFF7C1FD801BA842D0D868
:102DF000002D91D1CDE70000F0B590F83830012BCF
:102E00004FF002032BD0012280F8393080F83820AF
:102E100000EB0113D3E907425D6A184F44EA02420E
:102E2000093C012C9CBF05F07F431A434FEA011671
:102E3000036888BF42EA056299B9596A39400A4372
:102E40005A62012C82699A6103D8426A22F07F4259
:102E50009A62012380F83930002380F83830184610
:102E6000F0BDD96939400A43DA618219012C9269AF
:102E70001A619CBF25F07F451D62EAE7F0FFFC0068
:102E80002DE9F74FDFF8C0916D4A00230D6801244A
:102E90009C4004EA050CAC4340F0B9804D6805F055
:102EA00003044FEA43080326671E06FA08F6012FBB
:102EB0006FEA060634D8876807EA060ECF6807FA75
:102EC00008F747EA0E078760476827EA0C0EC5F344
:102ED00000179F4047EA0E074760C76807EA060EDB
:102EE0008F6807FA08F747EA0E07022CC76019D166
:102EF0004FEAD30A00EB8A0A03F0070BDAF82070D6
:102F00004FEA8B0B4FF00F0E0EFA0BFE27EA0E0E58
:102F10000F6907FA0BF747EA0E07CAF8207001E0BD
:102F2000032CDAD1076804FA08F43E40264315F46E
:102F3000403F06606BD04FF0000ACDF804A0D9F8EE
:102F40004460404C46F48046C9F84460D9F8446077
:102F500006F480460196019E23F0030606F18046A2
:102F600006F59C3603F0030ED6F808804FEA8E0E65
:102F70000F2707FA0EF7A04228EA07074ED004F5FC
:102F80008064A0424CD004F58064A0424AD004F58D
:102F90008064A04248D004F58064A04246D004F585
:102FA0008064A04244D004F58064A04242D004F57D
:102FB0008064A04240D004F58064A0423ED004F575
:102FC0008064A0420CBF09240A2404FA0EF43C4396
:102FD000B46014686FEA0C06EF0354BF34404CEA47
:102FE000040414605468AF0354BF34404CEA040432
:102FF00054609468EF0254BF34404CEA0404946077
:10300000D468AD0254BF34404CEA0404D4600133A8
:10301000102B7FF43BAF03B0BDE8F08F5446D4E7EC
:103020000124D2E70224D0E70324CEE70424CCE72E
:103030000524CAE70624C8E70724C6E70824C4E72E
:10304000003C014000000240003802402DE9F04FF2
:103050004A4CDFF83091DFF830A1DFF830B10022C0
:10306000012303FA02FE3EEA01030EEA01076ED1D4
:1030700022F0030505F1804505F59C35404BD5F858
:10308000088002F0030C4FEA8C0C0F2606FA0CF6AF
:10309000984206EA08085FD003F5806398425DD045
:1030A00003F5806398425BD003F58063984259D062
:1030B00003F58063984257D0484557D0504557D0C4
:1030C000584557D003F58053984255D003F5806397
:1030D00098420CBF09230A2303FA0CF3434513D18A
:1030E000236823EA07032360636823EA0703636016
:1030F000A36823EA0703A360E36823EA0707E760FE
:10310000AB6823EA0606AE6005680326530006FA9C
:1031100003F325EA0305056022FA06F500EB8505B1
:1031200002F0070C2E6A4FEA8C0C0F2707FA0CF7F7
:1031300026EA07072F62C56825EA0305C5604568CA
:1031400025EA0E054560856825EA030383600132A0
:10315000102A85D1BDE8F08F0023BDE70123BBE72E
:103160000223B9E70323B7E70423B5E70523B3E751
:103170000623B1E70723AFE70823ADE7003C014092
:10318000000002400014024000180240001C0240EF
:103190000369194214BF0120002070470AB1816100
:1031A00070470904FBE701684B6913F480634FF033
:1031B000000210D06FF480634B612023026380F81B
:1031C0003D3080F83E20036C80F83C2043F004033F
:1031D000036401207047184670472DE9F04104460A
:1031E0000F46164698462568686927EA000080B2AF
:1031F000B8B16B695A0516D52B6843F400732B6080
:103200006FF480636B6120220023236384F83D20E8
:1032100084F83E30226C42F00402226484F83C3090
:103220000120BDE8F081731CDED0FFF79FFBA0EB0F
:103230000800B04201D8002ED5D1002320222363FC
:1032400084F83D2084F83E30226C42F02002E4E70E
:1032500070B504460D46164623685B695B0701D5C9
:10326000002070BD2046FFF79EFFA8B96A1CF3D06E
:10327000FFF77CFB801BA84201D8002DECD1002376
:103280002022236384F83D2084F83E30226C84F8A9
:103290003C3042F0200222640120E2E770B504468F
:1032A0000D46164621684B6913F0400301D00020FB
:1032B00010E04A69D2060ED56FF010024A61202252
:1032C000236384F83D2084F83E30226C226484F825
:1032D0003C30012070BDFFF749FB801BA84201D89C
:1032E000002DDFD100232022236384F83D2084F8C1
:1032F0003E30226C42F02002E8E72DE9F84606460F
:103300000F4691461D464FEA114A3368BAF1010F44
:103310000CBF5C699C6927EA0404A4B2B4FA84F483
:103320006409A14501D0002017E06A1CEED0FFF728
:103330001DFB089BC01AA84201D8002DE5D100232F
:103340002022336386F83D2086F83E30326C86F8C2
:103350003C3042F0200232640120BDE8F88670B5AE
:1033600004460D46164623685B691B0601D50020FE
:1033700070BD2046FFF717FFA8B96A1CF3D0FFF70E
:10338000F5FA801BA84201D8002DECD100232022A1
:10339000236384F83D2084F83E30226C84F83C306E
:1033A00042F0200222640120E2E700002DE9F04310
:1033B0001546026885B0DDE90C789946136843F438
:1033C000807313600E463B46CDF8008000224FF01C
:1033D00001110446FFF791FF236838B11B68DB0534
:1033E00002D54FF40073236403200AE006F0FE06C2
:1033F0001E61194943463A462046FFF7EEFE18B1D2
:10340000012005B0BDE8F083236803905A69039258
:103410009B690393424639462046039BFFF79FFF73
:1034200040B1236C042B01BF2268136843F400737E
:103430001360E5E7B9F1010F236802D1EDB21D6118
:10344000DFE72A0A1A61394642462046FFF787FF1E
:103450000028E6D12368F1E7020001002DE9FF47CB
:103460009A46036815461A6842F480621A601A6820
:10347000DDE90C7842F480721A600E463B46CDF8C6
:10348000008000224FF001110446FFF736FF236849
:1034900048B11B68DB0502D54FF400732364032099
:1034A00004B0BDE8F0875FFA86F906F0FE061E61FB
:1034B0002A4943463A462046FFF78FFE08B10120CD
:1034C000EEE7236803905A6903929B69039342468F
:1034D00039462046039BFFF742FF40B1236C042B83
:1034E00001BF2268136843F400731360E7E7BAF181
:1034F000010F23681AD1EDB21D61424639462046BC
:10350000FFF72DFF0028E9D12268136843F4807388
:1035100013604FF001110246CDF800803B46204673
:10352000FFF7EBFE226860B11368B3E72A0A1A615D
:10353000394642462046FFF712FF0028CED12368C5
:10354000D9E749F001031361044943463A4620464E
:10355000FFF743FE003818BF0120A1E70200010079
:1035600070B5044608B9012070BD90F83D3003F0F5
:10357000FF021BB980F83C2002F00EF9242384F8E6
:103580003D3023681A6822F001021A601A6842F47A
:1035900000421A601A6822F400421A6000F05EFECF
:1035A0003F4A6368934294BF3E4A3F4A90428CBF71
:1035B00000220122002AD6D121683C4E4A68B0FB85
:1035C000F6F622F03F0232434A60354A0D6A9342D2
:1035D00084BF4FF49672724325F03F0591BF721C71
:1035E0004FF47A76B2FBF6F201322A430A62CD69D1
:1035F000421E2B4825F44F45834225F0FF0532D863
:103600005B00B2FBF3F340F6FC720133134242D08D
:10361000C3F30B032B43CB61D4E907300A680343A0
:1036200022F0C00213430B608A68D4E9030322F43A
:103630000342034322F0FF0213438B60D4E90530B9
:10364000CA68034322F0FF021343CB600B6843F0C8
:1036500001030B6000202023206484F83D302063A8
:1036600084F83E0080E7A06850B903EB4303B2FB47
:10367000F3F30133C3F30B037BB143F40043C9E716
:1036800019204343B2FBF3F30133C3F30B0323B11C
:1036900043F44043BEE70423BCE70123BAE700BF7D
:1036A000A08601007F841E00FF083D0040420F00FD
:1036B00010B5044698B10268242380F83D301368A1
:1036C00023F00103136002F0B9F80020206484F8AD
:1036D0003C0084F83D00206384F83E0010BD0120CA
:1036E000FCE700002DE9F743044699460C9E0F467F
:1036F0009046FFF73BF994F83D30202B054603D068
:10370000022003B0BDE8F08300903C491923012258
:103710002046FFF7F2FD0028F2D194F83C30012B4F
:10372000EED02068012384F83C300368D9075EBFDF
:10373000036843F001030360036823F4006303603C
:10374000212384F83D30402384F83E300023236455
:103750000A9B6362BDF82C306385638D2385284BFB
:10376000E362CDE900654B46424639462046FFF705
:103770001DFE00282AD00120C3E7FFF7F0FD40B16D
:10378000236C042B01BF2268136843F40073136099
:10379000F1E7636A27681A4612F8011B3961626211
:1037A000628D218D013A92B262857A69481E80B29B
:1037B000520720850AD548B15A783A6102336362CC
:1037C000638D013B02399BB221856385238D2A4697
:1037D00031462046002BD0D1FFF73AFD0028CFD14B
:1037E0002268136843F400731360202384F83D308B
:1037F00084F83C0084F83E0083E700BF020010001C
:103800000000FFFF2DE9F043044687B09946109F62
:103810000D469046FFF7AAF894F83D30202B064657
:1038200004D00225284607B0BDE8F0830090764911
:10383000192301222046FFF760FD0028F1D194F8FA
:103840003C30012BEDD02068012384F83C30036824
:10385000DB075EBF036843F001030360036823F4E2
:1038600000630360222384F83D30402384F83E3017
:10387000002323640E9B6362BDF83C306385638D37
:103880002385624BE3622946CDE900764B464246EA
:103890002046FFF7E3FD054608B10125C2E7228D6A
:1038A0002368B2B902905A6902929A690292029A06
:1038B0001A6842F400721A60DFF85481238D002BDD
:1038C0002CD1202284F83D2084F83C3084F83E300E
:1038D000A8E7012A0AD11A6822F480621A600390CC
:1038E0005A6903929A690392039AE1E7022A0ED178
:1038F0001A6822F480621A601A6842F400621A6040
:1039000004905A6904929B690493049BD4E7059040
:103910005A6905929B690593059BCDE7032B56D801
:10392000012B15D1324639462046FFF7B7FC002857
:10393000B3D123681A69636A1A70636A01336362D8
:10394000238D013B2385638D013B9BB26385B5E7E6
:10395000022B00963B464FF000024146204619D10B
:10396000FFF7CBFC002898D123681A6842F4007254
:103970001A601A69636A1A70626A531C6362238D43
:10398000013B2385638D013B9BB2638523681B69E3
:103990005370D2E7FFF7B1FC00287FF47EAF2368B5
:1039A0001A6822F480621A601A69636A1A70636A7C
:1039B000009601336362238D013B2385638D013BB8
:1039C0009BB2638502463B4641462046C8E73246E5
:1039D00039462046FFF762FC00287FF45EAF23687B
:1039E0001A69636A1A70626A531C6362238D013B11
:1039F0002385638D013B9BB2638523685969490721
:103A00007FF55CAFC3E700BF020010000000FFFFBE
:103A10000400010090F83D00704710B590F83D306B
:103A2000202BDCB216D1242380F83D3003681A68BD
:103A300022F001021A605A6A22F010025A625A6A8F
:103A4000114359621A6842F001021A6080F83D4041
:103A5000002010BD0220FCE730B590F83D30202B4F
:103A6000DCB216D10268242380F83D30136823F0BD
:103A700001031360556A4FF6F0732B40194389B266
:103A80005162136843F00103136080F83D40002049
:103A900030BD0220FCE72DE9F043D20104684F68F5
:103AA000E568D1F800C0D1F818908432A3180CF161
:103AB0000106586800F470405860E068C5F30B4593
:103AC000C0F30B4030443D4440EA05405860E06894
:103AD000CD68C0F30A000544986800F4704098600F
:103AE000E6688868C6F30A060130304440EA0540BB
:103AF000986018690E6920F0070018614FF0000EF9
:103B00001E619D6991F8320091F83180C3F818E088
:103B100091F8305045EA096545EA082545EA00452F
:103B20009D61586920F0FF00586148695861D86963
:103B300020F4E06020F00700D861D1E90750054388
:103B4000DD61986A486AC3F828E098621EB3012EC6
:103B500023D0B01E022822D9072E0CBF022001203C
:103B6000DD6A05F0E025DD628D6AC96AA7EB0C0706
:103B700045437843033040EA0540D862186B20F48F
:103B8000FF6020F0070018631963A35843F0010396
:103B9000A350BDE8F0830420E2E70320E0E7022021
:103BA000DEE7000038B50446002863D090F8A13065
:103BB00003F0FF021BB980F8A02001F0B5FE02233C
:103BC00084F8A13023689A6922F070429A61D4E99E
:103BD00001200243E06899690243206902430A43D5
:103BE0009A619A68244960690A409A609A6842EA30
:103BF0000042A06902439A60DA68E0690A40DA602C
:103C0000DA6842EA0042206A0243DA601A69606AAE
:103C10000A401A611A6942EA0042A06A02431A6124
:103C20005A69114059615A69E16A42EA0142216BBD
:103C30000A435A61D96A94F8360094F8355001F075
:103C40007F41D962D96A94F834200A4342EA0522B6
:103C500042EA0042DA625A6B42F006025A639A69FB
:103C600042F001029A6100200123C4F8A40084F804
:103C7000A13038BD0120FCE700F800F02DE9F0414B
:103C800090F8A030012B06460F4694464FF00200F4
:103C90001FD04FF0010886F8A08086F8A1003424D8
:103CA0000D4604FB02640FCD38340FC40FCD0FC492
:103CB0000FCD0FC42B682360304662463946FFF7AC
:103CC000EAFE33680020C3F8248086F8A18086F8D5
:103CD000A000BDE8F08110B590F8A030012B4FF0A6
:103CE000020313D0046880F8A13004EBC212D2F8AA
:103CF000903003F07F43C2F890300123C2F8901057
:103D0000636280F8A130002380F8A030184610BD0F
:103D100090F8A030012B4FF002030FD0C90180F8BA
:103D2000A130843103685A5842F002025A500122ED
:103D30005A62002380F8A12080F8A030184670470E
:103D400090F8A030012B4FF002030CD0074A80F806
:103D5000A130936943F480339361012380F8A1304B
:103D6000002380F8A0301846704700BF006801406B
:103D70002DE9F341044640B30368DD0710D42368FE
:103D800098075ED423681A0700F1A08023685B07B8
:103D900000F1BE80A069002840F01F8100202BE0C8
:103DA000A64B9A6802F00C02042A07D09A6802F027
:103DB0000C02082A0BD15A68510208D59F4B1B6888
:103DC0009A03DCD56368002BD9D1012014E0626826
:103DD000B2F5803F13D11A6842F480321A60FEF7C0
:103DE000C5FD964E054633689B03C8D4FEF7BEFD5D
:103DF000401B6428F7D9032002B0BDE8F0818F4D45
:103E0000B2F5A02F2B6807D143F480232B602B68D9
:103E100043F480332B60E2E723F480332B602B687C
:103E200023F480232B60002AD9D1FEF79FFD06469C
:103E30002B689F03A3D5FEF799FD801B6428F7D953
:103E4000D9E77E4B9A6812F00C0F07D09A6802F0FF
:103E50000C02082A11D15B685E020ED4774B1A68F7
:103E6000950702D5E268012AAFD11A68216922F0CC
:103E7000F80242EAC1021A6084E7E268704BB2B10C
:103E800001221A60FEF772FD6C4D06462B689807FA
:103E900007D52B68226923F0F80343EAC2032B609D
:103EA00070E7FEF763FD801B0228EFD9A3E71A60D5
:103EB000FEF75CFD614E0546336899077FF562AFFA
:103EC000FEF754FD401B0228F6D994E762695D4B6A
:103ED0007AB101221A60FEF749FD584E0546736F0C
:103EE0009F073FF553AFFEF741FD401B0228F6D96F
:103EF00081E71A60FEF73AFD504E0546736F98074A
:103F00007FF544AFFEF732FD401B0228F6D972E779
:103F10004A4B1A6C12F0805228D101921A6C42F06E
:103F200080521A641B6C03F080530193019B01279C
:103F3000454D2B68D9051BD5A368404D012B27D1D2
:103F40002B6F43F001032B67FEF710FD3B4E054638
:103F500041F28838336F9B0739D5002F3FF41AAFF1
:103F6000364A136C23F08053136413E70027DFE70E
:103F70002B6843F480732B60FEF7F8FC06462B6831
:103F8000DA05D9D4FEF7F2FC801B0228F7D932E714
:103F9000052B04D12B6F43F004032B67D0E72A6F66
:103FA00022F001022A672A6F22F004022A67002BFE
:103FB000CAD1FEF7DBFC41F2883806462B6F980722
:103FC000CBD5FEF7D3FC801B4045F7D913E7FEF7AE
:103FD000CDFC401B4045BDD90DE7184DAB6803F043
:103FE0000C03082B47D0194E00230228336035D12B
:103FF000FEF7BCFC07462B68990129D4D4E90732A7
:104000001343626A43EA8213E26A43EA0263A26AE2
:104010005208013A43EA02436B6001233360FEF722
:10402000A5FC064D04462B689A013FF5B7AEFEF796
:104030009DFC001B0228F6D9DDE600BF00380240D7
:1040400000004742800E4742007000406000474237
:10405000FEF78CFCC01B0228CDD9CCE6FEF786FC0F
:1040600004462B689B017FF599AEFEF77FFC001B91
:104070000228F6D9BFE601283FF4BEAE6B68E269BC
:1040800003F4800191427FF4A0AE216A03F03F0265
:104090008A427FF49AAE616A47F6C0721A40B2EB68
:1040A000811F7FF492AEA26A520803F44031013AB4
:1040B000B1EB024F7FF489AEE26A03F07063B3EBB9
:1040C000026F3FF46BAE80E6134908B58B6803F0CE
:1040D0000C03042B1CD0082B1CD14A684B68496880
:1040E00013F4800314BF0D480D48C1F3881118BFA5
:1040F000002302F03F02A1FB0001FCF7D5FD064BB7
:104100005B68C3F3014301335B00B0FBF3F008BD10
:104110000248FCE70248FAE70038024000127A0041
:104120000024F4002DE9F0410D46044610B90120A9
:10413000BDE8F081444B1A6802F00F028A4228D38E
:10414000226897072DD4D00741D43F4B1A6802F05C
:104150000F02AA4266D8226851076CD4130707D50C
:104160003A4A2169936823F4604343EAC1039360A8
:10417000FFF7AAFF354B364A9B68C3F30313D35CA2
:10418000D840344B1860344B186802F037F90020DF
:10419000CEE7CAB21A701B6803F00F038B42C6D178
:1041A000CEE72A4B12F0040F1EBF996841F4E0518C
:1041B0009960160742BF996841F4604199602349AC
:1041C000A0688B6823F0F00303438B60BBE7626851
:1041D0001E4B012A1CD11B6813F4003FA7D01B4EB5
:1041E000B36823F003031343B360FEF7BFFB41F250
:1041F00088380746B368626803F00C03B3EB820F9C
:10420000A3D0FEF7B3FBC01B4045F3D903208FE7D3
:10421000911E01291B6802D813F0007FDEE713F01E
:10422000020FDBE7EAB21A701B6803F00F03AB4220
:104230007FF47DAF8FE70549E0688B6823F4E05396
:1042400003438B608AE700BF003C02400038024015
:1042500008CD1308800A0020D0000020044B054A36
:104260009B68C3F38223D35C034A1068D84070472D
:104270000038024018CD1308800A0020044B054A7C
:104280009B68C3F34233D35C034A1068D84070473D
:104290000038024018CD1308800A00200F23036065
:1042A0000B4B9A6802F0030242609A6802F0F00237
:1042B00082609A6802F4E052C2609B68DB0803F4F3
:1042C000E0530361034B1B6803F00F030B6070475F
:1042D00000380240003C0240036813F0430FF7B57A
:1042E000044640F08A80236813F00C0F44D0894DB7
:1042F000894E00232B60FEF739FB074633689B008D
:1043000000F1CC8021684F0715D5D4E90403D6F815
:1043100088201B0602F0E04243EA80131343C6F8EC
:104320008830D6F88C30226A23F4F853013A43EAF5
:104330000223C6F88C300E0714D5774AA369D2F849
:10434000881020691B0701F0706143EA80130B435A
:10435000C2F88830D2F88C30616A23F440330B43C2
:10436000C2F88C3001232B60FEF700FB6A4E054635
:104370003368980040F1998023689A0633D500236A
:104380000193654B654D1A6C42F080521A641B6CA8
:1043900003F080530193019B2B6843F480732B60DF
:1043A000FEF7E4FA06462B68D90540F185805A4DA0
:1043B0002B6F13F4407340F08680A36A03F44072BD
:1043C000B2F5407F544A40F0A080916823F07040DD
:1043D00021F4F81120F4407001439160116FC3F390
:1043E0000B030B431367206810F010001FBF4C4BEA
:1043F00094F82C201A6000204EE04A4D464F0023CE
:104400002B60FEF7B3FA06463B681A013ED42168DA
:10441000CB0741BFD4E901231B0743EA8213C7F846
:1044200084308E0715D53C4AE368D2F8840066686C
:104430001B0600F0E04043EA86130343C2F88430D1
:10444000D2F88C00E36920F01F00013B0343C2F85F
:104450008C3048060AD5E36862681B0643EA82137B
:10446000A26843EA02732C4AC2F8843001232B600D
:10447000FEF77CFA284E0546336819013FF533AF45
:10448000FEF774FA401B0228F6D904E0FEF76EFA34
:10449000801B0228B8D9032003B0F0BDFEF766FAEE
:1044A000C01B02287FF62AAFF5E7FEF75FFA401B34
:1044B00002287FF65DAFEEE7FEF758FA801B022870
:1044C0007FF671AFE7E7A26A02F4407293423FF4CD
:1044D00074AF2B6F144A0121116023F44073002143
:1044E00011602B672B6FDA077FF567AFFEF73EFA97
:1044F00041F2883706462B6F9B073FF55EAFFEF70C
:1045000035FA801BB842F6D9C5E7916821F4F81155
:1045100063E700BF7000474200380240007000406F
:10452000E011474268004742400E474238B50D4609
:104530000446C8B190F82C3003F0FF021BB980F894
:104540002D2000F0ABFF022384F82C30211D2068C1
:1045500000F072FE62682068294600F0A3FE012385
:1045600084F82C30002038BD0120FCE738B590F8E5
:104570002C30022B04460D46D8B20DD0022384F80D
:104580002C30206800F0CAFE2B68022B0CBF0523DC
:10459000012384F82C30002038BD10B590F82C3061
:1045A000022B0446D8B209D0022384F82C302068AC
:1045B00000F0DBFE012384F82C30002010BD000049
:1045C0002DE9F3411D46174688460646FEF7CEF90B
:1045D0003D442C1AFEF7CAF9224B1B68C3F3CB33B8
:1045E0000546634332680193936838EA030301D0B8
:1045F00000202DE07B1CF7D0FEF7B8F9401BA0424D
:1046000029D333685A6822F0E0025A607268B2F522
:10461000827F0AD1B268B2F5004F02D0B2F5806F46
:1046200003D11A6822F040021A60B26AB2F5005F44
:1046300007D11A6822F400521A601A6842F4005234
:104640001A60012386F85130002386F85030032089
:1046500002B0BDE8F081019B002B019B08BF002444
:10466000013BBFE7800A002038B513464268B2F527
:10467000827F04461FD18268B2F5004F02D0B2F5A6
:10468000806F07D125682868B2F5806F20F0400060
:10469000286007D00A4680212046FFF791FF20B905
:1046A000002038BD0A460121F6E7636D43F0200380
:1046B00063650320F5E70A460121EEE737B51346A7
:1046C000124A134D1268B2FBF5F54FF47A726A4341
:1046D00001924268B2F5827F04460BD10A468021DE
:1046E000FFF76EFF78B1636D43F02003636503202D
:1046F00003B030BD019B33B1019B013B01932368A3
:104700009B681B06F6D40020F2E700BF800A002059
:1047100000366E0110B50446002855D0436A002BC0
:104720004ED14268B2F5827F00D0C3610023A362FC
:1047300094F8513003F0FF0223B984F8502020464A
:1047400001F0F4FD2168A068A269022384F85130C9
:104750000B6823F040030B60636800F4044003F42B
:1047600082730343E06800F400600343206900F0B3
:1047700002000343606900F00100034302F400708B
:104780000343E06900F038000343206A00F0800032
:104790000343A06A00F4005003430B60636A120CE9
:1047A00003F0100302F004021A434A60CB6923F4B9
:1047B0000063CB6100200123606584F8513010BD97
:1047C0000023C0E90433B1E70120F8E710B504463F
:1047D00080B10268022380F85130136823F040034F
:1047E000136001F0D9FD0020606584F8500084F862
:1047F000510010BD0120FCE72DE9F7431F4690F85A
:104800005030012B04460D46904600F0A080012355
:1048100080F85030FEF7AAF894F85130012B814609
:10482000D8B240F09280002D61D0B8F1000F5ED078
:10483000032384F8513000236365C4E91033A4F8DE
:104840003680A363A387E387A36826682563B3F54F
:10485000004FA4F8348007D1336823F0400333605D
:10486000336843F4804333603368E2685B065EBFBD
:10487000336843F040033360B2F5006F63683FD1A3
:1048800013B1B8F1010F07D135F8023BF36025638E
:10489000E38E013B9BB2E386E38E9BB2A3B94A460B
:1048A00039462046FFF70AFF00284BD1A36833B9E9
:1048B00001932368DA6801929B680193019B606D04
:1048C000003818BF012012E022689368980705D5C8
:1048D000236B33F8021BD1602363D9E7FEF746F858
:1048E000A0EB0900B842D7D3791CD5D0032001230F
:1048F00084F85130002384F8503003B0BDE8F083D1
:1049000013B1B8F1010F08D12B783373236B013346
:104910002363E38E013B9BB2E386E38E9BB2002BC5
:10492000BDD023689A68920703D5226B12781A7358
:10493000ECE7FEF71BF8A0EB0900B842EDD37B1CB7
:10494000EBD0D3E720236365B0E70220CFE7022056
:10495000D3E72DE9F7431E4690F85030DDF8288064
:10496000012B04460D46914600F0E080012380F8BB
:104970005030FDF7FBFF94F851306268012B074679
:10498000D9B20AD0B2F5827F40F0CE80A368002B66
:1049900040F0CA80042940F0C780002D3FD0B9F113
:1049A000000F3CD0002E3AD094F85130C4F8389023
:1049B000042B1CBF052384F8513000236365C4E930
:1049C00010332368E687E6861968A687490658BF2C
:1049D0001968256358BF41F04001A68658BF196089
:1049E000E168B1F5006F51D10AB1012E07D135F858
:1049F000022BDA60E38E2563013B9BB2E38601253F
:104A0000E38E9BB26BB9E38F9BB253B93A464146F2
:104A10002046FFF753FE00287BD02023636501204A
:104A20002BE021688B689A070DD5E38E9BB253B1BA
:104A30004DB1236B33F8022BCA602363E38E013B35
:104A40009BB2E38600258A6812F001020CD0E38F46
:104A50009BB24BB1A36BC96823F8021BA363E38F1E
:104A6000013B9BB2E3871546FDF780FFC01B404525
:104A7000C6D3B8F1FF3FC3D00320012384F85130DF
:104A8000002384F8503003B0BDE8F0830AB1012E52
:104A900008D12A781A73236B01332363E38E013B19
:104AA0009BB2E3860125E38E9BB21BB9E38F9BB2D9
:104AB000002BABD0226893689B070ED5E38E9BB288
:104AC0005BB155B1236B1B781373236B01332363E5
:104AD000E38E013B9BB2E38600252268916811F0CA
:104AE00001010DD0E38F9BB253B1A36BD2681A7052
:104AF000A36B0133A363E38F013B9BB2E3870D46B6
:104B0000FDF734FFC01B4045CDD3B8F1FF3FCAD0FD
:104B1000B2E7A368002BB0D123680190DA68019254
:104B20009B680193019BA8E70220A6E70220AAE761
:104B30002DE9F3411D464368B3F5827F044688465C
:104B400016460CD1836853B9042380F851301346BC
:104B500000950A46FFF7FDFE02B0BDE8F08194F82B
:104B60005030012B7ED0012384F85030FDF7FEFE3B
:104B700094F85130012B0746D8B271D1B8F1000F2B
:104B80005CD0002E5AD0A268C4F83880042384F880
:104B90005130B2F5004F4FF000036365C4E91033A4
:104BA000E6872363A386E386A687236807D11A686E
:104BB00022F040021A601A6822F480421A601A68D1
:104BC00056065EBF1A6842F040021A60E368F3B10D
:104BD000E38F9BB2FBB123689A68D20735D5DA68B8
:104BE000A36B23F8022BA363E38F013B9BB2E38704
:104BF000EEE723689A68D00718D5A26B1B7B137069
:104C0000A36B0133A363E38F013B9BB2E387E38F85
:104C10009BB2002BEDD13A4629462046FFF724FDF2
:104C2000D8B9606D003818BF012007E0FDF79EFE7F
:104C3000C01BA842EBD3691CE9D00320012384F8F0
:104C40005130002384F8503086E7FDF78FFEC01BFB
:104C5000A842BDD36B1CBBD0EFE720236365E0E720
:104C60000220EBE7022077E790F851007047000040
:104C700090F83D30012B30D1022380F83D3003689D
:104C8000DA6842F00102DA60154A93421AD0B3F1B1
:104C9000804F17D0A2F57C42934213D002F5806278
:104CA00093420FD002F5806293420BD002F5784216
:104CB000934207D002F57052934203D0A2F594328A
:104CC000934204D19A6802F00702062A03D01A68B8
:104CD00042F001021A60002070470120704700BFB7
:104CE00000000140704770477047704703681A69B9
:104CF000910710B504460ED5DA6892070BD56FF010
:104D000002021A61012202779B699B0777D0FFF7A5
:104D1000EAFF0023237723681A69500710D5DA6861
:104D200051070DD56FF004021A61022222779B69A8
:104D300013F4407F204668D0FFF7D5FF0023237788
:104D400023681A6912070FD5DA6810070CD56FF0BF
:104D500008021A6104222277DB69990720465AD09B
:104D6000FFF7C1FF0023237723681A69D20610D505
:104D7000DA68D0060DD56FF010021A61082222778A
:104D8000DB6913F4407F20464BD0FFF7ACFF0023D4
:104D9000237723681A69D10708D5DA68D20705D5C1
:104DA0006FF001021A61204601F0E2F923681A69E6
:104DB000100608D5DA68110605D56FF080021A6171
:104DC000204600F0ACF923681A69520608D5DA6863
:104DD000500605D56FF040021A612046FFF785FFA7
:104DE00023681A69910622D5DA6892061FD56FF0FA
:104DF000200220461A61BDE8104000F08FB9FFF78D
:104E000071FF2046FFF770FF83E7FFF76BFF204637
:104E1000FFF76AFF92E7FFF765FF2046FFF764FFA1
:104E2000A0E7FFF75FFF2046FFF75EFFAFE710BD8B
:104E3000304A0368904212D0B0F1804F0FD0A2F5F3
:104E40007C4290420BD002F58062904207D002F57E
:104E50008062904203D002F57842904219D14A68AC
:104E600023F070031343234A904229D0B0F1804FBE
:104E700026D0A2F57C42904222D002F58062904278
:104E80001ED002F5806290421AD002F5784290421C
:104E900016D0194A904213D002F5806290420FD08A
:104EA00002F5806290420BD0A2F59832904207D072
:104EB00002F58062904203D002F58062904203D1F5
:104EC000CA6823F4407313434A6923F080031343F1
:104ED00003608B68C3620B688362064B984203D001
:104EE00003F58063984201D10B6903630123436199
:104EF000704700BF000001400040014010B504466B
:104F000030B390F83D3003F0FF021BB980F83C202D
:104F100001F002FB0223206884F83D30211DFFF7D9
:104F200087FF012384F84630002084F83E3084F85F
:104F30003F3084F8403084F8413084F8423084F8BF
:104F4000433084F8443084F8453084F83D3010BD57
:104F50000120FCE710B58468114324F47F4441EA42
:104F600003232343836010BD70B590F83C30012BC0
:104F700004464FF0020300F09180012280F83D309A
:104F800080F83C200068836823F47F4323F0770394
:104F900083600B68602B52D033D8402B67D016D873
:104FA000202B0DD00AD833F0100109D0012384F84A
:104FB0003D30002384F83C30104670BD302BF5D1D5
:104FC000826822F07002134343F0070317E0502B6E
:104FD000ECD14A68CE68016A056A25F001050562D0
:104FE000836921F00A0123F0F00343EA06130A4320
:104FF00083610262836823F0700343F05703836088
:1050000011E0B3F5805F0ED0B3F5005F0DD0702BCB
:10501000CCD1CB68D1E90121FFF79CFF22689368CE
:1050200043F0770393600022C0E7CB68D1E9012108
:10503000FFF790FF2268936843F48043F2E74D68DE
:10504000CE68016A21F0100101628269036A22F4CC
:10505000704223F0A00343EA051342EA063282615C
:105060000362836823F0700343F06703C7E74A686D
:10507000CE68016A056A25F001050562836921F0A1
:105080000A0123F0F00343EA06130A438361026234
:10509000836823F0700343F04703B0E71A468BE7B9
:1050A00030B590F83C30012B4FF0020332D080F83D
:1050B0003D3003680D685C689A6824F070042C43E6
:1050C0005C60154CA3421AD0B3F1804F17D0A4F501
:1050D0007C44A34213D004F58064A3420FD004F5AE
:1050E0008064A3420BD004F57844A34207D004F5B2
:1050F0007054A34203D0A4F59434A34204D1496868
:1051000022F080020A439A60012380F83D30002398
:1051100080F83C30184630BD0000014070477047B1
:105120000268C16838B5136923F440530B43136117
:10513000054683680069D168034368690343E869E9
:1051400021F4164121F00C0103430B43D360536952
:10515000A96923F440730B4353611F4B9A4203D058
:1051600003F580639A4224D1FFF788F8EA6919238E
:10517000B2F5004FA0FB0301D5E900431CD11A464C
:1051800092184FF000035B41FBF78EFD6421B0FBEA
:10519000F1F501FB1503DB003233B3FBF1F303F050
:1051A00007025B0002EB051203F4F8731344A360DB
:1051B00038BDFFF753F8D9E79A009B0FFBF774FD52
:1051C0006422B0FBF2F102FB11031B013233B3FB8B
:1051D000F2F303EB0113EAE70010014010B50446B7
:1051E00040B390F83D3003F0FF021BB980F83C203B
:1051F00001F0C6F92268242384F83D30D36823F4F3
:105200000053D3602046FFF78BFF23681A6922F40E
:1052100090421A615A6922F02A025A61DA6842F40D
:105220000052DA6000202023206484F83D3084F8A6
:105230003E3010BD0120FCE72DE9F0414A6AD1E97A
:105240000743D1E90158D1E903ECD1E905760968B2
:10525000012943EA0403124904680FD01A432A4380
:1052600042EA080343EA0E0343EA0C033B432140AE
:1052700033430B4303600020BDE8F08113434268D1
:10528000114045EA080242EA0E0242EA0C023A43A1
:1052900024F4F844324323430A4303604260EAE7BC
:1052A0000080FFFFCB68F0B50C688E680D695F1E4B
:1052B0004B6904F1FF3C4C688969013B1B05013CCB
:1052C000013E013D0139012A4FEA04144FEA062646
:1052D0004FEA05454FEA016143EA07330CD043EA40
:1052E0000C032343826833432B4302F070420B4389
:1052F000134383600020F0BD876827F4700727F40C
:10530000704734433B4344EA0C02C76883602A4336
:1053100007F070470A433A43C260EBE773B50023D6
:1053200001931546D1E900321343CA6843EA422388
:105330008A68013A43EA42130193019B03610446E0
:10534000FDF714FB0646A36913F0200301D11846AC
:1053500003E06B1CF7D015B9032002B070BDFDF758
:1053600005FB801BA842EED9F6E7436943EA4101F9
:105370004161002070470000054808B5054B0360F7
:10538000FDF760FB18B1BDE8084000F0FBBE08BDAA
:10539000B09C0020003002400268094B9A4282B063
:1053A0000BD100230193074B1A6B42F480521A630E
:1053B0001B6B03F480530193019B02B0704700BF45
:1053C00000300240003802400D480E4A08B5002364
:1053D000C0E90A33C0E90C33C0E90023C0E9023355
:1053E000FDF742FC08B100F0CDFE05480121FDF7B4
:1053F00003FD18B1BDE8084000F0C4BE08BD00BF01
:10540000B89C002000B002400268094B9A4282B06A
:105410000BD100230193074B1A6B42F400021A636D
:105420001B6B03F400030193019B02B0704700BFA4
:1054300000B00240003802401648174A00B5012368
:10544000C0E900234FF0100C40220023C0E904C241
:105450004FF4C0720421C0E906234FF40062C0E992
:105460000231C0E908234FF4005389B00722836258
:105470000223CDE90312CDE9013269440322CDE9CB
:1054800005230793FFF752F808B100F07BFE09B03F
:105490005DF804FBF89C0020400100A02DE9F041DC
:1054A0002C4B1C6886B0002C50D14FF00108C3F87B
:1054B0000080294B00949A6B284842EA08029A63BC
:1054C0009B6B039403EA08030093022703260C2531
:1054D000009B01A94FF63F03CDE90137CDE90465F3
:1054E000FDF7CEFC1E48059501A9CDE90187CDE960
:1054F0000346FDF7C5FC48F233131A48059501A988
:10550000CDE90137CDE90346FDF7BAFC4FF68373C9
:105510001548059501A9CDE90137CDE90346FDF709
:10552000AFFC4CF203731148059501A9CDE9013791
:10553000CDE90346FDF7A4FC60230D48059501A9BC
:10554000CDE90137CDE90346FDF79AFC06B0BDE889
:10555000F08100BF980E0020003802400014024085
:10556000000802400018024000100240000C0240F7
:10557000000402402DE9F0478EB01422002109A852
:1055800009F04CF90024684B01941A6B674FDFF85F
:10559000A881674EDFF8A49142F004021A631A6BE7
:1055A00002F004020192019A02941A6B42F0200266
:1055B0001A631A6B02F020020292029A03941A6B89
:1055C00042F080021A631A6B02F080020392039A7F
:1055D00004941A6B42F001021A631A6B02F0010282
:1055E0000492049A05941A6B42F002021A631A6B31
:1055F00002F002020592059A06941A6B42F04002EC
:105600001A631A6B02F040020692069A07941A6B0C
:1056100042F010021A631A6B02F010020792079A06
:1056200008941A6B42F008021A631B6B03F008031C
:105630000893224638461621089BFDF7AFFD224607
:1056400040468021FDF7AAFD224630464FF44051E6
:10565000FDF7A4FD224648464FF4C041FDF79EFDEC
:105660000125162309A93846CDE909354FF4901ACA
:10567000CDE90B44FDF704FC48F2070309A94046B5
:10568000CDE9093A0B94FDF7FBFB802309A94046BD
:10569000CDE90935CDE90B44FDF7F2FB202309A93B
:1056A0003846CDE9093A0B94FDF7EAFB042309A932
:1056B00020480B94CDE90934FDF7E2FB4FF450424A
:1056C0000223CDE9092309A90C231A480D93CDE93A
:1056D0000B44FDF7D5FB4FF4005309A915480B9473
:1056E000CDE90934FDF7CCFB4FF4006309A930463E
:1056F000CDE909340B94FDF7C3FB4FF4405309A9DE
:105700003046CDE90935CDE90B44FDF7B9FB4FF43F
:10571000C04309A94846CDE90935CDE90B44FDF759
:10572000AFFB0EB0BDE8F087003802400008024031
:10573000000C024000040240000002400018024039
:1057400008B51248124A134BC0E9002300234FF456
:105750008042C0E90233C0E90423C0E90633036292
:10576000FDF7FEFE08B100F00DFD08480021FEF730
:1057700054F908B100F006FD04480021FEF76CF969
:1057800018B1BDE8084000F0FDBC08BD2C9D00200C
:10579000005C0040A08601002DE9F041044688B07D
:1057A0001422002103A809F039F822681F4B9A42FD
:1057B00039D11F4C1F4800250095236B43F004038B
:1057C0002363236B03F004030093009B0195236B79
:1057D00043F001032363236B03F001030193019B57
:1057E0004FF012084FF400730127042603A9CDE9F6
:1057F0000338CDE905750796FDF742FB4FF480733A
:105800000D48079603A9CDE90338CDE90575FDF7E5
:1058100037FB0295236C43F400032364236C03F4E9
:1058200000030293029B08B0BDE8F081005C0040D9
:1058300000380240000802400000024008B502683B
:105840000A4B9A4210D10A4A0A48136C23F4000307
:1058500013644FF40071FDF7F9FBBDE808400648FA
:105860004FF48071FDF7F2BB08BD00BF005C004043
:1058700000380240000802400000024010B58EB01F
:105880003422002101A808F0C9FF2548254B002437
:10589000C0E900344FF0090C0123C0E905C34FF003
:1058A0001D0E0323C0E907E340F20D1240F243133B
:1058B000C0E9092340F2171140F247138486C0E97A
:1058C0000244C0E90B13046180F83640FEF76AF920
:1058D00008B100F057FC4FF4A0730221CDE9043168
:1058E000FF214FF4C060CDE906140721F022CDE975
:1058F00008014FF05041CDE90A12CDE902240848D1
:105900000194002201A90C93ADF834408DF8364083
:10591000FEF7B4F908B100F035FC0EB010BD00BFC1
:10592000809D002000680140F0B504468DB014222F
:10593000002107A808F072FF2268544B9A4240F0F9
:10594000A28003F55043002400945A6C504842F062
:1059500080625A645A6C02F080620092009A01944C
:105960001A6B42F020021A631A6B02F020020192B5
:10597000019A02941A6B42F001021A631A6B02F048
:1059800001020292029A03941A6B42F002021A6315
:105990001A6B02F002020392039A04941A6B42F00B
:1059A00040021A631A6B02F040020492049A0594B2
:1059B0001A6B42F004021A631A6B02F00402059299
:1059C000059A06941A6B42F008021A631B6B03F0E7
:1059D0000803069302250E26069B0B964FF4806360
:1059E00007A9CDE90735CDE90944FDF749FA41F6A4
:1059F000580328480B9607A9CDE907350927CDE9B3
:105A00000944FDF73DFA032323480B9707A9CDE985
:105A10000735CDE90944FDF733FA4FF470631E48AA
:105A20000B9607A9CDE90735CDE90944FDF728FA1A
:105A30004FF40C6319480B9607A9CDE90735CDE95A
:105A40000944FDF71DFA4FF4986315480B9607A912
:105A5000CDE90735CDE90944FDF712FA482311488D
:105A60000B9607A9CDE90735CDE90944FDF708FAFA
:105A70004FF4A05309480B9707A9CDE90735CDE9A5
:105A80000944FDF7FDF90DB0F0BD00BF006801400D
:105A900000140240000002400004024000180240CE
:105AA00000080240000C024030B595B010220021E1
:105AB0000AA808F0B3FE1422002103A808F0AEFEE5
:105AC00000241D4B01941A6C42F080521A641B6C26
:105AD00003F080530193019B184B02941A6842F41F
